{
  "_format": "hh-sol-artifact-1",
  "contractName": "Vote",
  "sourceName": "contracts/Vote.sol",
  "abi": [
    {
      "inputs": [],
      "stateMutability": "nonpayable",
      "type": "constructor"
    },
    {
      "anonymous": false,
      "inputs": [
        {
          "indexed": false,
          "internalType": "uint256[]",
          "name": "winningProposal",
          "type": "uint256[]"
        }
      ],
      "name": "GetWinning",
      "type": "event"
    },
    {
      "anonymous": false,
      "inputs": [
        {
          "indexed": true,
          "internalType": "address",
          "name": "previousOwner",
          "type": "address"
        },
        {
          "indexed": true,
          "internalType": "address",
          "name": "newOwner",
          "type": "address"
        }
      ],
      "name": "OwnershipTransferred",
      "type": "event"
    },
    {
      "anonymous": false,
      "inputs": [
        {
          "indexed": false,
          "internalType": "uint256",
          "name": "proposalId",
          "type": "uint256"
        }
      ],
      "name": "ProposalRegistered",
      "type": "event"
    },
    {
      "anonymous": false,
      "inputs": [
        {
          "indexed": false,
          "internalType": "address",
          "name": "voter",
          "type": "address"
        },
        {
          "indexed": false,
          "internalType": "uint256",
          "name": "proposalId",
          "type": "uint256"
        }
      ],
      "name": "Voted",
      "type": "event"
    },
    {
      "anonymous": false,
      "inputs": [
        {
          "indexed": false,
          "internalType": "address",
          "name": "voterAddress",
          "type": "address"
        }
      ],
      "name": "VoterRegistered",
      "type": "event"
    },
    {
      "anonymous": false,
      "inputs": [
        {
          "indexed": false,
          "internalType": "enum Vote.WorkflowStatus",
          "name": "newStatus",
          "type": "uint8"
        }
      ],
      "name": "WorkflowStatusChange",
      "type": "event"
    },
    {
      "inputs": [
        {
          "internalType": "string",
          "name": "_desc",
          "type": "string"
        }
      ],
      "name": "addProposal",
      "outputs": [],
      "stateMutability": "nonpayable",
      "type": "function"
    },
    {
      "inputs": [
        {
          "internalType": "address",
          "name": "_addr",
          "type": "address"
        }
      ],
      "name": "addVoter",
      "outputs": [],
      "stateMutability": "nonpayable",
      "type": "function"
    },
    {
      "inputs": [],
      "name": "blockEvent",
      "outputs": [
        {
          "internalType": "uint256",
          "name": "",
          "type": "uint256"
        }
      ],
      "stateMutability": "view",
      "type": "function"
    },
    {
      "inputs": [],
      "name": "endProposalsRegistering",
      "outputs": [],
      "stateMutability": "nonpayable",
      "type": "function"
    },
    {
      "inputs": [],
      "name": "endVotingSession",
      "outputs": [],
      "stateMutability": "nonpayable",
      "type": "function"
    },
    {
      "inputs": [
        {
          "internalType": "uint256",
          "name": "_id",
          "type": "uint256"
        }
      ],
      "name": "getOneProposal",
      "outputs": [
        {
          "components": [
            {
              "internalType": "string",
              "name": "description",
              "type": "string"
            },
            {
              "internalType": "uint256",
              "name": "voteCount",
              "type": "uint256"
            }
          ],
          "internalType": "struct Vote.Proposal",
          "name": "",
          "type": "tuple"
        }
      ],
      "stateMutability": "view",
      "type": "function"
    },
    {
      "inputs": [
        {
          "internalType": "address",
          "name": "_addr",
          "type": "address"
        }
      ],
      "name": "getVoter",
      "outputs": [
        {
          "components": [
            {
              "internalType": "bool",
              "name": "isRegistered",
              "type": "bool"
            },
            {
              "internalType": "bool",
              "name": "hasVoted",
              "type": "bool"
            },
            {
              "internalType": "uint256",
              "name": "votedProposalId",
              "type": "uint256"
            }
          ],
          "internalType": "struct Vote.Voter",
          "name": "",
          "type": "tuple"
        }
      ],
      "stateMutability": "view",
      "type": "function"
    },
    {
      "inputs": [],
      "name": "owner",
      "outputs": [
        {
          "internalType": "address",
          "name": "",
          "type": "address"
        }
      ],
      "stateMutability": "view",
      "type": "function"
    },
    {
      "inputs": [],
      "name": "renounceOwnership",
      "outputs": [],
      "stateMutability": "nonpayable",
      "type": "function"
    },
    {
      "inputs": [],
      "name": "reset",
      "outputs": [],
      "stateMutability": "nonpayable",
      "type": "function"
    },
    {
      "inputs": [
        {
          "internalType": "uint256",
          "name": "_id",
          "type": "uint256"
        }
      ],
      "name": "setVote",
      "outputs": [],
      "stateMutability": "nonpayable",
      "type": "function"
    },
    {
      "inputs": [],
      "name": "startProposalsRegistering",
      "outputs": [],
      "stateMutability": "nonpayable",
      "type": "function"
    },
    {
      "inputs": [],
      "name": "startVotingSession",
      "outputs": [],
      "stateMutability": "nonpayable",
      "type": "function"
    },
    {
      "inputs": [],
      "name": "tallyVotes",
      "outputs": [],
      "stateMutability": "nonpayable",
      "type": "function"
    },
    {
      "inputs": [
        {
          "internalType": "address",
          "name": "newOwner",
          "type": "address"
        }
      ],
      "name": "transferOwnership",
      "outputs": [],
      "stateMutability": "nonpayable",
      "type": "function"
    },
    {
      "inputs": [],
      "name": "workflowStatus",
      "outputs": [
        {
          "internalType": "enum Vote.WorkflowStatus",
          "name": "",
          "type": "uint8"
        }
      ],
      "stateMutability": "view",
      "type": "function"
    }
  ],
  "bytecode": "0x60806040523480156200001157600080fd5b5062000032620000266200003f60201b60201c565b6200004760201b60201c565b436001819055506200010b565b600033905090565b60008060009054906101000a900473ffffffffffffffffffffffffffffffffffffffff169050816000806101000a81548173ffffffffffffffffffffffffffffffffffffffff021916908373ffffffffffffffffffffffffffffffffffffffff1602179055508173ffffffffffffffffffffffffffffffffffffffff168173ffffffffffffffffffffffffffffffffffffffff167f8be0079c531659141344cd1fd0a4f28419497f9722a3daafe3b4186f6b6457e060405160405180910390a35050565b612fcc806200011b6000396000f3fe608060405234801561001057600080fd5b50600436106101005760003560e01c8063a7bfab1611610097578063d826f88f11610066578063d826f88f14610229578063ee74c67814610233578063f2fde38b1461023d578063f4ab9adf1461025957610100565b8063a7bfab16146101db578063c7038a4e146101e5578063c88af42f146101ef578063d4f50f98146101f957610100565b80637329f0a8116100d35780637329f0a8146101515780638da5cb5b1461016f578063a1edffa21461018d578063a2788cce146101ab57610100565b8063230796ae146101055780632fdae3c514610121578063378a21781461013d578063715018a614610147575b600080fd5b61011f600480360381019061011a9190611d58565b610275565b005b61013b60048036038101906101369190611ecb565b610657565b005b6101456108d3565b005b61014f610ad5565b005b610159610ae9565b6040516101669190611f23565b60405180910390f35b610177610aef565b6040516101849190611f7f565b60405180910390f35b610195610b18565b6040516101a29190612011565b60405180910390f35b6101c560048036038101906101c09190611d58565b610b2b565b6040516101d291906120f7565b60405180910390f35b6101e3610ccf565b005b6101ed610db2565b005b6101f7610e95565b005b610213600480360381019061020e9190612145565b610f78565b60405161022091906121cf565b60405180910390f35b6102316110dd565b005b61023b611547565b005b61025760048036038101906102529190612145565b611629565b005b610273600480360381019061026e9190612145565b6118a8565b005b600660003373ffffffffffffffffffffffffffffffffffffffff1673ffffffffffffffffffffffffffffffffffffffff16815260200190815260200160002060000160009054906101000a900460ff168061030257506102d3610aef565b73ffffffffffffffffffffffffffffffffffffffff163373ffffffffffffffffffffffffffffffffffffffff16145b610341576040517f08c379a000000000000000000000000000000000000000000000000000000000815260040161033890612247565b60405180910390fd5b6003600581111561035557610354611f9a565b5b600360009054906101000a900460ff16600581111561037757610376611f9a565b5b146103b7576040517f08c379a00000000000000000000000000000000000000000000000000000000081526004016103ae906122d9565b60405180910390fd5b600660003373ffffffffffffffffffffffffffffffffffffffff1673ffffffffffffffffffffffffffffffffffffffff16815260200190815260200160002060000160019054906101000a900460ff1615610447576040517f08c379a000000000000000000000000000000000000000000000000000000000815260040161043e90612345565b60405180910390fd5b600480549050811061048e576040517f08c379a0000000000000000000000000000000000000000000000000000000008152600401610485906123b1565b60405180910390fd5b60405160200161049d90612402565b60405160208183030381529060405280519060200120600482815481106104c7576104c6612417565b5b90600052602060002090600202016000016040516020016104e8919061253e565b604051602081830303815290604052805190602001200361053e576040517f08c379a0000000000000000000000000000000000000000000000000000000008152600401610535906125a1565b60405180910390fd5b80600660003373ffffffffffffffffffffffffffffffffffffffff1673ffffffffffffffffffffffffffffffffffffffff168152602001908152602001600020600101819055506001600660003373ffffffffffffffffffffffffffffffffffffffff1673ffffffffffffffffffffffffffffffffffffffff16815260200190815260200160002060000160016101000a81548160ff021916908315150217905550600481815481106105f4576105f3612417565b5b90600052602060002090600202016001016000815480929190610616906125f0565b91905055507f4d99b957a2bc29a30ebd96a7be8e68fe50a3c701db28a91436490b7d53870ca4338260405161064c929190612638565b60405180910390a150565b600660003373ffffffffffffffffffffffffffffffffffffffff1673ffffffffffffffffffffffffffffffffffffffff16815260200190815260200160002060000160009054906101000a900460ff16806106e457506106b5610aef565b73ffffffffffffffffffffffffffffffffffffffff163373ffffffffffffffffffffffffffffffffffffffff16145b610723576040517f08c379a000000000000000000000000000000000000000000000000000000000815260040161071a90612247565b60405180910390fd5b6001600581111561073757610736611f9a565b5b600360009054906101000a900460ff16600581111561075957610758611f9a565b5b14610799576040517f08c379a0000000000000000000000000000000000000000000000000000000008152600401610790906126ad565b60405180910390fd5b6040516020016107a8906126f0565b60405160208183030381529060405280519060200120816040516020016107cf9190612749565b6040516020818303038152906040528051906020012003610825576040517f08c379a000000000000000000000000000000000000000000000000000000000815260040161081c906127dd565b60405180910390fd5b6004604051806040016040528083815260200160008152509080600181540180825580915050600190039060005260206000209060020201600090919091909150600082015181600001908161087b9190612994565b506020820151816001015550507f92e393e9b54e2f801d3ea4beb0c5e71a21cc34a5d34b77d0fb8a3aa1650dc18f60016004805490506108bb9190612a66565b6040516108c89190611f23565b60405180910390a150565b6108db611ab4565b600460058111156108ef576108ee611f9a565b5b600360009054906101000a900460ff16600581111561091157610910611f9a565b5b14610951576040517f08c379a000000000000000000000000000000000000000000000000000000000815260040161094890612b0c565b60405180910390fd5b600080600090505b6004805490508110156109cf576004828154811061097a57610979612417565b5b906000526020600020906002020160010154600482815481106109a05761099f612417565b5b90600052602060002090600202016001015411156109bc578091505b80806109c7906125f0565b915050610959565b5060005b600480549050811015610a6e57600482815481106109f4576109f3612417565b5b90600052602060002090600202016001015460048281548110610a1a57610a19612417565b5b90600052602060002090600202016001015403610a5b5760028190806001815401808255809150506001900390600052602060002001600090919091909150555b8080610a66906125f0565b9150506109d3565b506005600360006101000a81548160ff02191690836005811115610a9557610a94611f9a565b5b02179055507fd0333fc5d15226171b77afcfaa378b55d18b661b99c9c5589add6eb03bbf86cd6005604051610aca9190612011565b60405180910390a150565b610add611ab4565b610ae76000611b32565b565b60015481565b60008060009054906101000a900473ffffffffffffffffffffffffffffffffffffffff16905090565b600360009054906101000a900460ff1681565b610b33611bfe565b600660003373ffffffffffffffffffffffffffffffffffffffff1673ffffffffffffffffffffffffffffffffffffffff16815260200190815260200160002060000160009054906101000a900460ff1680610bc05750610b91610aef565b73ffffffffffffffffffffffffffffffffffffffff163373ffffffffffffffffffffffffffffffffffffffff16145b610bff576040517f08c379a0000000000000000000000000000000000000000000000000000000008152600401610bf690612247565b60405180910390fd5b60048281548110610c1357610c12612417565b5b9060005260206000209060020201604051806040016040529081600082018054610c3c90612475565b80601f0160208091040260200160405190810160405280929190818152602001828054610c6890612475565b8015610cb55780601f10610c8a57610100808354040283529160200191610cb5565b820191906000526020600020905b815481529060010190602001808311610c9857829003601f168201915b505050505081526020016001820154815250509050919050565b610cd7611ab4565b60036005811115610ceb57610cea611f9a565b5b600360009054906101000a900460ff166005811115610d0d57610d0c611f9a565b5b14610d4d576040517f08c379a0000000000000000000000000000000000000000000000000000000008152600401610d44906122d9565b60405180910390fd5b6004600360006101000a81548160ff02191690836005811115610d7357610d72611f9a565b5b02179055507fd0333fc5d15226171b77afcfaa378b55d18b661b99c9c5589add6eb03bbf86cd6004604051610da89190612011565b60405180910390a1565b610dba611ab4565b60006005811115610dce57610dcd611f9a565b5b600360009054906101000a900460ff166005811115610df057610def611f9a565b5b14610e30576040517f08c379a0000000000000000000000000000000000000000000000000000000008152600401610e2790612b9e565b60405180910390fd5b6001600360006101000a81548160ff02191690836005811115610e5657610e55611f9a565b5b02179055507fd0333fc5d15226171b77afcfaa378b55d18b661b99c9c5589add6eb03bbf86cd6001604051610e8b9190612011565b60405180910390a1565b610e9d611ab4565b60016005811115610eb157610eb0611f9a565b5b600360009054906101000a900460ff166005811115610ed357610ed2611f9a565b5b14610f13576040517f08c379a0000000000000000000000000000000000000000000000000000000008152600401610f0a90612c30565b60405180910390fd5b6002600360006101000a81548160ff02191690836005811115610f3957610f38611f9a565b5b02179055507fd0333fc5d15226171b77afcfaa378b55d18b661b99c9c5589add6eb03bbf86cd6002604051610f6e9190612011565b60405180910390a1565b610f80611c18565b600660003373ffffffffffffffffffffffffffffffffffffffff1673ffffffffffffffffffffffffffffffffffffffff16815260200190815260200160002060000160009054906101000a900460ff168061100d5750610fde610aef565b73ffffffffffffffffffffffffffffffffffffffff163373ffffffffffffffffffffffffffffffffffffffff16145b61104c576040517f08c379a000000000000000000000000000000000000000000000000000000000815260040161104390612247565b60405180910390fd5b600660008373ffffffffffffffffffffffffffffffffffffffff1673ffffffffffffffffffffffffffffffffffffffff1681526020019081526020016000206040518060600160405290816000820160009054906101000a900460ff161515151581526020016000820160019054906101000a900460ff161515151581526020016001820154815250509050919050565b6110e5611ab4565b60016002805490500361128d5760005b6005805490508110156112015760405180606001604052806000151581526020016000151581526020016000815250600660006005848154811061113c5761113b612417565b5b9060005260206000200160009054906101000a900473ffffffffffffffffffffffffffffffffffffffff1673ffffffffffffffffffffffffffffffffffffffff1673ffffffffffffffffffffffffffffffffffffffff16815260200190815260200160002060008201518160000160006101000a81548160ff02191690831515021790555060208201518160000160016101000a81548160ff0219169083151502179055506040820151816001015590505080806111f9906125f0565b9150506110f5565b5043600181905550600260006112179190611c3d565b600460006112259190611c5e565b6000600360006101000a81548160ff0219169083600581111561124b5761124a611f9a565b5b02179055507fd0333fc5d15226171b77afcfaa378b55d18b661b99c9c5589add6eb03bbf86cd60006040516112809190612011565b60405180910390a1611545565b60005b60058054905081101561139c576040518060600160405280600115158152602001600015158152602001600081525060066000600584815481106112d7576112d6612417565b5b9060005260206000200160009054906101000a900473ffffffffffffffffffffffffffffffffffffffff1673ffffffffffffffffffffffffffffffffffffffff1673ffffffffffffffffffffffffffffffffffffffff16815260200190815260200160002060008201518160000160006101000a81548160ff02191690831515021790555060208201518160000160016101000a81548160ff021916908315150217905550604082015181600101559050508080611394906125f0565b915050611290565b506000600460026000815481106113b6576113b5612417565b5b9060005260206000200154815481106113d2576113d1612417565b5b906000526020600020906002020160010154905060005b6004805490508110156114d1576004818154811061140a57611409612417565b5b90600052602060002090600202016001015482111561149257604051806040016040528060405180602001604052806000815250815260200160008152506004828154811061145c5761145b612417565b5b9060005260206000209060020201600082015181600001908161147f9190612994565b50602082015181600101559050506114be565b6000600482815481106114a8576114a7612417565b5b9060005260206000209060020201600101819055505b80806114c9906125f0565b9150506113e9565b50600260006114e09190611c3d565b6002600360006101000a81548160ff0219169083600581111561150657611505611f9a565b5b02179055507fd0333fc5d15226171b77afcfaa378b55d18b661b99c9c5589add6eb03bbf86cd600260405161153b9190612011565b60405180910390a1505b565b61154f611ab4565b6002600581111561156357611562611f9a565b5b600360009054906101000a900460ff16600581111561158557611584611f9a565b5b146115c5576040517f08c379a00000000000000000000000000000000000000000000000000000000081526004016115bc90612cc2565b60405180910390fd5b60038060006101000a81548160ff021916908360058111156115ea576115e9611f9a565b5b02179055507fd0333fc5d15226171b77afcfaa378b55d18b661b99c9c5589add6eb03bbf86cd600360405161161f9190612011565b60405180910390a1565b600073ffffffffffffffffffffffffffffffffffffffff168173ffffffffffffffffffffffffffffffffffffffff1603611698576040517f08c379a000000000000000000000000000000000000000000000000000000000815260040161168f90612d54565b60405180910390fd5b3373ffffffffffffffffffffffffffffffffffffffff168173ffffffffffffffffffffffffffffffffffffffff1614611706576040517f08c379a00000000000000000000000000000000000000000000000000000000081526004016116fd90612e0c565b60405180910390fd5b61170f81611b32565b60005b60058054905081101561181e5760405180606001604052806000151581526020016000151581526020016000815250600660006005848154811061175957611758612417565b5b9060005260206000200160009054906101000a900473ffffffffffffffffffffffffffffffffffffffff1673ffffffffffffffffffffffffffffffffffffffff1673ffffffffffffffffffffffffffffffffffffffff16815260200190815260200160002060008201518160000160006101000a81548160ff02191690831515021790555060208201518160000160016101000a81548160ff021916908315150217905550604082015181600101559050508080611816906125f0565b915050611712565b5043600181905550600260006118349190611c3d565b600460006118429190611c5e565b6000600360006101000a81548160ff0219169083600581111561186857611867611f9a565b5b02179055507fd0333fc5d15226171b77afcfaa378b55d18b661b99c9c5589add6eb03bbf86cd600060405161189d9190612011565b60405180910390a150565b6118b0611ab4565b600060058111156118c4576118c3611f9a565b5b600360009054906101000a900460ff1660058111156118e6576118e5611f9a565b5b14611926576040517f08c379a000000000000000000000000000000000000000000000000000000000815260040161191d90612e9e565b60405180910390fd5b60011515600660008373ffffffffffffffffffffffffffffffffffffffff1673ffffffffffffffffffffffffffffffffffffffff16815260200190815260200160002060000160009054906101000a900460ff161515036119bc576040517f08c379a00000000000000000000000000000000000000000000000000000000081526004016119b390612f0a565b60405180910390fd5b6001600660008373ffffffffffffffffffffffffffffffffffffffff1673ffffffffffffffffffffffffffffffffffffffff16815260200190815260200160002060000160006101000a81548160ff0219169083151502179055506005819080600181540180825580915050600190039060005260206000200160009091909190916101000a81548173ffffffffffffffffffffffffffffffffffffffff021916908373ffffffffffffffffffffffffffffffffffffffff1602179055507fb6be2187d059cc2a55fe29e0e503b566e1e0f8c8780096e185429350acffd3dd81604051611aa99190611f7f565b60405180910390a150565b611abc611bf6565b73ffffffffffffffffffffffffffffffffffffffff16611ada610aef565b73ffffffffffffffffffffffffffffffffffffffff1614611b30576040517f08c379a0000000000000000000000000000000000000000000000000000000008152600401611b2790612f76565b60405180910390fd5b565b60008060009054906101000a900473ffffffffffffffffffffffffffffffffffffffff169050816000806101000a81548173ffffffffffffffffffffffffffffffffffffffff021916908373ffffffffffffffffffffffffffffffffffffffff1602179055508173ffffffffffffffffffffffffffffffffffffffff168173ffffffffffffffffffffffffffffffffffffffff167f8be0079c531659141344cd1fd0a4f28419497f9722a3daafe3b4186f6b6457e060405160405180910390a35050565b600033905090565b604051806040016040528060608152602001600081525090565b6040518060600160405280600015158152602001600015158152602001600081525090565b5080546000825590600052602060002090810190611c5b9190611c82565b50565b5080546000825560020290600052602060002090810190611c7f9190611c9f565b50565b5b80821115611c9b576000816000905550600101611c83565b5090565b5b80821115611cca5760008082016000611cb99190611cce565b600182016000905550600201611ca0565b5090565b508054611cda90612475565b6000825580601f10611cec5750611d0b565b601f016020900490600052602060002090810190611d0a9190611c82565b5b50565b6000604051905090565b600080fd5b600080fd5b6000819050919050565b611d3581611d22565b8114611d4057600080fd5b50565b600081359050611d5281611d2c565b92915050565b600060208284031215611d6e57611d6d611d18565b5b6000611d7c84828501611d43565b91505092915050565b600080fd5b600080fd5b6000601f19601f8301169050919050565b7f4e487b7100000000000000000000000000000000000000000000000000000000600052604160045260246000fd5b611dd882611d8f565b810181811067ffffffffffffffff82111715611df757611df6611da0565b5b80604052505050565b6000611e0a611d0e565b9050611e168282611dcf565b919050565b600067ffffffffffffffff821115611e3657611e35611da0565b5b611e3f82611d8f565b9050602081019050919050565b82818337600083830152505050565b6000611e6e611e6984611e1b565b611e00565b905082815260208101848484011115611e8a57611e89611d8a565b5b611e95848285611e4c565b509392505050565b600082601f830112611eb257611eb1611d85565b5b8135611ec2848260208601611e5b565b91505092915050565b600060208284031215611ee157611ee0611d18565b5b600082013567ffffffffffffffff811115611eff57611efe611d1d565b5b611f0b84828501611e9d565b91505092915050565b611f1d81611d22565b82525050565b6000602082019050611f386000830184611f14565b92915050565b600073ffffffffffffffffffffffffffffffffffffffff82169050919050565b6000611f6982611f3e565b9050919050565b611f7981611f5e565b82525050565b6000602082019050611f946000830184611f70565b92915050565b7f4e487b7100000000000000000000000000000000000000000000000000000000600052602160045260246000fd5b60068110611fda57611fd9611f9a565b5b50565b6000819050611feb82611fc9565b919050565b6000611ffb82611fdd565b9050919050565b61200b81611ff0565b82525050565b60006020820190506120266000830184612002565b92915050565b600081519050919050565b600082825260208201905092915050565b60005b8381101561206657808201518184015260208101905061204b565b60008484015250505050565b600061207d8261202c565b6120878185612037565b9350612097818560208601612048565b6120a081611d8f565b840191505092915050565b6120b481611d22565b82525050565b600060408301600083015184820360008601526120d78282612072565b91505060208301516120ec60208601826120ab565b508091505092915050565b6000602082019050818103600083015261211181846120ba565b905092915050565b61212281611f5e565b811461212d57600080fd5b50565b60008135905061213f81612119565b92915050565b60006020828403121561215b5761215a611d18565b5b600061216984828501612130565b91505092915050565b60008115159050919050565b61218781612172565b82525050565b6060820160008201516121a3600085018261217e565b5060208201516121b6602085018261217e565b5060408201516121c960408501826120ab565b50505050565b60006060820190506121e4600083018461218d565b92915050565b600082825260208201905092915050565b7f596f75277265206e6f74206120766f7465720000000000000000000000000000600082015250565b60006122316012836121ea565b915061223c826121fb565b602082019050919050565b6000602082019050818103600083015261226081612224565b9050919050565b7f566f74696e672073657373696f6e20686176656e74207374617274656420796560008201527f7400000000000000000000000000000000000000000000000000000000000000602082015250565b60006122c36021836121ea565b91506122ce82612267565b604082019050919050565b600060208201905081810360008301526122f2816122b6565b9050919050565b7f596f75206861766520616c726561647920766f74656400000000000000000000600082015250565b600061232f6016836121ea565b915061233a826122f9565b602082019050919050565b6000602082019050818103600083015261235e81612322565b9050919050565b7f43657474652070726f706f736974696f6e206e27657869737465207061732021600082015250565b600061239b6020836121ea565b91506123a682612365565b602082019050919050565b600060208201905081810360008301526123ca8161238e565b9050919050565b600081905092915050565b50565b60006123ec6000836123d1565b91506123f7826123dc565b600082019050919050565b600061240d826123df565b9150819050919050565b7f4e487b7100000000000000000000000000000000000000000000000000000000600052603260045260246000fd5b7f4e487b7100000000000000000000000000000000000000000000000000000000600052602260045260246000fd5b6000600282049050600182168061248d57607f821691505b6020821081036124a05761249f612446565b5b50919050565b60008190508160005260206000209050919050565b600081546124c881612475565b6124d281866123d1565b945060018216600081146124ed576001811461250257612535565b60ff1983168652811515820286019350612535565b61250b856124a6565b60005b8381101561252d5781548189015260018201915060208101905061250e565b838801955050505b50505092915050565b600061254a82846124bb565b915081905092915050565b7f546869732070726f706f73616c20697320656d70747900000000000000000000600082015250565b600061258b6016836121ea565b915061259682612555565b602082019050919050565b600060208201905081810360008301526125ba8161257e565b9050919050565b7f4e487b7100000000000000000000000000000000000000000000000000000000600052601160045260246000fd5b60006125fb82611d22565b91507fffffffffffffffffffffffffffffffffffffffffffffffffffffffffffffffff820361262d5761262c6125c1565b5b600182019050919050565b600060408201905061264d6000830185611f70565b61265a6020830184611f14565b9392505050565b7f50726f706f73616c7320617265206e6f7420616c6c6f77656420796574000000600082015250565b6000612697601d836121ea565b91506126a282612661565b602082019050919050565b600060208201905081810360008301526126c68161268a565b9050919050565b60006126da6000836121ea565b91506126e5826123dc565b600082019050919050565b60006020820190508181036000830152612709816126cd565b9050919050565b600061271b8261202c565b61272581856121ea565b9350612735818560208601612048565b61273e81611d8f565b840191505092915050565b600060208201905081810360008301526127638184612710565b905092915050565b7f566f7573206e6520706f7576657a20706173206e65207269656e2070726f706f60008201527f7365720000000000000000000000000000000000000000000000000000000000602082015250565b60006127c76023836121ea565b91506127d28261276b565b604082019050919050565b600060208201905081810360008301526127f6816127ba565b9050919050565b60006020601f8301049050919050565b600082821b905092915050565b60006008830261284a7fffffffffffffffffffffffffffffffffffffffffffffffffffffffffffffffff8261280d565b612854868361280d565b95508019841693508086168417925050509392505050565b6000819050919050565b600061289161288c61288784611d22565b61286c565b611d22565b9050919050565b6000819050919050565b6128ab83612876565b6128bf6128b782612898565b84845461281a565b825550505050565b600090565b6128d46128c7565b6128df8184846128a2565b505050565b5b81811015612903576128f86000826128cc565b6001810190506128e5565b5050565b601f82111561294857612919816124a6565b612922846127fd565b81016020851015612931578190505b61294561293d856127fd565b8301826128e4565b50505b505050565b600082821c905092915050565b600061296b6000198460080261294d565b1980831691505092915050565b6000612984838361295a565b9150826002028217905092915050565b61299d8261202c565b67ffffffffffffffff8111156129b6576129b5611da0565b5b6129c08254612475565b6129cb828285612907565b600060209050601f8311600181146129fe57600084156129ec578287015190505b6129f68582612978565b865550612a5e565b601f198416612a0c866124a6565b60005b82811015612a3457848901518255600182019150602085019450602081019050612a0f565b86831015612a515784890151612a4d601f89168261295a565b8355505b6001600288020188555050505b505050505050565b6000612a7182611d22565b9150612a7c83611d22565b9250828203905081811115612a9457612a936125c1565b5b92915050565b7f43757272656e7420737461747573206973206e6f7420766f74696e672073657360008201527f73696f6e20656e64656400000000000000000000000000000000000000000000602082015250565b6000612af6602a836121ea565b9150612b0182612a9a565b604082019050919050565b60006020820190508181036000830152612b2581612ae9565b9050919050565b7f5265676973746572696e672070726f706f73616c732063616e7420626520737460008201527f6172746564206e6f770000000000000000000000000000000000000000000000602082015250565b6000612b886029836121ea565b9150612b9382612b2c565b604082019050919050565b60006020820190508181036000830152612bb781612b7b565b9050919050565b7f5265676973746572696e672070726f706f73616c7320686176656e742073746160008201527f7274656420796574000000000000000000000000000000000000000000000000602082015250565b6000612c1a6028836121ea565b9150612c2582612bbe565b604082019050919050565b60006020820190508181036000830152612c4981612c0d565b9050919050565b7f5265676973746572696e672070726f706f73616c73207068617365206973206e60008201527f6f742066696e6973686564000000000000000000000000000000000000000000602082015250565b6000612cac602b836121ea565b9150612cb782612c50565b604082019050919050565b60006020820190508181036000830152612cdb81612c9f565b9050919050565b7f4f776e61626c653a206e6577206f776e657220697320746865207a65726f206160008201527f6464726573730000000000000000000000000000000000000000000000000000602082015250565b6000612d3e6026836121ea565b9150612d4982612ce2565b604082019050919050565b60006020820190508181036000830152612d6d81612d31565b9050919050565b7f566f7573206e6520706f7576657a2070617320656e766f79657220636520636f60008201527f6e747261742073757220756e652061757472652061646472657373652071756560208201527f206c6120766f7472650000000000000000000000000000000000000000000000604082015250565b6000612df66049836121ea565b9150612e0182612d74565b606082019050919050565b60006020820190508181036000830152612e2581612de9565b9050919050565b7f566f7465727320726567697374726174696f6e206973206e6f74206f70656e2060008201527f7965740000000000000000000000000000000000000000000000000000000000602082015250565b6000612e886023836121ea565b9150612e9382612e2c565b604082019050919050565b60006020820190508181036000830152612eb781612e7b565b9050919050565b7f416c726561647920726567697374657265640000000000000000000000000000600082015250565b6000612ef46012836121ea565b9150612eff82612ebe565b602082019050919050565b60006020820190508181036000830152612f2381612ee7565b9050919050565b7f4f776e61626c653a2063616c6c6572206973206e6f7420746865206f776e6572600082015250565b6000612f606020836121ea565b9150612f6b82612f2a565b602082019050919050565b60006020820190508181036000830152612f8f81612f53565b905091905056fea26469706673582212207dc9cd20be962ce0d1f4ce6b18984d47e308162da7752b0192ae2277a8d575ed64736f6c63430008100033",
  "linkReferences": {},
  "deployedLinkReferences": {}
}