{
  "_format": "hh-sol-artifact-1",
  "contractName": "Vote",
  "sourceName": "contracts/Vote.sol",
  "abi": [
    {
      "anonymous": false,
      "inputs": [
        {
          "indexed": true,
          "internalType": "address",
          "name": "previousOwner",
          "type": "address"
        },
        {
          "indexed": true,
          "internalType": "address",
          "name": "newOwner",
          "type": "address"
        }
      ],
      "name": "OwnershipTransferred",
      "type": "event"
    },
    {
      "anonymous": false,
      "inputs": [
        {
          "indexed": false,
          "internalType": "uint256",
          "name": "proposalId",
          "type": "uint256"
        }
      ],
      "name": "ProposalRegistered",
      "type": "event"
    },
    {
      "anonymous": false,
      "inputs": [
        {
          "indexed": false,
          "internalType": "address",
          "name": "voter",
          "type": "address"
        },
        {
          "indexed": false,
          "internalType": "uint256",
          "name": "proposalId",
          "type": "uint256"
        }
      ],
      "name": "Voted",
      "type": "event"
    },
    {
      "anonymous": false,
      "inputs": [
        {
          "indexed": false,
          "internalType": "address",
          "name": "voterAddress",
          "type": "address"
        }
      ],
      "name": "VoterRegistered",
      "type": "event"
    },
    {
      "anonymous": false,
      "inputs": [
        {
          "indexed": false,
          "internalType": "enum Vote.WorkflowStatus",
          "name": "newStatus",
          "type": "uint8"
        }
      ],
      "name": "WorkflowStatusChange",
      "type": "event"
    },
    {
      "inputs": [
        {
          "internalType": "string",
          "name": "_desc",
          "type": "string"
        }
      ],
      "name": "addProposal",
      "outputs": [],
      "stateMutability": "nonpayable",
      "type": "function"
    },
    {
      "inputs": [
        {
          "internalType": "address",
          "name": "_addr",
          "type": "address"
        }
      ],
      "name": "addVoter",
      "outputs": [],
      "stateMutability": "nonpayable",
      "type": "function"
    },
    {
      "inputs": [],
      "name": "endProposalsRegistering",
      "outputs": [],
      "stateMutability": "nonpayable",
      "type": "function"
    },
    {
      "inputs": [],
      "name": "endVotingSession",
      "outputs": [],
      "stateMutability": "nonpayable",
      "type": "function"
    },
    {
      "inputs": [
        {
          "internalType": "uint256",
          "name": "_id",
          "type": "uint256"
        }
      ],
      "name": "getOneProposal",
      "outputs": [
        {
          "components": [
            {
              "internalType": "string",
              "name": "description",
              "type": "string"
            },
            {
              "internalType": "uint256",
              "name": "voteCount",
              "type": "uint256"
            }
          ],
          "internalType": "struct Vote.Proposal",
          "name": "",
          "type": "tuple"
        }
      ],
      "stateMutability": "view",
      "type": "function"
    },
    {
      "inputs": [
        {
          "internalType": "address",
          "name": "_addr",
          "type": "address"
        }
      ],
      "name": "getVoter",
      "outputs": [
        {
          "components": [
            {
              "internalType": "bool",
              "name": "isRegistered",
              "type": "bool"
            },
            {
              "internalType": "bool",
              "name": "hasVoted",
              "type": "bool"
            },
            {
              "internalType": "uint256",
              "name": "votedProposalId",
              "type": "uint256"
            }
          ],
          "internalType": "struct Vote.Voter",
          "name": "",
          "type": "tuple"
        }
      ],
      "stateMutability": "view",
      "type": "function"
    },
    {
      "inputs": [],
      "name": "owner",
      "outputs": [
        {
          "internalType": "address",
          "name": "",
          "type": "address"
        }
      ],
      "stateMutability": "view",
      "type": "function"
    },
    {
      "inputs": [],
      "name": "renounceOwnership",
      "outputs": [],
      "stateMutability": "nonpayable",
      "type": "function"
    },
    {
      "inputs": [
        {
          "internalType": "address[]",
          "name": "voter",
          "type": "address[]"
        }
      ],
      "name": "reset",
      "outputs": [],
      "stateMutability": "nonpayable",
      "type": "function"
    },
    {
      "inputs": [
        {
          "internalType": "uint256",
          "name": "_id",
          "type": "uint256"
        }
      ],
      "name": "setVote",
      "outputs": [],
      "stateMutability": "nonpayable",
      "type": "function"
    },
    {
      "inputs": [],
      "name": "startProposalsRegistering",
      "outputs": [],
      "stateMutability": "nonpayable",
      "type": "function"
    },
    {
      "inputs": [],
      "name": "startVotingSession",
      "outputs": [],
      "stateMutability": "nonpayable",
      "type": "function"
    },
    {
      "inputs": [],
      "name": "tallyVotes",
      "outputs": [],
      "stateMutability": "nonpayable",
      "type": "function"
    },
    {
      "inputs": [
        {
          "internalType": "address",
          "name": "newOwner",
          "type": "address"
        }
      ],
      "name": "transferOwnership",
      "outputs": [],
      "stateMutability": "nonpayable",
      "type": "function"
    },
    {
      "inputs": [
        {
          "internalType": "uint256",
          "name": "",
          "type": "uint256"
        }
      ],
      "name": "winningProposalID",
      "outputs": [
        {
          "internalType": "uint256",
          "name": "",
          "type": "uint256"
        }
      ],
      "stateMutability": "view",
      "type": "function"
    },
    {
      "inputs": [],
      "name": "workflowStatus",
      "outputs": [
        {
          "internalType": "enum Vote.WorkflowStatus",
          "name": "",
          "type": "uint8"
        }
      ],
      "stateMutability": "view",
      "type": "function"
    }
  ],
  "bytecode": "0x60806040523480156200001157600080fd5b5062000032620000266200003860201b60201c565b6200004060201b60201c565b62000104565b600033905090565b60008060009054906101000a900473ffffffffffffffffffffffffffffffffffffffff169050816000806101000a81548173ffffffffffffffffffffffffffffffffffffffff021916908373ffffffffffffffffffffffffffffffffffffffff1602179055508173ffffffffffffffffffffffffffffffffffffffff168173ffffffffffffffffffffffffffffffffffffffff167f8be0079c531659141344cd1fd0a4f28419497f9722a3daafe3b4186f6b6457e060405160405180910390a35050565b612cb480620001146000396000f3fe608060405234801561001057600080fd5b50600436106101005760003560e01c8063a7bfab1611610097578063d4f50f9811610066578063d4f50f9814610227578063ee74c67814610257578063f2fde38b14610261578063f4ab9adf1461027d57610100565b8063a7bfab16146101ed578063b916de59146101f7578063c7038a4e14610213578063c88af42f1461021d57610100565b80638da5cb5b116100d35780638da5cb5b146101515780639921bca21461016f578063a1edffa21461019f578063a2788cce146101bd57610100565b8063230796ae146101055780632fdae3c514610121578063378a21781461013d578063715018a614610147575b600080fd5b61011f600480360381019061011a91906119e7565b610299565b005b61013b60048036038101906101369190611b5a565b61063e565b005b61014561087d565b005b61014f610a7f565b005b610159610a93565b6040516101669190611be4565b60405180910390f35b610189600480360381019061018491906119e7565b610abc565b6040516101969190611c0e565b60405180910390f35b6101a7610ae0565b6040516101b49190611ca0565b60405180910390f35b6101d760048036038101906101d291906119e7565b610af3565b6040516101e49190611d86565b60405180910390f35b6101f5610c5a565b005b610211600480360381019061020c9190611e9c565b610d3d565b005b61021b61114f565b005b610225611232565b005b610241600480360381019061023c9190611ee5565b611314565b60405161024e9190611f6f565b60405180910390f35b61025f61143c565b005b61027b60048036038101906102769190611ee5565b61151f565b005b61029760048036038101906102929190611ee5565b61159a565b005b600460003373ffffffffffffffffffffffffffffffffffffffff1673ffffffffffffffffffffffffffffffffffffffff16815260200190815260200160002060000160009054906101000a900460ff16610328576040517f08c379a000000000000000000000000000000000000000000000000000000000815260040161031f90611fe7565b60405180910390fd5b6003600581111561033c5761033b611c29565b5b600260009054906101000a900460ff16600581111561035e5761035d611c29565b5b1461039e576040517f08c379a000000000000000000000000000000000000000000000000000000000815260040161039590612079565b60405180910390fd5b600460003373ffffffffffffffffffffffffffffffffffffffff1673ffffffffffffffffffffffffffffffffffffffff16815260200190815260200160002060000160019054906101000a900460ff161561042e576040517f08c379a0000000000000000000000000000000000000000000000000000000008152600401610425906120e5565b60405180910390fd5b6003805490508110610475576040517f08c379a000000000000000000000000000000000000000000000000000000000815260040161046c90612151565b60405180910390fd5b604051602001610484906121a2565b60405160208183030381529060405280519060200120600382815481106104ae576104ad6121b7565b5b90600052602060002090600202016000016040516020016104cf91906122de565b6040516020818303038152906040528051906020012003610525576040517f08c379a000000000000000000000000000000000000000000000000000000000815260040161051c90612341565b60405180910390fd5b80600460003373ffffffffffffffffffffffffffffffffffffffff1673ffffffffffffffffffffffffffffffffffffffff168152602001908152602001600020600101819055506001600460003373ffffffffffffffffffffffffffffffffffffffff1673ffffffffffffffffffffffffffffffffffffffff16815260200190815260200160002060000160016101000a81548160ff021916908315150217905550600381815481106105db576105da6121b7565b5b906000526020600020906002020160010160008154809291906105fd90612390565b91905055507f4d99b957a2bc29a30ebd96a7be8e68fe50a3c701db28a91436490b7d53870ca433826040516106339291906123d8565b60405180910390a150565b600460003373ffffffffffffffffffffffffffffffffffffffff1673ffffffffffffffffffffffffffffffffffffffff16815260200190815260200160002060000160009054906101000a900460ff166106cd576040517f08c379a00000000000000000000000000000000000000000000000000000000081526004016106c490611fe7565b60405180910390fd5b600160058111156106e1576106e0611c29565b5b600260009054906101000a900460ff16600581111561070357610702611c29565b5b14610743576040517f08c379a000000000000000000000000000000000000000000000000000000000815260040161073a9061244d565b60405180910390fd5b60405160200161075290612490565b604051602081830303815290604052805190602001208160405160200161077991906124e9565b60405160208183030381529060405280519060200120036107cf576040517f08c379a00000000000000000000000000000000000000000000000000000000081526004016107c69061257d565b60405180910390fd5b600360405180604001604052808381526020016000815250908060018154018082558091505060019003906000526020600020906002020160009091909190915060008201518160000190816108259190612734565b506020820151816001015550507f92e393e9b54e2f801d3ea4beb0c5e71a21cc34a5d34b77d0fb8a3aa1650dc18f60016003805490506108659190612806565b6040516108729190611c0e565b60405180910390a150565b610885611743565b6004600581111561089957610898611c29565b5b600260009054906101000a900460ff1660058111156108bb576108ba611c29565b5b146108fb576040517f08c379a00000000000000000000000000000000000000000000000000000000081526004016108f2906128ac565b60405180910390fd5b600080600090505b6003805490508110156109795760038281548110610924576109236121b7565b5b9060005260206000209060020201600101546003828154811061094a576109496121b7565b5b9060005260206000209060020201600101541115610966578091505b808061097190612390565b915050610903565b5060005b600380549050811015610a18576003828154811061099e5761099d6121b7565b5b906000526020600020906002020160010154600382815481106109c4576109c36121b7565b5b90600052602060002090600202016001015403610a055760018190806001815401808255809150506001900390600052602060002001600090919091909150555b8080610a1090612390565b91505061097d565b506005600260006101000a81548160ff02191690836005811115610a3f57610a3e611c29565b5b02179055507fd0333fc5d15226171b77afcfaa378b55d18b661b99c9c5589add6eb03bbf86cd6005604051610a749190611ca0565b60405180910390a150565b610a87611743565b610a9160006117c1565b565b60008060009054906101000a900473ffffffffffffffffffffffffffffffffffffffff16905090565b60018181548110610acc57600080fd5b906000526020600020016000915090505481565b600260009054906101000a900460ff1681565b610afb61188d565b600460003373ffffffffffffffffffffffffffffffffffffffff1673ffffffffffffffffffffffffffffffffffffffff16815260200190815260200160002060000160009054906101000a900460ff16610b8a576040517f08c379a0000000000000000000000000000000000000000000000000000000008152600401610b8190611fe7565b60405180910390fd5b60038281548110610b9e57610b9d6121b7565b5b9060005260206000209060020201604051806040016040529081600082018054610bc790612215565b80601f0160208091040260200160405190810160405280929190818152602001828054610bf390612215565b8015610c405780601f10610c1557610100808354040283529160200191610c40565b820191906000526020600020905b815481529060010190602001808311610c2357829003601f168201915b505050505081526020016001820154815250509050919050565b610c62611743565b60036005811115610c7657610c75611c29565b5b600260009054906101000a900460ff166005811115610c9857610c97611c29565b5b14610cd8576040517f08c379a0000000000000000000000000000000000000000000000000000000008152600401610ccf90612079565b60405180910390fd5b6004600260006101000a81548160ff02191690836005811115610cfe57610cfd611c29565b5b02179055507fd0333fc5d15226171b77afcfaa378b55d18b661b99c9c5589add6eb03bbf86cd6004604051610d339190611ca0565b60405180910390a1565b610d45611743565b6001808054905003610ebd5760005b8151811015610e38576040518060600160405280600015158152602001600015158152602001600081525060046000848481518110610d9657610d956121b7565b5b602002602001015173ffffffffffffffffffffffffffffffffffffffff1673ffffffffffffffffffffffffffffffffffffffff16815260200190815260200160002060008201518160000160006101000a81548160ff02191690831515021790555060208201518160000160016101000a81548160ff021916908315150217905550604082015181600101559050508080610e3090612390565b915050610d54565b5060016000610e4791906118a7565b60036000610e5591906118c8565b6000600260006101000a81548160ff02191690836005811115610e7b57610e7a611c29565b5b02179055507fd0333fc5d15226171b77afcfaa378b55d18b661b99c9c5589add6eb03bbf86cd6000604051610eb09190611ca0565b60405180910390a161114c565b60005b8151811015610fa4576040518060600160405280600115158152602001600015158152602001600081525060046000848481518110610f0257610f016121b7565b5b602002602001015173ffffffffffffffffffffffffffffffffffffffff1673ffffffffffffffffffffffffffffffffffffffff16815260200190815260200160002060008201518160000160006101000a81548160ff02191690831515021790555060208201518160000160016101000a81548160ff021916908315150217905550604082015181600101559050508080610f9c90612390565b915050610ec0565b50600060036001600081548110610fbe57610fbd6121b7565b5b906000526020600020015481548110610fda57610fd96121b7565b5b906000526020600020906002020160010154905060005b6003805490508110156110d95760038181548110611012576110116121b7565b5b90600052602060002090600202016001015482111561109a576040518060400160405280604051806020016040528060008152508152602001600081525060038281548110611064576110636121b7565b5b906000526020600020906002020160008201518160000190816110879190612734565b50602082015181600101559050506110c6565b6000600382815481106110b0576110af6121b7565b5b9060005260206000209060020201600101819055505b80806110d190612390565b915050610ff1565b50600160006110e891906118a7565b60028060006101000a81548160ff0219169083600581111561110d5761110c611c29565b5b02179055507fd0333fc5d15226171b77afcfaa378b55d18b661b99c9c5589add6eb03bbf86cd60026040516111429190611ca0565b60405180910390a1505b50565b611157611743565b6000600581111561116b5761116a611c29565b5b600260009054906101000a900460ff16600581111561118d5761118c611c29565b5b146111cd576040517f08c379a00000000000000000000000000000000000000000000000000000000081526004016111c49061293e565b60405180910390fd5b6001600260006101000a81548160ff021916908360058111156111f3576111f2611c29565b5b02179055507fd0333fc5d15226171b77afcfaa378b55d18b661b99c9c5589add6eb03bbf86cd60016040516112289190611ca0565b60405180910390a1565b61123a611743565b6001600581111561124e5761124d611c29565b5b600260009054906101000a900460ff1660058111156112705761126f611c29565b5b146112b0576040517f08c379a00000000000000000000000000000000000000000000000000000000081526004016112a7906129d0565b60405180910390fd5b60028060006101000a81548160ff021916908360058111156112d5576112d4611c29565b5b02179055507fd0333fc5d15226171b77afcfaa378b55d18b661b99c9c5589add6eb03bbf86cd600260405161130a9190611ca0565b60405180910390a1565b61131c6118ec565b600460003373ffffffffffffffffffffffffffffffffffffffff1673ffffffffffffffffffffffffffffffffffffffff16815260200190815260200160002060000160009054906101000a900460ff166113ab576040517f08c379a00000000000000000000000000000000000000000000000000000000081526004016113a290611fe7565b60405180910390fd5b600460008373ffffffffffffffffffffffffffffffffffffffff1673ffffffffffffffffffffffffffffffffffffffff1681526020019081526020016000206040518060600160405290816000820160009054906101000a900460ff161515151581526020016000820160019054906101000a900460ff161515151581526020016001820154815250509050919050565b611444611743565b6002600581111561145857611457611c29565b5b600260009054906101000a900460ff16600581111561147a57611479611c29565b5b146114ba576040517f08c379a00000000000000000000000000000000000000000000000000000000081526004016114b190612a62565b60405180910390fd5b6003600260006101000a81548160ff021916908360058111156114e0576114df611c29565b5b02179055507fd0333fc5d15226171b77afcfaa378b55d18b661b99c9c5589add6eb03bbf86cd60036040516115159190611ca0565b60405180910390a1565b600073ffffffffffffffffffffffffffffffffffffffff168173ffffffffffffffffffffffffffffffffffffffff160361158e576040517f08c379a000000000000000000000000000000000000000000000000000000000815260040161158590612af4565b60405180910390fd5b611597816117c1565b50565b6115a2611743565b600060058111156115b6576115b5611c29565b5b600260009054906101000a900460ff1660058111156115d8576115d7611c29565b5b14611618576040517f08c379a000000000000000000000000000000000000000000000000000000000815260040161160f90612b86565b60405180910390fd5b60011515600460008373ffffffffffffffffffffffffffffffffffffffff1673ffffffffffffffffffffffffffffffffffffffff16815260200190815260200160002060000160009054906101000a900460ff161515036116ae576040517f08c379a00000000000000000000000000000000000000000000000000000000081526004016116a590612bf2565b60405180910390fd5b6001600460008373ffffffffffffffffffffffffffffffffffffffff1673ffffffffffffffffffffffffffffffffffffffff16815260200190815260200160002060000160006101000a81548160ff0219169083151502179055507fb6be2187d059cc2a55fe29e0e503b566e1e0f8c8780096e185429350acffd3dd816040516117389190611be4565b60405180910390a150565b61174b611885565b73ffffffffffffffffffffffffffffffffffffffff16611769610a93565b73ffffffffffffffffffffffffffffffffffffffff16146117bf576040517f08c379a00000000000000000000000000000000000000000000000000000000081526004016117b690612c5e565b60405180910390fd5b565b60008060009054906101000a900473ffffffffffffffffffffffffffffffffffffffff169050816000806101000a81548173ffffffffffffffffffffffffffffffffffffffff021916908373ffffffffffffffffffffffffffffffffffffffff1602179055508173ffffffffffffffffffffffffffffffffffffffff168173ffffffffffffffffffffffffffffffffffffffff167f8be0079c531659141344cd1fd0a4f28419497f9722a3daafe3b4186f6b6457e060405160405180910390a35050565b600033905090565b604051806040016040528060608152602001600081525090565b50805460008255906000526020600020908101906118c59190611911565b50565b50805460008255600202906000526020600020908101906118e9919061192e565b50565b6040518060600160405280600015158152602001600015158152602001600081525090565b5b8082111561192a576000816000905550600101611912565b5090565b5b808211156119595760008082016000611948919061195d565b60018201600090555060020161192f565b5090565b50805461196990612215565b6000825580601f1061197b575061199a565b601f0160209004906000526020600020908101906119999190611911565b5b50565b6000604051905090565b600080fd5b600080fd5b6000819050919050565b6119c4816119b1565b81146119cf57600080fd5b50565b6000813590506119e1816119bb565b92915050565b6000602082840312156119fd576119fc6119a7565b5b6000611a0b848285016119d2565b91505092915050565b600080fd5b600080fd5b6000601f19601f8301169050919050565b7f4e487b7100000000000000000000000000000000000000000000000000000000600052604160045260246000fd5b611a6782611a1e565b810181811067ffffffffffffffff82111715611a8657611a85611a2f565b5b80604052505050565b6000611a9961199d565b9050611aa58282611a5e565b919050565b600067ffffffffffffffff821115611ac557611ac4611a2f565b5b611ace82611a1e565b9050602081019050919050565b82818337600083830152505050565b6000611afd611af884611aaa565b611a8f565b905082815260208101848484011115611b1957611b18611a19565b5b611b24848285611adb565b509392505050565b600082601f830112611b4157611b40611a14565b5b8135611b51848260208601611aea565b91505092915050565b600060208284031215611b7057611b6f6119a7565b5b600082013567ffffffffffffffff811115611b8e57611b8d6119ac565b5b611b9a84828501611b2c565b91505092915050565b600073ffffffffffffffffffffffffffffffffffffffff82169050919050565b6000611bce82611ba3565b9050919050565b611bde81611bc3565b82525050565b6000602082019050611bf96000830184611bd5565b92915050565b611c08816119b1565b82525050565b6000602082019050611c236000830184611bff565b92915050565b7f4e487b7100000000000000000000000000000000000000000000000000000000600052602160045260246000fd5b60068110611c6957611c68611c29565b5b50565b6000819050611c7a82611c58565b919050565b6000611c8a82611c6c565b9050919050565b611c9a81611c7f565b82525050565b6000602082019050611cb56000830184611c91565b92915050565b600081519050919050565b600082825260208201905092915050565b60005b83811015611cf5578082015181840152602081019050611cda565b60008484015250505050565b6000611d0c82611cbb565b611d168185611cc6565b9350611d26818560208601611cd7565b611d2f81611a1e565b840191505092915050565b611d43816119b1565b82525050565b60006040830160008301518482036000860152611d668282611d01565b9150506020830151611d7b6020860182611d3a565b508091505092915050565b60006020820190508181036000830152611da08184611d49565b905092915050565b600067ffffffffffffffff821115611dc357611dc2611a2f565b5b602082029050602081019050919050565b600080fd5b611de281611bc3565b8114611ded57600080fd5b50565b600081359050611dff81611dd9565b92915050565b6000611e18611e1384611da8565b611a8f565b90508083825260208201905060208402830185811115611e3b57611e3a611dd4565b5b835b81811015611e645780611e508882611df0565b845260208401935050602081019050611e3d565b5050509392505050565b600082601f830112611e8357611e82611a14565b5b8135611e93848260208601611e05565b91505092915050565b600060208284031215611eb257611eb16119a7565b5b600082013567ffffffffffffffff811115611ed057611ecf6119ac565b5b611edc84828501611e6e565b91505092915050565b600060208284031215611efb57611efa6119a7565b5b6000611f0984828501611df0565b91505092915050565b60008115159050919050565b611f2781611f12565b82525050565b606082016000820151611f436000850182611f1e565b506020820151611f566020850182611f1e565b506040820151611f696040850182611d3a565b50505050565b6000606082019050611f846000830184611f2d565b92915050565b600082825260208201905092915050565b7f596f75277265206e6f74206120766f7465720000000000000000000000000000600082015250565b6000611fd1601283611f8a565b9150611fdc82611f9b565b602082019050919050565b6000602082019050818103600083015261200081611fc4565b9050919050565b7f566f74696e672073657373696f6e20686176656e74207374617274656420796560008201527f7400000000000000000000000000000000000000000000000000000000000000602082015250565b6000612063602183611f8a565b915061206e82612007565b604082019050919050565b6000602082019050818103600083015261209281612056565b9050919050565b7f596f75206861766520616c726561647920766f74656400000000000000000000600082015250565b60006120cf601683611f8a565b91506120da82612099565b602082019050919050565b600060208201905081810360008301526120fe816120c2565b9050919050565b7f43657474652070726f706f736974696f6e206e27657869737465207061732021600082015250565b600061213b602083611f8a565b915061214682612105565b602082019050919050565b6000602082019050818103600083015261216a8161212e565b9050919050565b600081905092915050565b50565b600061218c600083612171565b91506121978261217c565b600082019050919050565b60006121ad8261217f565b9150819050919050565b7f4e487b7100000000000000000000000000000000000000000000000000000000600052603260045260246000fd5b7f4e487b7100000000000000000000000000000000000000000000000000000000600052602260045260246000fd5b6000600282049050600182168061222d57607f821691505b6020821081036122405761223f6121e6565b5b50919050565b60008190508160005260206000209050919050565b6000815461226881612215565b6122728186612171565b9450600182166000811461228d57600181146122a2576122d5565b60ff19831686528115158202860193506122d5565b6122ab85612246565b60005b838110156122cd578154818901526001820191506020810190506122ae565b838801955050505b50505092915050565b60006122ea828461225b565b915081905092915050565b7f546869732070726f706f73616c20697320656d7074792e000000000000000000600082015250565b600061232b601783611f8a565b9150612336826122f5565b602082019050919050565b6000602082019050818103600083015261235a8161231e565b9050919050565b7f4e487b7100000000000000000000000000000000000000000000000000000000600052601160045260246000fd5b600061239b826119b1565b91507fffffffffffffffffffffffffffffffffffffffffffffffffffffffffffffffff82036123cd576123cc612361565b5b600182019050919050565b60006040820190506123ed6000830185611bd5565b6123fa6020830184611bff565b9392505050565b7f50726f706f73616c7320617265206e6f7420616c6c6f77656420796574000000600082015250565b6000612437601d83611f8a565b915061244282612401565b602082019050919050565b600060208201905081810360008301526124668161242a565b9050919050565b600061247a600083611f8a565b91506124858261217c565b600082019050919050565b600060208201905081810360008301526124a98161246d565b9050919050565b60006124bb82611cbb565b6124c58185611f8a565b93506124d5818560208601611cd7565b6124de81611a1e565b840191505092915050565b6000602082019050818103600083015261250381846124b0565b905092915050565b7f566f7573206e6520706f7576657a20706173206e65207269656e2070726f706f60008201527f7365720000000000000000000000000000000000000000000000000000000000602082015250565b6000612567602383611f8a565b91506125728261250b565b604082019050919050565b600060208201905081810360008301526125968161255a565b9050919050565b60006020601f8301049050919050565b600082821b905092915050565b6000600883026125ea7fffffffffffffffffffffffffffffffffffffffffffffffffffffffffffffffff826125ad565b6125f486836125ad565b95508019841693508086168417925050509392505050565b6000819050919050565b600061263161262c612627846119b1565b61260c565b6119b1565b9050919050565b6000819050919050565b61264b83612616565b61265f61265782612638565b8484546125ba565b825550505050565b600090565b612674612667565b61267f818484612642565b505050565b5b818110156126a35761269860008261266c565b600181019050612685565b5050565b601f8211156126e8576126b981612246565b6126c28461259d565b810160208510156126d1578190505b6126e56126dd8561259d565b830182612684565b50505b505050565b600082821c905092915050565b600061270b600019846008026126ed565b1980831691505092915050565b600061272483836126fa565b9150826002028217905092915050565b61273d82611cbb565b67ffffffffffffffff81111561275657612755611a2f565b5b6127608254612215565b61276b8282856126a7565b600060209050601f83116001811461279e576000841561278c578287015190505b6127968582612718565b8655506127fe565b601f1984166127ac86612246565b60005b828110156127d4578489015182556001820191506020850194506020810190506127af565b868310156127f157848901516127ed601f8916826126fa565b8355505b6001600288020188555050505b505050505050565b6000612811826119b1565b915061281c836119b1565b925082820390508181111561283457612833612361565b5b92915050565b7f43757272656e7420737461747573206973206e6f7420766f74696e672073657360008201527f73696f6e20656e64656400000000000000000000000000000000000000000000602082015250565b6000612896602a83611f8a565b91506128a18261283a565b604082019050919050565b600060208201905081810360008301526128c581612889565b9050919050565b7f5265676973746572696e672070726f706f73616c732063616e7420626520737460008201527f6172746564206e6f770000000000000000000000000000000000000000000000602082015250565b6000612928602983611f8a565b9150612933826128cc565b604082019050919050565b600060208201905081810360008301526129578161291b565b9050919050565b7f5265676973746572696e672070726f706f73616c7320686176656e742073746160008201527f7274656420796574000000000000000000000000000000000000000000000000602082015250565b60006129ba602883611f8a565b91506129c58261295e565b604082019050919050565b600060208201905081810360008301526129e9816129ad565b9050919050565b7f5265676973746572696e672070726f706f73616c73207068617365206973206e60008201527f6f742066696e6973686564000000000000000000000000000000000000000000602082015250565b6000612a4c602b83611f8a565b9150612a57826129f0565b604082019050919050565b60006020820190508181036000830152612a7b81612a3f565b9050919050565b7f4f776e61626c653a206e6577206f776e657220697320746865207a65726f206160008201527f6464726573730000000000000000000000000000000000000000000000000000602082015250565b6000612ade602683611f8a565b9150612ae982612a82565b604082019050919050565b60006020820190508181036000830152612b0d81612ad1565b9050919050565b7f566f7465727320726567697374726174696f6e206973206e6f74206f70656e2060008201527f7965740000000000000000000000000000000000000000000000000000000000602082015250565b6000612b70602383611f8a565b9150612b7b82612b14565b604082019050919050565b60006020820190508181036000830152612b9f81612b63565b9050919050565b7f416c726561647920726567697374657265640000000000000000000000000000600082015250565b6000612bdc601283611f8a565b9150612be782612ba6565b602082019050919050565b60006020820190508181036000830152612c0b81612bcf565b9050919050565b7f4f776e61626c653a2063616c6c6572206973206e6f7420746865206f776e6572600082015250565b6000612c48602083611f8a565b9150612c5382612c12565b602082019050919050565b60006020820190508181036000830152612c7781612c3b565b905091905056fea26469706673582212205ac3535ffff737777235683b03ab1c8370bbfa85e8f7b1f07111c8e2ef59c62864736f6c63430008100033",
  "linkReferences": {},
  "deployedLinkReferences": {}
}