{
  "_format": "hh-sol-artifact-1",
  "contractName": "Vote",
  "sourceName": "contracts/Vote.sol",
  "abi": [
    {
      "inputs": [],
      "stateMutability": "nonpayable",
      "type": "constructor"
    },
    {
      "anonymous": false,
      "inputs": [
        {
          "indexed": false,
          "internalType": "uint256[]",
          "name": "winningProposal",
          "type": "uint256[]"
        }
      ],
      "name": "GetWinning",
      "type": "event"
    },
    {
      "anonymous": false,
      "inputs": [
        {
          "indexed": true,
          "internalType": "address",
          "name": "previousOwner",
          "type": "address"
        },
        {
          "indexed": true,
          "internalType": "address",
          "name": "newOwner",
          "type": "address"
        }
      ],
      "name": "OwnershipTransferred",
      "type": "event"
    },
    {
      "anonymous": false,
      "inputs": [
        {
          "indexed": false,
          "internalType": "uint256",
          "name": "proposalId",
          "type": "uint256"
        }
      ],
      "name": "ProposalRegistered",
      "type": "event"
    },
    {
      "anonymous": false,
      "inputs": [
        {
          "indexed": false,
          "internalType": "address",
          "name": "voter",
          "type": "address"
        },
        {
          "indexed": false,
          "internalType": "uint256",
          "name": "proposalId",
          "type": "uint256"
        }
      ],
      "name": "Voted",
      "type": "event"
    },
    {
      "anonymous": false,
      "inputs": [
        {
          "indexed": false,
          "internalType": "address",
          "name": "voterAddress",
          "type": "address"
        }
      ],
      "name": "VoterRegistered",
      "type": "event"
    },
    {
      "anonymous": false,
      "inputs": [
        {
          "indexed": false,
          "internalType": "enum Vote.WorkflowStatus",
          "name": "newStatus",
          "type": "uint8"
        }
      ],
      "name": "WorkflowStatusChange",
      "type": "event"
    },
    {
      "inputs": [
        {
          "internalType": "string",
          "name": "_desc",
          "type": "string"
        }
      ],
      "name": "addProposal",
      "outputs": [],
      "stateMutability": "nonpayable",
      "type": "function"
    },
    {
      "inputs": [
        {
          "internalType": "address",
          "name": "_addr",
          "type": "address"
        }
      ],
      "name": "addVoter",
      "outputs": [],
      "stateMutability": "nonpayable",
      "type": "function"
    },
    {
      "inputs": [],
      "name": "blockEvent",
      "outputs": [
        {
          "internalType": "uint256",
          "name": "",
          "type": "uint256"
        }
      ],
      "stateMutability": "view",
      "type": "function"
    },
    {
      "inputs": [],
      "name": "endProposalsRegistering",
      "outputs": [],
      "stateMutability": "nonpayable",
      "type": "function"
    },
    {
      "inputs": [],
      "name": "endVotingSession",
      "outputs": [],
      "stateMutability": "nonpayable",
      "type": "function"
    },
    {
      "inputs": [
        {
          "internalType": "uint256",
          "name": "_id",
          "type": "uint256"
        }
      ],
      "name": "getOneProposal",
      "outputs": [
        {
          "components": [
            {
              "internalType": "string",
              "name": "description",
              "type": "string"
            },
            {
              "internalType": "uint256",
              "name": "voteCount",
              "type": "uint256"
            }
          ],
          "internalType": "struct Vote.Proposal",
          "name": "",
          "type": "tuple"
        }
      ],
      "stateMutability": "view",
      "type": "function"
    },
    {
      "inputs": [],
      "name": "getResult",
      "outputs": [
        {
          "internalType": "uint256[]",
          "name": "",
          "type": "uint256[]"
        }
      ],
      "stateMutability": "view",
      "type": "function"
    },
    {
      "inputs": [
        {
          "internalType": "address",
          "name": "_addr",
          "type": "address"
        }
      ],
      "name": "getVoter",
      "outputs": [
        {
          "components": [
            {
              "internalType": "bool",
              "name": "isRegistered",
              "type": "bool"
            },
            {
              "internalType": "bool",
              "name": "hasVoted",
              "type": "bool"
            },
            {
              "internalType": "uint256",
              "name": "votedProposalId",
              "type": "uint256"
            }
          ],
          "internalType": "struct Vote.Voter",
          "name": "",
          "type": "tuple"
        }
      ],
      "stateMutability": "view",
      "type": "function"
    },
    {
      "inputs": [],
      "name": "owner",
      "outputs": [
        {
          "internalType": "address",
          "name": "",
          "type": "address"
        }
      ],
      "stateMutability": "view",
      "type": "function"
    },
    {
      "inputs": [],
      "name": "renounceOwnership",
      "outputs": [],
      "stateMutability": "nonpayable",
      "type": "function"
    },
    {
      "inputs": [],
      "name": "reset",
      "outputs": [],
      "stateMutability": "nonpayable",
      "type": "function"
    },
    {
      "inputs": [
        {
          "internalType": "uint256",
          "name": "_id",
          "type": "uint256"
        }
      ],
      "name": "setVote",
      "outputs": [],
      "stateMutability": "nonpayable",
      "type": "function"
    },
    {
      "inputs": [],
      "name": "startProposalsRegistering",
      "outputs": [],
      "stateMutability": "nonpayable",
      "type": "function"
    },
    {
      "inputs": [],
      "name": "startVotingSession",
      "outputs": [],
      "stateMutability": "nonpayable",
      "type": "function"
    },
    {
      "inputs": [],
      "name": "tallyVotes",
      "outputs": [],
      "stateMutability": "nonpayable",
      "type": "function"
    },
    {
      "inputs": [
        {
          "internalType": "address",
          "name": "newOwner",
          "type": "address"
        }
      ],
      "name": "transferOwnership",
      "outputs": [],
      "stateMutability": "nonpayable",
      "type": "function"
    },
    {
      "inputs": [],
      "name": "workflowStatus",
      "outputs": [
        {
          "internalType": "enum Vote.WorkflowStatus",
          "name": "",
          "type": "uint8"
        }
      ],
      "stateMutability": "view",
      "type": "function"
    }
  ],
  "bytecode": "0x60806040523480156200001157600080fd5b5062000032620000266200003f60201b60201c565b6200004760201b60201c565b436001819055506200010b565b600033905090565b60008060009054906101000a900473ffffffffffffffffffffffffffffffffffffffff169050816000806101000a81548173ffffffffffffffffffffffffffffffffffffffff021916908373ffffffffffffffffffffffffffffffffffffffff1602179055508173ffffffffffffffffffffffffffffffffffffffff168173ffffffffffffffffffffffffffffffffffffffff167f8be0079c531659141344cd1fd0a4f28419497f9722a3daafe3b4186f6b6457e060405160405180910390a35050565b61311e806200011b6000396000f3fe608060405234801561001057600080fd5b506004361061010b5760003560e01c8063a7bfab16116100a2578063d826f88f11610071578063d826f88f14610234578063de2927891461023e578063ee74c6781461025c578063f2fde38b14610266578063f4ab9adf146102825761010b565b8063a7bfab16146101e6578063c7038a4e146101f0578063c88af42f146101fa578063d4f50f98146102045761010b565b80637329f0a8116100de5780637329f0a81461015c5780638da5cb5b1461017a578063a1edffa214610198578063a2788cce146101b65761010b565b8063230796ae146101105780632fdae3c51461012c578063378a217814610148578063715018a614610152575b600080fd5b61012a60048036038101906101259190611dd9565b61029e565b005b61014660048036038101906101419190611f4c565b610680565b005b6101506108fc565b005b61015a610afe565b005b610164610b12565b6040516101719190611fa4565b60405180910390f35b610182610b18565b60405161018f9190612000565b60405180910390f35b6101a0610b41565b6040516101ad9190612092565b60405180910390f35b6101d060048036038101906101cb9190611dd9565b610b54565b6040516101dd9190612178565b60405180910390f35b6101ee610cf8565b005b6101f8610ddb565b005b610202610ebe565b005b61021e600480360381019061021991906121c6565b610fa1565b60405161022b9190612250565b60405180910390f35b61023c611106565b005b610246611570565b604051610253919061231a565b60405180910390f35b6102646115c8565b005b610280600480360381019061027b91906121c6565b6116aa565b005b61029c600480360381019061029791906121c6565b611929565b005b600660003373ffffffffffffffffffffffffffffffffffffffff1673ffffffffffffffffffffffffffffffffffffffff16815260200190815260200160002060000160009054906101000a900460ff168061032b57506102fc610b18565b73ffffffffffffffffffffffffffffffffffffffff163373ffffffffffffffffffffffffffffffffffffffff16145b61036a576040517f08c379a000000000000000000000000000000000000000000000000000000000815260040161036190612399565b60405180910390fd5b6003600581111561037e5761037d61201b565b5b600360009054906101000a900460ff1660058111156103a05761039f61201b565b5b146103e0576040517f08c379a00000000000000000000000000000000000000000000000000000000081526004016103d79061242b565b60405180910390fd5b600660003373ffffffffffffffffffffffffffffffffffffffff1673ffffffffffffffffffffffffffffffffffffffff16815260200190815260200160002060000160019054906101000a900460ff1615610470576040517f08c379a000000000000000000000000000000000000000000000000000000000815260040161046790612497565b60405180910390fd5b60048054905081106104b7576040517f08c379a00000000000000000000000000000000000000000000000000000000081526004016104ae90612503565b60405180910390fd5b6040516020016104c690612554565b60405160208183030381529060405280519060200120600482815481106104f0576104ef612569565b5b90600052602060002090600202016000016040516020016105119190612690565b6040516020818303038152906040528051906020012003610567576040517f08c379a000000000000000000000000000000000000000000000000000000000815260040161055e906126f3565b60405180910390fd5b80600660003373ffffffffffffffffffffffffffffffffffffffff1673ffffffffffffffffffffffffffffffffffffffff168152602001908152602001600020600101819055506001600660003373ffffffffffffffffffffffffffffffffffffffff1673ffffffffffffffffffffffffffffffffffffffff16815260200190815260200160002060000160016101000a81548160ff0219169083151502179055506004818154811061061d5761061c612569565b5b9060005260206000209060020201600101600081548092919061063f90612742565b91905055507f4d99b957a2bc29a30ebd96a7be8e68fe50a3c701db28a91436490b7d53870ca4338260405161067592919061278a565b60405180910390a150565b600660003373ffffffffffffffffffffffffffffffffffffffff1673ffffffffffffffffffffffffffffffffffffffff16815260200190815260200160002060000160009054906101000a900460ff168061070d57506106de610b18565b73ffffffffffffffffffffffffffffffffffffffff163373ffffffffffffffffffffffffffffffffffffffff16145b61074c576040517f08c379a000000000000000000000000000000000000000000000000000000000815260040161074390612399565b60405180910390fd5b600160058111156107605761075f61201b565b5b600360009054906101000a900460ff1660058111156107825761078161201b565b5b146107c2576040517f08c379a00000000000000000000000000000000000000000000000000000000081526004016107b9906127ff565b60405180910390fd5b6040516020016107d190612842565b60405160208183030381529060405280519060200120816040516020016107f8919061289b565b604051602081830303815290604052805190602001200361084e576040517f08c379a00000000000000000000000000000000000000000000000000000000081526004016108459061292f565b60405180910390fd5b600460405180604001604052808381526020016000815250908060018154018082558091505060019003906000526020600020906002020160009091909190915060008201518160000190816108a49190612ae6565b506020820151816001015550507f92e393e9b54e2f801d3ea4beb0c5e71a21cc34a5d34b77d0fb8a3aa1650dc18f60016004805490506108e49190612bb8565b6040516108f19190611fa4565b60405180910390a150565b610904611b35565b600460058111156109185761091761201b565b5b600360009054906101000a900460ff16600581111561093a5761093961201b565b5b1461097a576040517f08c379a000000000000000000000000000000000000000000000000000000000815260040161097190612c5e565b60405180910390fd5b600080600090505b6004805490508110156109f857600482815481106109a3576109a2612569565b5b906000526020600020906002020160010154600482815481106109c9576109c8612569565b5b90600052602060002090600202016001015411156109e5578091505b80806109f090612742565b915050610982565b5060005b600480549050811015610a975760048281548110610a1d57610a1c612569565b5b90600052602060002090600202016001015460048281548110610a4357610a42612569565b5b90600052602060002090600202016001015403610a845760028190806001815401808255809150506001900390600052602060002001600090919091909150555b8080610a8f90612742565b9150506109fc565b506005600360006101000a81548160ff02191690836005811115610abe57610abd61201b565b5b02179055507fd0333fc5d15226171b77afcfaa378b55d18b661b99c9c5589add6eb03bbf86cd6005604051610af39190612092565b60405180910390a150565b610b06611b35565b610b106000611bb3565b565b60015481565b60008060009054906101000a900473ffffffffffffffffffffffffffffffffffffffff16905090565b600360009054906101000a900460ff1681565b610b5c611c7f565b600660003373ffffffffffffffffffffffffffffffffffffffff1673ffffffffffffffffffffffffffffffffffffffff16815260200190815260200160002060000160009054906101000a900460ff1680610be95750610bba610b18565b73ffffffffffffffffffffffffffffffffffffffff163373ffffffffffffffffffffffffffffffffffffffff16145b610c28576040517f08c379a0000000000000000000000000000000000000000000000000000000008152600401610c1f90612399565b60405180910390fd5b60048281548110610c3c57610c3b612569565b5b9060005260206000209060020201604051806040016040529081600082018054610c65906125c7565b80601f0160208091040260200160405190810160405280929190818152602001828054610c91906125c7565b8015610cde5780601f10610cb357610100808354040283529160200191610cde565b820191906000526020600020905b815481529060010190602001808311610cc157829003601f168201915b505050505081526020016001820154815250509050919050565b610d00611b35565b60036005811115610d1457610d1361201b565b5b600360009054906101000a900460ff166005811115610d3657610d3561201b565b5b14610d76576040517f08c379a0000000000000000000000000000000000000000000000000000000008152600401610d6d9061242b565b60405180910390fd5b6004600360006101000a81548160ff02191690836005811115610d9c57610d9b61201b565b5b02179055507fd0333fc5d15226171b77afcfaa378b55d18b661b99c9c5589add6eb03bbf86cd6004604051610dd19190612092565b60405180910390a1565b610de3611b35565b60006005811115610df757610df661201b565b5b600360009054906101000a900460ff166005811115610e1957610e1861201b565b5b14610e59576040517f08c379a0000000000000000000000000000000000000000000000000000000008152600401610e5090612cf0565b60405180910390fd5b6001600360006101000a81548160ff02191690836005811115610e7f57610e7e61201b565b5b02179055507fd0333fc5d15226171b77afcfaa378b55d18b661b99c9c5589add6eb03bbf86cd6001604051610eb49190612092565b60405180910390a1565b610ec6611b35565b60016005811115610eda57610ed961201b565b5b600360009054906101000a900460ff166005811115610efc57610efb61201b565b5b14610f3c576040517f08c379a0000000000000000000000000000000000000000000000000000000008152600401610f3390612d82565b60405180910390fd5b6002600360006101000a81548160ff02191690836005811115610f6257610f6161201b565b5b02179055507fd0333fc5d15226171b77afcfaa378b55d18b661b99c9c5589add6eb03bbf86cd6002604051610f979190612092565b60405180910390a1565b610fa9611c99565b600660003373ffffffffffffffffffffffffffffffffffffffff1673ffffffffffffffffffffffffffffffffffffffff16815260200190815260200160002060000160009054906101000a900460ff16806110365750611007610b18565b73ffffffffffffffffffffffffffffffffffffffff163373ffffffffffffffffffffffffffffffffffffffff16145b611075576040517f08c379a000000000000000000000000000000000000000000000000000000000815260040161106c90612399565b60405180910390fd5b600660008373ffffffffffffffffffffffffffffffffffffffff1673ffffffffffffffffffffffffffffffffffffffff1681526020019081526020016000206040518060600160405290816000820160009054906101000a900460ff161515151581526020016000820160019054906101000a900460ff161515151581526020016001820154815250509050919050565b61110e611b35565b6001600280549050036112b65760005b60058054905081101561122a5760405180606001604052806000151581526020016000151581526020016000815250600660006005848154811061116557611164612569565b5b9060005260206000200160009054906101000a900473ffffffffffffffffffffffffffffffffffffffff1673ffffffffffffffffffffffffffffffffffffffff1673ffffffffffffffffffffffffffffffffffffffff16815260200190815260200160002060008201518160000160006101000a81548160ff02191690831515021790555060208201518160000160016101000a81548160ff02191690831515021790555060408201518160010155905050808061122290612742565b91505061111e565b5043600181905550600260006112409190611cbe565b6004600061124e9190611cdf565b6000600360006101000a81548160ff021916908360058111156112745761127361201b565b5b02179055507fd0333fc5d15226171b77afcfaa378b55d18b661b99c9c5589add6eb03bbf86cd60006040516112a99190612092565b60405180910390a161156e565b60005b6005805490508110156113c557604051806060016040528060011515815260200160001515815260200160008152506006600060058481548110611300576112ff612569565b5b9060005260206000200160009054906101000a900473ffffffffffffffffffffffffffffffffffffffff1673ffffffffffffffffffffffffffffffffffffffff1673ffffffffffffffffffffffffffffffffffffffff16815260200190815260200160002060008201518160000160006101000a81548160ff02191690831515021790555060208201518160000160016101000a81548160ff0219169083151502179055506040820151816001015590505080806113bd90612742565b9150506112b9565b506000600460026000815481106113df576113de612569565b5b9060005260206000200154815481106113fb576113fa612569565b5b906000526020600020906002020160010154905060005b6004805490508110156114fa576004818154811061143357611432612569565b5b9060005260206000209060020201600101548211156114bb57604051806040016040528060405180602001604052806000815250815260200160008152506004828154811061148557611484612569565b5b906000526020600020906002020160008201518160000190816114a89190612ae6565b50602082015181600101559050506114e7565b6000600482815481106114d1576114d0612569565b5b9060005260206000209060020201600101819055505b80806114f290612742565b915050611412565b50600260006115099190611cbe565b6002600360006101000a81548160ff0219169083600581111561152f5761152e61201b565b5b02179055507fd0333fc5d15226171b77afcfaa378b55d18b661b99c9c5589add6eb03bbf86cd60026040516115649190612092565b60405180910390a1505b565b606060028054806020026020016040519081016040528092919081815260200182805480156115be57602002820191906000526020600020905b8154815260200190600101908083116115aa575b5050505050905090565b6115d0611b35565b600260058111156115e4576115e361201b565b5b600360009054906101000a900460ff1660058111156116065761160561201b565b5b14611646576040517f08c379a000000000000000000000000000000000000000000000000000000000815260040161163d90612e14565b60405180910390fd5b60038060006101000a81548160ff0219169083600581111561166b5761166a61201b565b5b02179055507fd0333fc5d15226171b77afcfaa378b55d18b661b99c9c5589add6eb03bbf86cd60036040516116a09190612092565b60405180910390a1565b600073ffffffffffffffffffffffffffffffffffffffff168173ffffffffffffffffffffffffffffffffffffffff1603611719576040517f08c379a000000000000000000000000000000000000000000000000000000000815260040161171090612ea6565b60405180910390fd5b3373ffffffffffffffffffffffffffffffffffffffff168173ffffffffffffffffffffffffffffffffffffffff1614611787576040517f08c379a000000000000000000000000000000000000000000000000000000000815260040161177e90612f5e565b60405180910390fd5b61179081611bb3565b60005b60058054905081101561189f576040518060600160405280600015158152602001600015158152602001600081525060066000600584815481106117da576117d9612569565b5b9060005260206000200160009054906101000a900473ffffffffffffffffffffffffffffffffffffffff1673ffffffffffffffffffffffffffffffffffffffff1673ffffffffffffffffffffffffffffffffffffffff16815260200190815260200160002060008201518160000160006101000a81548160ff02191690831515021790555060208201518160000160016101000a81548160ff02191690831515021790555060408201518160010155905050808061189790612742565b915050611793565b5043600181905550600260006118b59190611cbe565b600460006118c39190611cdf565b6000600360006101000a81548160ff021916908360058111156118e9576118e861201b565b5b02179055507fd0333fc5d15226171b77afcfaa378b55d18b661b99c9c5589add6eb03bbf86cd600060405161191e9190612092565b60405180910390a150565b611931611b35565b600060058111156119455761194461201b565b5b600360009054906101000a900460ff1660058111156119675761196661201b565b5b146119a7576040517f08c379a000000000000000000000000000000000000000000000000000000000815260040161199e90612ff0565b60405180910390fd5b60011515600660008373ffffffffffffffffffffffffffffffffffffffff1673ffffffffffffffffffffffffffffffffffffffff16815260200190815260200160002060000160009054906101000a900460ff16151503611a3d576040517f08c379a0000000000000000000000000000000000000000000000000000000008152600401611a349061305c565b60405180910390fd5b6001600660008373ffffffffffffffffffffffffffffffffffffffff1673ffffffffffffffffffffffffffffffffffffffff16815260200190815260200160002060000160006101000a81548160ff0219169083151502179055506005819080600181540180825580915050600190039060005260206000200160009091909190916101000a81548173ffffffffffffffffffffffffffffffffffffffff021916908373ffffffffffffffffffffffffffffffffffffffff1602179055507fb6be2187d059cc2a55fe29e0e503b566e1e0f8c8780096e185429350acffd3dd81604051611b2a9190612000565b60405180910390a150565b611b3d611c77565b73ffffffffffffffffffffffffffffffffffffffff16611b5b610b18565b73ffffffffffffffffffffffffffffffffffffffff1614611bb1576040517f08c379a0000000000000000000000000000000000000000000000000000000008152600401611ba8906130c8565b60405180910390fd5b565b60008060009054906101000a900473ffffffffffffffffffffffffffffffffffffffff169050816000806101000a81548173ffffffffffffffffffffffffffffffffffffffff021916908373ffffffffffffffffffffffffffffffffffffffff1602179055508173ffffffffffffffffffffffffffffffffffffffff168173ffffffffffffffffffffffffffffffffffffffff167f8be0079c531659141344cd1fd0a4f28419497f9722a3daafe3b4186f6b6457e060405160405180910390a35050565b600033905090565b604051806040016040528060608152602001600081525090565b6040518060600160405280600015158152602001600015158152602001600081525090565b5080546000825590600052602060002090810190611cdc9190611d03565b50565b5080546000825560020290600052602060002090810190611d009190611d20565b50565b5b80821115611d1c576000816000905550600101611d04565b5090565b5b80821115611d4b5760008082016000611d3a9190611d4f565b600182016000905550600201611d21565b5090565b508054611d5b906125c7565b6000825580601f10611d6d5750611d8c565b601f016020900490600052602060002090810190611d8b9190611d03565b5b50565b6000604051905090565b600080fd5b600080fd5b6000819050919050565b611db681611da3565b8114611dc157600080fd5b50565b600081359050611dd381611dad565b92915050565b600060208284031215611def57611dee611d99565b5b6000611dfd84828501611dc4565b91505092915050565b600080fd5b600080fd5b6000601f19601f8301169050919050565b7f4e487b7100000000000000000000000000000000000000000000000000000000600052604160045260246000fd5b611e5982611e10565b810181811067ffffffffffffffff82111715611e7857611e77611e21565b5b80604052505050565b6000611e8b611d8f565b9050611e978282611e50565b919050565b600067ffffffffffffffff821115611eb757611eb6611e21565b5b611ec082611e10565b9050602081019050919050565b82818337600083830152505050565b6000611eef611eea84611e9c565b611e81565b905082815260208101848484011115611f0b57611f0a611e0b565b5b611f16848285611ecd565b509392505050565b600082601f830112611f3357611f32611e06565b5b8135611f43848260208601611edc565b91505092915050565b600060208284031215611f6257611f61611d99565b5b600082013567ffffffffffffffff811115611f8057611f7f611d9e565b5b611f8c84828501611f1e565b91505092915050565b611f9e81611da3565b82525050565b6000602082019050611fb96000830184611f95565b92915050565b600073ffffffffffffffffffffffffffffffffffffffff82169050919050565b6000611fea82611fbf565b9050919050565b611ffa81611fdf565b82525050565b60006020820190506120156000830184611ff1565b92915050565b7f4e487b7100000000000000000000000000000000000000000000000000000000600052602160045260246000fd5b6006811061205b5761205a61201b565b5b50565b600081905061206c8261204a565b919050565b600061207c8261205e565b9050919050565b61208c81612071565b82525050565b60006020820190506120a76000830184612083565b92915050565b600081519050919050565b600082825260208201905092915050565b60005b838110156120e75780820151818401526020810190506120cc565b60008484015250505050565b60006120fe826120ad565b61210881856120b8565b93506121188185602086016120c9565b61212181611e10565b840191505092915050565b61213581611da3565b82525050565b6000604083016000830151848203600086015261215882826120f3565b915050602083015161216d602086018261212c565b508091505092915050565b60006020820190508181036000830152612192818461213b565b905092915050565b6121a381611fdf565b81146121ae57600080fd5b50565b6000813590506121c08161219a565b92915050565b6000602082840312156121dc576121db611d99565b5b60006121ea848285016121b1565b91505092915050565b60008115159050919050565b612208816121f3565b82525050565b60608201600082015161222460008501826121ff565b50602082015161223760208501826121ff565b50604082015161224a604085018261212c565b50505050565b6000606082019050612265600083018461220e565b92915050565b600081519050919050565b600082825260208201905092915050565b6000819050602082019050919050565b60006122a3838361212c565b60208301905092915050565b6000602082019050919050565b60006122c78261226b565b6122d18185612276565b93506122dc83612287565b8060005b8381101561230d5781516122f48882612297565b97506122ff836122af565b9250506001810190506122e0565b5085935050505092915050565b6000602082019050818103600083015261233481846122bc565b905092915050565b600082825260208201905092915050565b7f596f75277265206e6f74206120766f7465720000000000000000000000000000600082015250565b600061238360128361233c565b915061238e8261234d565b602082019050919050565b600060208201905081810360008301526123b281612376565b9050919050565b7f566f74696e672073657373696f6e20686176656e74207374617274656420796560008201527f7400000000000000000000000000000000000000000000000000000000000000602082015250565b600061241560218361233c565b9150612420826123b9565b604082019050919050565b6000602082019050818103600083015261244481612408565b9050919050565b7f596f75206861766520616c726561647920766f74656400000000000000000000600082015250565b600061248160168361233c565b915061248c8261244b565b602082019050919050565b600060208201905081810360008301526124b081612474565b9050919050565b7f43657474652070726f706f736974696f6e206e27657869737465207061732021600082015250565b60006124ed60208361233c565b91506124f8826124b7565b602082019050919050565b6000602082019050818103600083015261251c816124e0565b9050919050565b600081905092915050565b50565b600061253e600083612523565b91506125498261252e565b600082019050919050565b600061255f82612531565b9150819050919050565b7f4e487b7100000000000000000000000000000000000000000000000000000000600052603260045260246000fd5b7f4e487b7100000000000000000000000000000000000000000000000000000000600052602260045260246000fd5b600060028204905060018216806125df57607f821691505b6020821081036125f2576125f1612598565b5b50919050565b60008190508160005260206000209050919050565b6000815461261a816125c7565b6126248186612523565b9450600182166000811461263f576001811461265457612687565b60ff1983168652811515820286019350612687565b61265d856125f8565b60005b8381101561267f57815481890152600182019150602081019050612660565b838801955050505b50505092915050565b600061269c828461260d565b915081905092915050565b7f546869732070726f706f73616c20697320656d70747900000000000000000000600082015250565b60006126dd60168361233c565b91506126e8826126a7565b602082019050919050565b6000602082019050818103600083015261270c816126d0565b9050919050565b7f4e487b7100000000000000000000000000000000000000000000000000000000600052601160045260246000fd5b600061274d82611da3565b91507fffffffffffffffffffffffffffffffffffffffffffffffffffffffffffffffff820361277f5761277e612713565b5b600182019050919050565b600060408201905061279f6000830185611ff1565b6127ac6020830184611f95565b9392505050565b7f50726f706f73616c7320617265206e6f7420616c6c6f77656420796574000000600082015250565b60006127e9601d8361233c565b91506127f4826127b3565b602082019050919050565b60006020820190508181036000830152612818816127dc565b9050919050565b600061282c60008361233c565b91506128378261252e565b600082019050919050565b6000602082019050818103600083015261285b8161281f565b9050919050565b600061286d826120ad565b612877818561233c565b93506128878185602086016120c9565b61289081611e10565b840191505092915050565b600060208201905081810360008301526128b58184612862565b905092915050565b7f566f7573206e6520706f7576657a20706173206e65207269656e2070726f706f60008201527f7365720000000000000000000000000000000000000000000000000000000000602082015250565b600061291960238361233c565b9150612924826128bd565b604082019050919050565b600060208201905081810360008301526129488161290c565b9050919050565b60006020601f8301049050919050565b600082821b905092915050565b60006008830261299c7fffffffffffffffffffffffffffffffffffffffffffffffffffffffffffffffff8261295f565b6129a6868361295f565b95508019841693508086168417925050509392505050565b6000819050919050565b60006129e36129de6129d984611da3565b6129be565b611da3565b9050919050565b6000819050919050565b6129fd836129c8565b612a11612a09826129ea565b84845461296c565b825550505050565b600090565b612a26612a19565b612a318184846129f4565b505050565b5b81811015612a5557612a4a600082612a1e565b600181019050612a37565b5050565b601f821115612a9a57612a6b816125f8565b612a748461294f565b81016020851015612a83578190505b612a97612a8f8561294f565b830182612a36565b50505b505050565b600082821c905092915050565b6000612abd60001984600802612a9f565b1980831691505092915050565b6000612ad68383612aac565b9150826002028217905092915050565b612aef826120ad565b67ffffffffffffffff811115612b0857612b07611e21565b5b612b1282546125c7565b612b1d828285612a59565b600060209050601f831160018114612b505760008415612b3e578287015190505b612b488582612aca565b865550612bb0565b601f198416612b5e866125f8565b60005b82811015612b8657848901518255600182019150602085019450602081019050612b61565b86831015612ba35784890151612b9f601f891682612aac565b8355505b6001600288020188555050505b505050505050565b6000612bc382611da3565b9150612bce83611da3565b9250828203905081811115612be657612be5612713565b5b92915050565b7f43757272656e7420737461747573206973206e6f7420766f74696e672073657360008201527f73696f6e20656e64656400000000000000000000000000000000000000000000602082015250565b6000612c48602a8361233c565b9150612c5382612bec565b604082019050919050565b60006020820190508181036000830152612c7781612c3b565b9050919050565b7f5265676973746572696e672070726f706f73616c732063616e7420626520737460008201527f6172746564206e6f770000000000000000000000000000000000000000000000602082015250565b6000612cda60298361233c565b9150612ce582612c7e565b604082019050919050565b60006020820190508181036000830152612d0981612ccd565b9050919050565b7f5265676973746572696e672070726f706f73616c7320686176656e742073746160008201527f7274656420796574000000000000000000000000000000000000000000000000602082015250565b6000612d6c60288361233c565b9150612d7782612d10565b604082019050919050565b60006020820190508181036000830152612d9b81612d5f565b9050919050565b7f5265676973746572696e672070726f706f73616c73207068617365206973206e60008201527f6f742066696e6973686564000000000000000000000000000000000000000000602082015250565b6000612dfe602b8361233c565b9150612e0982612da2565b604082019050919050565b60006020820190508181036000830152612e2d81612df1565b9050919050565b7f4f776e61626c653a206e6577206f776e657220697320746865207a65726f206160008201527f6464726573730000000000000000000000000000000000000000000000000000602082015250565b6000612e9060268361233c565b9150612e9b82612e34565b604082019050919050565b60006020820190508181036000830152612ebf81612e83565b9050919050565b7f566f7573206e6520706f7576657a2070617320656e766f79657220636520636f60008201527f6e747261742073757220756e652061757472652061646472657373652071756560208201527f206c6120766f7472650000000000000000000000000000000000000000000000604082015250565b6000612f4860498361233c565b9150612f5382612ec6565b606082019050919050565b60006020820190508181036000830152612f7781612f3b565b9050919050565b7f566f7465727320726567697374726174696f6e206973206e6f74206f70656e2060008201527f7965740000000000000000000000000000000000000000000000000000000000602082015250565b6000612fda60238361233c565b9150612fe582612f7e565b604082019050919050565b6000602082019050818103600083015261300981612fcd565b9050919050565b7f416c726561647920726567697374657265640000000000000000000000000000600082015250565b600061304660128361233c565b915061305182613010565b602082019050919050565b6000602082019050818103600083015261307581613039565b9050919050565b7f4f776e61626c653a2063616c6c6572206973206e6f7420746865206f776e6572600082015250565b60006130b260208361233c565b91506130bd8261307c565b602082019050919050565b600060208201905081810360008301526130e1816130a5565b905091905056fea264697066735822122025495c1de61326f3c8030b15d8e76d88d1eb1a7089eaaf7570a6fd252bc7822264736f6c63430008100033",
  "linkReferences": {},
  "deployedLinkReferences": {}
}