{
  "_format": "hh-sol-artifact-1",
  "contractName": "Vote",
  "sourceName": "contracts/Vote.sol",
  "abi": [
    {
      "anonymous": false,
      "inputs": [
        {
          "indexed": false,
          "internalType": "uint256[]",
          "name": "winningProposal",
          "type": "uint256[]"
        }
      ],
      "name": "GetWinning",
      "type": "event"
    },
    {
      "anonymous": false,
      "inputs": [
        {
          "indexed": true,
          "internalType": "address",
          "name": "previousOwner",
          "type": "address"
        },
        {
          "indexed": true,
          "internalType": "address",
          "name": "newOwner",
          "type": "address"
        }
      ],
      "name": "OwnershipTransferred",
      "type": "event"
    },
    {
      "anonymous": false,
      "inputs": [
        {
          "indexed": false,
          "internalType": "uint256",
          "name": "proposalId",
          "type": "uint256"
        }
      ],
      "name": "ProposalRegistered",
      "type": "event"
    },
    {
      "anonymous": false,
      "inputs": [
        {
          "indexed": false,
          "internalType": "address",
          "name": "voter",
          "type": "address"
        },
        {
          "indexed": false,
          "internalType": "uint256",
          "name": "proposalId",
          "type": "uint256"
        }
      ],
      "name": "Voted",
      "type": "event"
    },
    {
      "anonymous": false,
      "inputs": [
        {
          "indexed": false,
          "internalType": "address",
          "name": "voterAddress",
          "type": "address"
        }
      ],
      "name": "VoterRegistered",
      "type": "event"
    },
    {
      "anonymous": false,
      "inputs": [
        {
          "indexed": false,
          "internalType": "enum Vote.WorkflowStatus",
          "name": "newStatus",
          "type": "uint8"
        }
      ],
      "name": "WorkflowStatusChange",
      "type": "event"
    },
    {
      "inputs": [
        {
          "internalType": "string",
          "name": "_desc",
          "type": "string"
        }
      ],
      "name": "addProposal",
      "outputs": [],
      "stateMutability": "nonpayable",
      "type": "function"
    },
    {
      "inputs": [
        {
          "internalType": "address",
          "name": "_addr",
          "type": "address"
        }
      ],
      "name": "addVoter",
      "outputs": [],
      "stateMutability": "nonpayable",
      "type": "function"
    },
    {
      "inputs": [],
      "name": "endProposalsRegistering",
      "outputs": [],
      "stateMutability": "nonpayable",
      "type": "function"
    },
    {
      "inputs": [],
      "name": "endVotingSession",
      "outputs": [],
      "stateMutability": "nonpayable",
      "type": "function"
    },
    {
      "inputs": [
        {
          "internalType": "uint256",
          "name": "_id",
          "type": "uint256"
        }
      ],
      "name": "getOneProposal",
      "outputs": [
        {
          "components": [
            {
              "internalType": "string",
              "name": "description",
              "type": "string"
            },
            {
              "internalType": "uint256",
              "name": "voteCount",
              "type": "uint256"
            }
          ],
          "internalType": "struct Vote.Proposal",
          "name": "",
          "type": "tuple"
        }
      ],
      "stateMutability": "view",
      "type": "function"
    },
    {
      "inputs": [
        {
          "internalType": "address",
          "name": "_addr",
          "type": "address"
        }
      ],
      "name": "getVoter",
      "outputs": [
        {
          "components": [
            {
              "internalType": "bool",
              "name": "isRegistered",
              "type": "bool"
            },
            {
              "internalType": "bool",
              "name": "hasVoted",
              "type": "bool"
            },
            {
              "internalType": "uint256",
              "name": "votedProposalId",
              "type": "uint256"
            }
          ],
          "internalType": "struct Vote.Voter",
          "name": "",
          "type": "tuple"
        }
      ],
      "stateMutability": "view",
      "type": "function"
    },
    {
      "inputs": [],
      "name": "owner",
      "outputs": [
        {
          "internalType": "address",
          "name": "",
          "type": "address"
        }
      ],
      "stateMutability": "view",
      "type": "function"
    },
    {
      "inputs": [],
      "name": "renounceOwnership",
      "outputs": [],
      "stateMutability": "nonpayable",
      "type": "function"
    },
    {
      "inputs": [
        {
          "internalType": "address[]",
          "name": "voter",
          "type": "address[]"
        }
      ],
      "name": "reset",
      "outputs": [],
      "stateMutability": "nonpayable",
      "type": "function"
    },
    {
      "inputs": [
        {
          "internalType": "uint256",
          "name": "_id",
          "type": "uint256"
        }
      ],
      "name": "setVote",
      "outputs": [],
      "stateMutability": "nonpayable",
      "type": "function"
    },
    {
      "inputs": [],
      "name": "startProposalsRegistering",
      "outputs": [],
      "stateMutability": "nonpayable",
      "type": "function"
    },
    {
      "inputs": [],
      "name": "startVotingSession",
      "outputs": [],
      "stateMutability": "nonpayable",
      "type": "function"
    },
    {
      "inputs": [],
      "name": "tallyVotes",
      "outputs": [],
      "stateMutability": "nonpayable",
      "type": "function"
    },
    {
      "inputs": [
        {
          "internalType": "address",
          "name": "newOwner",
          "type": "address"
        }
      ],
      "name": "transferOwnership",
      "outputs": [],
      "stateMutability": "nonpayable",
      "type": "function"
    },
    {
      "inputs": [],
      "name": "workflowStatus",
      "outputs": [
        {
          "internalType": "enum Vote.WorkflowStatus",
          "name": "",
          "type": "uint8"
        }
      ],
      "stateMutability": "view",
      "type": "function"
    }
  ],
  "bytecode": "0x60806040523480156200001157600080fd5b5062000032620000266200003860201b60201c565b6200004060201b60201c565b62000104565b600033905090565b60008060009054906101000a900473ffffffffffffffffffffffffffffffffffffffff169050816000806101000a81548173ffffffffffffffffffffffffffffffffffffffff021916908373ffffffffffffffffffffffffffffffffffffffff1602179055508173ffffffffffffffffffffffffffffffffffffffff168173ffffffffffffffffffffffffffffffffffffffff167f8be0079c531659141344cd1fd0a4f28419497f9722a3daafe3b4186f6b6457e060405160405180910390a35050565b612e6f80620001146000396000f3fe608060405234801561001057600080fd5b50600436106100f55760003560e01c8063a7bfab1611610097578063d4f50f9811610066578063d4f50f98146101ec578063ee74c6781461021c578063f2fde38b14610226578063f4ab9adf14610242576100f5565b8063a7bfab16146101b2578063b916de59146101bc578063c7038a4e146101d8578063c88af42f146101e2576100f5565b8063715018a6116100d3578063715018a61461013c5780638da5cb5b14610146578063a1edffa214610164578063a2788cce14610182576100f5565b8063230796ae146100fa5780632fdae3c514610116578063378a217814610132575b600080fd5b610114600480360381019061010f9190611aea565b61025e565b005b610130600480360381019061012b9190611c5d565b610640565b005b61013a6108bc565b005b610144610abe565b005b61014e610ad2565b60405161015b9190611ce7565b60405180910390f35b61016c610afb565b6040516101799190611d79565b60405180910390f35b61019c60048036038101906101979190611aea565b610b0e565b6040516101a99190611e5f565b60405180910390f35b6101ba610cb2565b005b6101d660048036038101906101d19190611f75565b610d95565b005b6101e06111a7565b005b6101ea61128a565b005b61020660048036038101906102019190611fbe565b61136c565b6040516102139190612048565b60405180910390f35b6102246114d1565b005b610240600480360381019061023b9190611fbe565b6115b4565b005b61025c60048036038101906102579190611fbe565b61169d565b005b600460003373ffffffffffffffffffffffffffffffffffffffff1673ffffffffffffffffffffffffffffffffffffffff16815260200190815260200160002060000160009054906101000a900460ff16806102eb57506102bc610ad2565b73ffffffffffffffffffffffffffffffffffffffff163373ffffffffffffffffffffffffffffffffffffffff16145b61032a576040517f08c379a0000000000000000000000000000000000000000000000000000000008152600401610321906120c0565b60405180910390fd5b6003600581111561033e5761033d611d02565b5b600260009054906101000a900460ff1660058111156103605761035f611d02565b5b146103a0576040517f08c379a000000000000000000000000000000000000000000000000000000000815260040161039790612152565b60405180910390fd5b600460003373ffffffffffffffffffffffffffffffffffffffff1673ffffffffffffffffffffffffffffffffffffffff16815260200190815260200160002060000160019054906101000a900460ff1615610430576040517f08c379a0000000000000000000000000000000000000000000000000000000008152600401610427906121be565b60405180910390fd5b6003805490508110610477576040517f08c379a000000000000000000000000000000000000000000000000000000000815260040161046e9061222a565b60405180910390fd5b6040516020016104869061227b565b60405160208183030381529060405280519060200120600382815481106104b0576104af612290565b5b90600052602060002090600202016000016040516020016104d191906123b7565b6040516020818303038152906040528051906020012003610527576040517f08c379a000000000000000000000000000000000000000000000000000000000815260040161051e9061241a565b60405180910390fd5b80600460003373ffffffffffffffffffffffffffffffffffffffff1673ffffffffffffffffffffffffffffffffffffffff168152602001908152602001600020600101819055506001600460003373ffffffffffffffffffffffffffffffffffffffff1673ffffffffffffffffffffffffffffffffffffffff16815260200190815260200160002060000160016101000a81548160ff021916908315150217905550600381815481106105dd576105dc612290565b5b906000526020600020906002020160010160008154809291906105ff90612469565b91905055507f4d99b957a2bc29a30ebd96a7be8e68fe50a3c701db28a91436490b7d53870ca433826040516106359291906124c0565b60405180910390a150565b600460003373ffffffffffffffffffffffffffffffffffffffff1673ffffffffffffffffffffffffffffffffffffffff16815260200190815260200160002060000160009054906101000a900460ff16806106cd575061069e610ad2565b73ffffffffffffffffffffffffffffffffffffffff163373ffffffffffffffffffffffffffffffffffffffff16145b61070c576040517f08c379a0000000000000000000000000000000000000000000000000000000008152600401610703906120c0565b60405180910390fd5b600160058111156107205761071f611d02565b5b600260009054906101000a900460ff16600581111561074257610741611d02565b5b14610782576040517f08c379a000000000000000000000000000000000000000000000000000000000815260040161077990612535565b60405180910390fd5b60405160200161079190612578565b60405160208183030381529060405280519060200120816040516020016107b891906125d1565b604051602081830303815290604052805190602001200361080e576040517f08c379a000000000000000000000000000000000000000000000000000000000815260040161080590612665565b60405180910390fd5b60036040518060400160405280838152602001600081525090806001815401808255809150506001900390600052602060002090600202016000909190919091506000820151816000019081610864919061281c565b506020820151816001015550507f92e393e9b54e2f801d3ea4beb0c5e71a21cc34a5d34b77d0fb8a3aa1650dc18f60016003805490506108a491906128ee565b6040516108b19190612922565b60405180910390a150565b6108c4611846565b600460058111156108d8576108d7611d02565b5b600260009054906101000a900460ff1660058111156108fa576108f9611d02565b5b1461093a576040517f08c379a0000000000000000000000000000000000000000000000000000000008152600401610931906129af565b60405180910390fd5b600080600090505b6003805490508110156109b8576003828154811061096357610962612290565b5b9060005260206000209060020201600101546003828154811061098957610988612290565b5b90600052602060002090600202016001015411156109a5578091505b80806109b090612469565b915050610942565b5060005b600380549050811015610a5757600382815481106109dd576109dc612290565b5b90600052602060002090600202016001015460038281548110610a0357610a02612290565b5b90600052602060002090600202016001015403610a445760018190806001815401808255809150506001900390600052602060002001600090919091909150555b8080610a4f90612469565b9150506109bc565b506005600260006101000a81548160ff02191690836005811115610a7e57610a7d611d02565b5b02179055507fd0333fc5d15226171b77afcfaa378b55d18b661b99c9c5589add6eb03bbf86cd6005604051610ab39190611d79565b60405180910390a150565b610ac6611846565b610ad060006118c4565b565b60008060009054906101000a900473ffffffffffffffffffffffffffffffffffffffff16905090565b600260009054906101000a900460ff1681565b610b16611990565b600460003373ffffffffffffffffffffffffffffffffffffffff1673ffffffffffffffffffffffffffffffffffffffff16815260200190815260200160002060000160009054906101000a900460ff1680610ba35750610b74610ad2565b73ffffffffffffffffffffffffffffffffffffffff163373ffffffffffffffffffffffffffffffffffffffff16145b610be2576040517f08c379a0000000000000000000000000000000000000000000000000000000008152600401610bd9906120c0565b60405180910390fd5b60038281548110610bf657610bf5612290565b5b9060005260206000209060020201604051806040016040529081600082018054610c1f906122ee565b80601f0160208091040260200160405190810160405280929190818152602001828054610c4b906122ee565b8015610c985780601f10610c6d57610100808354040283529160200191610c98565b820191906000526020600020905b815481529060010190602001808311610c7b57829003601f168201915b505050505081526020016001820154815250509050919050565b610cba611846565b60036005811115610cce57610ccd611d02565b5b600260009054906101000a900460ff166005811115610cf057610cef611d02565b5b14610d30576040517f08c379a0000000000000000000000000000000000000000000000000000000008152600401610d2790612152565b60405180910390fd5b6004600260006101000a81548160ff02191690836005811115610d5657610d55611d02565b5b02179055507fd0333fc5d15226171b77afcfaa378b55d18b661b99c9c5589add6eb03bbf86cd6004604051610d8b9190611d79565b60405180910390a1565b610d9d611846565b6001808054905003610f155760005b8151811015610e90576040518060600160405280600015158152602001600015158152602001600081525060046000848481518110610dee57610ded612290565b5b602002602001015173ffffffffffffffffffffffffffffffffffffffff1673ffffffffffffffffffffffffffffffffffffffff16815260200190815260200160002060008201518160000160006101000a81548160ff02191690831515021790555060208201518160000160016101000a81548160ff021916908315150217905550604082015181600101559050508080610e8890612469565b915050610dac565b5060016000610e9f91906119aa565b60036000610ead91906119cb565b6000600260006101000a81548160ff02191690836005811115610ed357610ed2611d02565b5b02179055507fd0333fc5d15226171b77afcfaa378b55d18b661b99c9c5589add6eb03bbf86cd6000604051610f089190611d79565b60405180910390a16111a4565b60005b8151811015610ffc576040518060600160405280600115158152602001600015158152602001600081525060046000848481518110610f5a57610f59612290565b5b602002602001015173ffffffffffffffffffffffffffffffffffffffff1673ffffffffffffffffffffffffffffffffffffffff16815260200190815260200160002060008201518160000160006101000a81548160ff02191690831515021790555060208201518160000160016101000a81548160ff021916908315150217905550604082015181600101559050508080610ff490612469565b915050610f18565b5060006003600160008154811061101657611015612290565b5b90600052602060002001548154811061103257611031612290565b5b906000526020600020906002020160010154905060005b600380549050811015611131576003818154811061106a57611069612290565b5b9060005260206000209060020201600101548211156110f25760405180604001604052806040518060200160405280600081525081526020016000815250600382815481106110bc576110bb612290565b5b906000526020600020906002020160008201518160000190816110df919061281c565b506020820151816001015590505061111e565b60006003828154811061110857611107612290565b5b9060005260206000209060020201600101819055505b808061112990612469565b915050611049565b506001600061114091906119aa565b60028060006101000a81548160ff0219169083600581111561116557611164611d02565b5b02179055507fd0333fc5d15226171b77afcfaa378b55d18b661b99c9c5589add6eb03bbf86cd600260405161119a9190611d79565b60405180910390a1505b50565b6111af611846565b600060058111156111c3576111c2611d02565b5b600260009054906101000a900460ff1660058111156111e5576111e4611d02565b5b14611225576040517f08c379a000000000000000000000000000000000000000000000000000000000815260040161121c90612a41565b60405180910390fd5b6001600260006101000a81548160ff0219169083600581111561124b5761124a611d02565b5b02179055507fd0333fc5d15226171b77afcfaa378b55d18b661b99c9c5589add6eb03bbf86cd60016040516112809190611d79565b60405180910390a1565b611292611846565b600160058111156112a6576112a5611d02565b5b600260009054906101000a900460ff1660058111156112c8576112c7611d02565b5b14611308576040517f08c379a00000000000000000000000000000000000000000000000000000000081526004016112ff90612ad3565b60405180910390fd5b60028060006101000a81548160ff0219169083600581111561132d5761132c611d02565b5b02179055507fd0333fc5d15226171b77afcfaa378b55d18b661b99c9c5589add6eb03bbf86cd60026040516113629190611d79565b60405180910390a1565b6113746119ef565b600460003373ffffffffffffffffffffffffffffffffffffffff1673ffffffffffffffffffffffffffffffffffffffff16815260200190815260200160002060000160009054906101000a900460ff168061140157506113d2610ad2565b73ffffffffffffffffffffffffffffffffffffffff163373ffffffffffffffffffffffffffffffffffffffff16145b611440576040517f08c379a0000000000000000000000000000000000000000000000000000000008152600401611437906120c0565b60405180910390fd5b600460008373ffffffffffffffffffffffffffffffffffffffff1673ffffffffffffffffffffffffffffffffffffffff1681526020019081526020016000206040518060600160405290816000820160009054906101000a900460ff161515151581526020016000820160019054906101000a900460ff161515151581526020016001820154815250509050919050565b6114d9611846565b600260058111156114ed576114ec611d02565b5b600260009054906101000a900460ff16600581111561150f5761150e611d02565b5b1461154f576040517f08c379a000000000000000000000000000000000000000000000000000000000815260040161154690612b65565b60405180910390fd5b6003600260006101000a81548160ff0219169083600581111561157557611574611d02565b5b02179055507fd0333fc5d15226171b77afcfaa378b55d18b661b99c9c5589add6eb03bbf86cd60036040516115aa9190611d79565b60405180910390a1565b600073ffffffffffffffffffffffffffffffffffffffff168173ffffffffffffffffffffffffffffffffffffffff1603611623576040517f08c379a000000000000000000000000000000000000000000000000000000000815260040161161a90612bf7565b60405180910390fd5b3373ffffffffffffffffffffffffffffffffffffffff168173ffffffffffffffffffffffffffffffffffffffff1614611691576040517f08c379a000000000000000000000000000000000000000000000000000000000815260040161168890612caf565b60405180910390fd5b61169a816118c4565b50565b6116a5611846565b600060058111156116b9576116b8611d02565b5b600260009054906101000a900460ff1660058111156116db576116da611d02565b5b1461171b576040517f08c379a000000000000000000000000000000000000000000000000000000000815260040161171290612d41565b60405180910390fd5b60011515600460008373ffffffffffffffffffffffffffffffffffffffff1673ffffffffffffffffffffffffffffffffffffffff16815260200190815260200160002060000160009054906101000a900460ff161515036117b1576040517f08c379a00000000000000000000000000000000000000000000000000000000081526004016117a890612dad565b60405180910390fd5b6001600460008373ffffffffffffffffffffffffffffffffffffffff1673ffffffffffffffffffffffffffffffffffffffff16815260200190815260200160002060000160006101000a81548160ff0219169083151502179055507fb6be2187d059cc2a55fe29e0e503b566e1e0f8c8780096e185429350acffd3dd8160405161183b9190611ce7565b60405180910390a150565b61184e611988565b73ffffffffffffffffffffffffffffffffffffffff1661186c610ad2565b73ffffffffffffffffffffffffffffffffffffffff16146118c2576040517f08c379a00000000000000000000000000000000000000000000000000000000081526004016118b990612e19565b60405180910390fd5b565b60008060009054906101000a900473ffffffffffffffffffffffffffffffffffffffff169050816000806101000a81548173ffffffffffffffffffffffffffffffffffffffff021916908373ffffffffffffffffffffffffffffffffffffffff1602179055508173ffffffffffffffffffffffffffffffffffffffff168173ffffffffffffffffffffffffffffffffffffffff167f8be0079c531659141344cd1fd0a4f28419497f9722a3daafe3b4186f6b6457e060405160405180910390a35050565b600033905090565b604051806040016040528060608152602001600081525090565b50805460008255906000526020600020908101906119c89190611a14565b50565b50805460008255600202906000526020600020908101906119ec9190611a31565b50565b6040518060600160405280600015158152602001600015158152602001600081525090565b5b80821115611a2d576000816000905550600101611a15565b5090565b5b80821115611a5c5760008082016000611a4b9190611a60565b600182016000905550600201611a32565b5090565b508054611a6c906122ee565b6000825580601f10611a7e5750611a9d565b601f016020900490600052602060002090810190611a9c9190611a14565b5b50565b6000604051905090565b600080fd5b600080fd5b6000819050919050565b611ac781611ab4565b8114611ad257600080fd5b50565b600081359050611ae481611abe565b92915050565b600060208284031215611b0057611aff611aaa565b5b6000611b0e84828501611ad5565b91505092915050565b600080fd5b600080fd5b6000601f19601f8301169050919050565b7f4e487b7100000000000000000000000000000000000000000000000000000000600052604160045260246000fd5b611b6a82611b21565b810181811067ffffffffffffffff82111715611b8957611b88611b32565b5b80604052505050565b6000611b9c611aa0565b9050611ba88282611b61565b919050565b600067ffffffffffffffff821115611bc857611bc7611b32565b5b611bd182611b21565b9050602081019050919050565b82818337600083830152505050565b6000611c00611bfb84611bad565b611b92565b905082815260208101848484011115611c1c57611c1b611b1c565b5b611c27848285611bde565b509392505050565b600082601f830112611c4457611c43611b17565b5b8135611c54848260208601611bed565b91505092915050565b600060208284031215611c7357611c72611aaa565b5b600082013567ffffffffffffffff811115611c9157611c90611aaf565b5b611c9d84828501611c2f565b91505092915050565b600073ffffffffffffffffffffffffffffffffffffffff82169050919050565b6000611cd182611ca6565b9050919050565b611ce181611cc6565b82525050565b6000602082019050611cfc6000830184611cd8565b92915050565b7f4e487b7100000000000000000000000000000000000000000000000000000000600052602160045260246000fd5b60068110611d4257611d41611d02565b5b50565b6000819050611d5382611d31565b919050565b6000611d6382611d45565b9050919050565b611d7381611d58565b82525050565b6000602082019050611d8e6000830184611d6a565b92915050565b600081519050919050565b600082825260208201905092915050565b60005b83811015611dce578082015181840152602081019050611db3565b60008484015250505050565b6000611de582611d94565b611def8185611d9f565b9350611dff818560208601611db0565b611e0881611b21565b840191505092915050565b611e1c81611ab4565b82525050565b60006040830160008301518482036000860152611e3f8282611dda565b9150506020830151611e546020860182611e13565b508091505092915050565b60006020820190508181036000830152611e798184611e22565b905092915050565b600067ffffffffffffffff821115611e9c57611e9b611b32565b5b602082029050602081019050919050565b600080fd5b611ebb81611cc6565b8114611ec657600080fd5b50565b600081359050611ed881611eb2565b92915050565b6000611ef1611eec84611e81565b611b92565b90508083825260208201905060208402830185811115611f1457611f13611ead565b5b835b81811015611f3d5780611f298882611ec9565b845260208401935050602081019050611f16565b5050509392505050565b600082601f830112611f5c57611f5b611b17565b5b8135611f6c848260208601611ede565b91505092915050565b600060208284031215611f8b57611f8a611aaa565b5b600082013567ffffffffffffffff811115611fa957611fa8611aaf565b5b611fb584828501611f47565b91505092915050565b600060208284031215611fd457611fd3611aaa565b5b6000611fe284828501611ec9565b91505092915050565b60008115159050919050565b61200081611feb565b82525050565b60608201600082015161201c6000850182611ff7565b50602082015161202f6020850182611ff7565b5060408201516120426040850182611e13565b50505050565b600060608201905061205d6000830184612006565b92915050565b600082825260208201905092915050565b7f596f75277265206e6f74206120766f7465720000000000000000000000000000600082015250565b60006120aa601283612063565b91506120b582612074565b602082019050919050565b600060208201905081810360008301526120d98161209d565b9050919050565b7f566f74696e672073657373696f6e20686176656e74207374617274656420796560008201527f7400000000000000000000000000000000000000000000000000000000000000602082015250565b600061213c602183612063565b9150612147826120e0565b604082019050919050565b6000602082019050818103600083015261216b8161212f565b9050919050565b7f596f75206861766520616c726561647920766f74656400000000000000000000600082015250565b60006121a8601683612063565b91506121b382612172565b602082019050919050565b600060208201905081810360008301526121d78161219b565b9050919050565b7f43657474652070726f706f736974696f6e206e27657869737465207061732021600082015250565b6000612214602083612063565b915061221f826121de565b602082019050919050565b6000602082019050818103600083015261224381612207565b9050919050565b600081905092915050565b50565b600061226560008361224a565b915061227082612255565b600082019050919050565b600061228682612258565b9150819050919050565b7f4e487b7100000000000000000000000000000000000000000000000000000000600052603260045260246000fd5b7f4e487b7100000000000000000000000000000000000000000000000000000000600052602260045260246000fd5b6000600282049050600182168061230657607f821691505b602082108103612319576123186122bf565b5b50919050565b60008190508160005260206000209050919050565b60008154612341816122ee565b61234b818661224a565b94506001821660008114612366576001811461237b576123ae565b60ff19831686528115158202860193506123ae565b6123848561231f565b60005b838110156123a657815481890152600182019150602081019050612387565b838801955050505b50505092915050565b60006123c38284612334565b915081905092915050565b7f546869732070726f706f73616c20697320656d70747900000000000000000000600082015250565b6000612404601683612063565b915061240f826123ce565b602082019050919050565b60006020820190508181036000830152612433816123f7565b9050919050565b7f4e487b7100000000000000000000000000000000000000000000000000000000600052601160045260246000fd5b600061247482611ab4565b91507fffffffffffffffffffffffffffffffffffffffffffffffffffffffffffffffff82036124a6576124a561243a565b5b600182019050919050565b6124ba81611ab4565b82525050565b60006040820190506124d56000830185611cd8565b6124e260208301846124b1565b9392505050565b7f50726f706f73616c7320617265206e6f7420616c6c6f77656420796574000000600082015250565b600061251f601d83612063565b915061252a826124e9565b602082019050919050565b6000602082019050818103600083015261254e81612512565b9050919050565b6000612562600083612063565b915061256d82612255565b600082019050919050565b6000602082019050818103600083015261259181612555565b9050919050565b60006125a382611d94565b6125ad8185612063565b93506125bd818560208601611db0565b6125c681611b21565b840191505092915050565b600060208201905081810360008301526125eb8184612598565b905092915050565b7f566f7573206e6520706f7576657a20706173206e65207269656e2070726f706f60008201527f7365720000000000000000000000000000000000000000000000000000000000602082015250565b600061264f602383612063565b915061265a826125f3565b604082019050919050565b6000602082019050818103600083015261267e81612642565b9050919050565b60006020601f8301049050919050565b600082821b905092915050565b6000600883026126d27fffffffffffffffffffffffffffffffffffffffffffffffffffffffffffffffff82612695565b6126dc8683612695565b95508019841693508086168417925050509392505050565b6000819050919050565b600061271961271461270f84611ab4565b6126f4565b611ab4565b9050919050565b6000819050919050565b612733836126fe565b61274761273f82612720565b8484546126a2565b825550505050565b600090565b61275c61274f565b61276781848461272a565b505050565b5b8181101561278b57612780600082612754565b60018101905061276d565b5050565b601f8211156127d0576127a18161231f565b6127aa84612685565b810160208510156127b9578190505b6127cd6127c585612685565b83018261276c565b50505b505050565b600082821c905092915050565b60006127f3600019846008026127d5565b1980831691505092915050565b600061280c83836127e2565b9150826002028217905092915050565b61282582611d94565b67ffffffffffffffff81111561283e5761283d611b32565b5b61284882546122ee565b61285382828561278f565b600060209050601f8311600181146128865760008415612874578287015190505b61287e8582612800565b8655506128e6565b601f1984166128948661231f565b60005b828110156128bc57848901518255600182019150602085019450602081019050612897565b868310156128d957848901516128d5601f8916826127e2565b8355505b6001600288020188555050505b505050505050565b60006128f982611ab4565b915061290483611ab4565b925082820390508181111561291c5761291b61243a565b5b92915050565b600060208201905061293760008301846124b1565b92915050565b7f43757272656e7420737461747573206973206e6f7420766f74696e672073657360008201527f73696f6e20656e64656400000000000000000000000000000000000000000000602082015250565b6000612999602a83612063565b91506129a48261293d565b604082019050919050565b600060208201905081810360008301526129c88161298c565b9050919050565b7f5265676973746572696e672070726f706f73616c732063616e7420626520737460008201527f6172746564206e6f770000000000000000000000000000000000000000000000602082015250565b6000612a2b602983612063565b9150612a36826129cf565b604082019050919050565b60006020820190508181036000830152612a5a81612a1e565b9050919050565b7f5265676973746572696e672070726f706f73616c7320686176656e742073746160008201527f7274656420796574000000000000000000000000000000000000000000000000602082015250565b6000612abd602883612063565b9150612ac882612a61565b604082019050919050565b60006020820190508181036000830152612aec81612ab0565b9050919050565b7f5265676973746572696e672070726f706f73616c73207068617365206973206e60008201527f6f742066696e6973686564000000000000000000000000000000000000000000602082015250565b6000612b4f602b83612063565b9150612b5a82612af3565b604082019050919050565b60006020820190508181036000830152612b7e81612b42565b9050919050565b7f4f776e61626c653a206e6577206f776e657220697320746865207a65726f206160008201527f6464726573730000000000000000000000000000000000000000000000000000602082015250565b6000612be1602683612063565b9150612bec82612b85565b604082019050919050565b60006020820190508181036000830152612c1081612bd4565b9050919050565b7f566f7573206e6520706f7576657a2070617320656e766f79657220636520636f60008201527f6e747261742073757220756e652061757472652061646472657373652071756560208201527f206c6120766f7472650000000000000000000000000000000000000000000000604082015250565b6000612c99604983612063565b9150612ca482612c17565b606082019050919050565b60006020820190508181036000830152612cc881612c8c565b9050919050565b7f566f7465727320726567697374726174696f6e206973206e6f74206f70656e2060008201527f7965740000000000000000000000000000000000000000000000000000000000602082015250565b6000612d2b602383612063565b9150612d3682612ccf565b604082019050919050565b60006020820190508181036000830152612d5a81612d1e565b9050919050565b7f416c726561647920726567697374657265640000000000000000000000000000600082015250565b6000612d97601283612063565b9150612da282612d61565b602082019050919050565b60006020820190508181036000830152612dc681612d8a565b9050919050565b7f4f776e61626c653a2063616c6c6572206973206e6f7420746865206f776e6572600082015250565b6000612e03602083612063565b9150612e0e82612dcd565b602082019050919050565b60006020820190508181036000830152612e3281612df6565b905091905056fea2646970667358221220ce346b6aa75752fd54b4b90b6b236ba8f55fc24baebfb18daa88fcc7b6d47f5b64736f6c63430008100033",
  "linkReferences": {},
  "deployedLinkReferences": {}
}