{
  "_format": "hh-sol-artifact-1",
  "contractName": "Vote",
  "sourceName": "contracts/Vote.sol",
  "abi": [
    {
      "anonymous": false,
      "inputs": [
        {
          "indexed": false,
          "internalType": "uint256[]",
          "name": "winningProposal",
          "type": "uint256[]"
        }
      ],
      "name": "GetWinning",
      "type": "event"
    },
    {
      "anonymous": false,
      "inputs": [
        {
          "indexed": true,
          "internalType": "address",
          "name": "previousOwner",
          "type": "address"
        },
        {
          "indexed": true,
          "internalType": "address",
          "name": "newOwner",
          "type": "address"
        }
      ],
      "name": "OwnershipTransferred",
      "type": "event"
    },
    {
      "anonymous": false,
      "inputs": [
        {
          "indexed": false,
          "internalType": "uint256",
          "name": "proposalId",
          "type": "uint256"
        }
      ],
      "name": "ProposalRegistered",
      "type": "event"
    },
    {
      "anonymous": false,
      "inputs": [
        {
          "indexed": false,
          "internalType": "address",
          "name": "voter",
          "type": "address"
        },
        {
          "indexed": false,
          "internalType": "uint256",
          "name": "proposalId",
          "type": "uint256"
        }
      ],
      "name": "Voted",
      "type": "event"
    },
    {
      "anonymous": false,
      "inputs": [
        {
          "indexed": false,
          "internalType": "address",
          "name": "voterAddress",
          "type": "address"
        }
      ],
      "name": "VoterRegistered",
      "type": "event"
    },
    {
      "anonymous": false,
      "inputs": [
        {
          "indexed": false,
          "internalType": "enum Vote.WorkflowStatus",
          "name": "newStatus",
          "type": "uint8"
        }
      ],
      "name": "WorkflowStatusChange",
      "type": "event"
    },
    {
      "inputs": [
        {
          "internalType": "string",
          "name": "_desc",
          "type": "string"
        }
      ],
      "name": "addProposal",
      "outputs": [],
      "stateMutability": "nonpayable",
      "type": "function"
    },
    {
      "inputs": [
        {
          "internalType": "address",
          "name": "_addr",
          "type": "address"
        }
      ],
      "name": "addVoter",
      "outputs": [],
      "stateMutability": "nonpayable",
      "type": "function"
    },
    {
      "inputs": [],
      "name": "endProposalsRegistering",
      "outputs": [],
      "stateMutability": "nonpayable",
      "type": "function"
    },
    {
      "inputs": [],
      "name": "endVotingSession",
      "outputs": [],
      "stateMutability": "nonpayable",
      "type": "function"
    },
    {
      "inputs": [
        {
          "internalType": "uint256",
          "name": "_id",
          "type": "uint256"
        }
      ],
      "name": "getOneProposal",
      "outputs": [
        {
          "components": [
            {
              "internalType": "string",
              "name": "description",
              "type": "string"
            },
            {
              "internalType": "uint256",
              "name": "voteCount",
              "type": "uint256"
            }
          ],
          "internalType": "struct Vote.Proposal",
          "name": "",
          "type": "tuple"
        }
      ],
      "stateMutability": "view",
      "type": "function"
    },
    {
      "inputs": [
        {
          "internalType": "address",
          "name": "_addr",
          "type": "address"
        }
      ],
      "name": "getVoter",
      "outputs": [
        {
          "components": [
            {
              "internalType": "bool",
              "name": "isRegistered",
              "type": "bool"
            },
            {
              "internalType": "bool",
              "name": "hasVoted",
              "type": "bool"
            },
            {
              "internalType": "uint256",
              "name": "votedProposalId",
              "type": "uint256"
            }
          ],
          "internalType": "struct Vote.Voter",
          "name": "",
          "type": "tuple"
        }
      ],
      "stateMutability": "view",
      "type": "function"
    },
    {
      "inputs": [],
      "name": "owner",
      "outputs": [
        {
          "internalType": "address",
          "name": "",
          "type": "address"
        }
      ],
      "stateMutability": "view",
      "type": "function"
    },
    {
      "inputs": [],
      "name": "renounceOwnership",
      "outputs": [],
      "stateMutability": "nonpayable",
      "type": "function"
    },
    {
      "inputs": [
        {
          "internalType": "address[]",
          "name": "voter",
          "type": "address[]"
        }
      ],
      "name": "reset",
      "outputs": [],
      "stateMutability": "nonpayable",
      "type": "function"
    },
    {
      "inputs": [
        {
          "internalType": "uint256",
          "name": "_id",
          "type": "uint256"
        }
      ],
      "name": "setVote",
      "outputs": [],
      "stateMutability": "nonpayable",
      "type": "function"
    },
    {
      "inputs": [],
      "name": "startProposalsRegistering",
      "outputs": [],
      "stateMutability": "nonpayable",
      "type": "function"
    },
    {
      "inputs": [],
      "name": "startVotingSession",
      "outputs": [],
      "stateMutability": "nonpayable",
      "type": "function"
    },
    {
      "inputs": [],
      "name": "tallyVotes",
      "outputs": [],
      "stateMutability": "nonpayable",
      "type": "function"
    },
    {
      "inputs": [
        {
          "internalType": "address",
          "name": "newOwner",
          "type": "address"
        }
      ],
      "name": "transferOwnership",
      "outputs": [],
      "stateMutability": "nonpayable",
      "type": "function"
    },
    {
      "inputs": [],
      "name": "workflowStatus",
      "outputs": [
        {
          "internalType": "enum Vote.WorkflowStatus",
          "name": "",
          "type": "uint8"
        }
      ],
      "stateMutability": "view",
      "type": "function"
    }
  ],
  "bytecode": "0x60806040523480156200001157600080fd5b5062000032620000266200003860201b60201c565b6200004060201b60201c565b62000104565b600033905090565b60008060009054906101000a900473ffffffffffffffffffffffffffffffffffffffff169050816000806101000a81548173ffffffffffffffffffffffffffffffffffffffff021916908373ffffffffffffffffffffffffffffffffffffffff1602179055508173ffffffffffffffffffffffffffffffffffffffff168173ffffffffffffffffffffffffffffffffffffffff167f8be0079c531659141344cd1fd0a4f28419497f9722a3daafe3b4186f6b6457e060405160405180910390a35050565b612cec80620001146000396000f3fe608060405234801561001057600080fd5b50600436106100f55760003560e01c8063a7bfab1611610097578063d4f50f9811610066578063d4f50f98146101ec578063ee74c6781461021c578063f2fde38b14610226578063f4ab9adf14610242576100f5565b8063a7bfab16146101b2578063b916de59146101bc578063c7038a4e146101d8578063c88af42f146101e2576100f5565b8063715018a6116100d3578063715018a61461013c5780638da5cb5b14610146578063a1edffa214610164578063a2788cce14610182576100f5565b8063230796ae146100fa5780632fdae3c514610116578063378a217814610132575b600080fd5b610114600480360381019061010f9190611967565b61025e565b005b610130600480360381019061012b9190611ada565b610603565b005b61013a610842565b005b610144610a44565b005b61014e610a58565b60405161015b9190611b64565b60405180910390f35b61016c610a81565b6040516101799190611bf6565b60405180910390f35b61019c60048036038101906101979190611967565b610a94565b6040516101a99190611cdc565b60405180910390f35b6101ba610bfb565b005b6101d660048036038101906101d19190611df2565b610cde565b005b6101e06110f0565b005b6101ea6111d3565b005b61020660048036038101906102019190611e3b565b6112b5565b6040516102139190611ec5565b60405180910390f35b61022461134e565b005b610240600480360381019061023b9190611e3b565b611431565b005b61025c60048036038101906102579190611e3b565b61151a565b005b600460003373ffffffffffffffffffffffffffffffffffffffff1673ffffffffffffffffffffffffffffffffffffffff16815260200190815260200160002060000160009054906101000a900460ff166102ed576040517f08c379a00000000000000000000000000000000000000000000000000000000081526004016102e490611f3d565b60405180910390fd5b6003600581111561030157610300611b7f565b5b600260009054906101000a900460ff16600581111561032357610322611b7f565b5b14610363576040517f08c379a000000000000000000000000000000000000000000000000000000000815260040161035a90611fcf565b60405180910390fd5b600460003373ffffffffffffffffffffffffffffffffffffffff1673ffffffffffffffffffffffffffffffffffffffff16815260200190815260200160002060000160019054906101000a900460ff16156103f3576040517f08c379a00000000000000000000000000000000000000000000000000000000081526004016103ea9061203b565b60405180910390fd5b600380549050811061043a576040517f08c379a0000000000000000000000000000000000000000000000000000000008152600401610431906120a7565b60405180910390fd5b604051602001610449906120f8565b60405160208183030381529060405280519060200120600382815481106104735761047261210d565b5b90600052602060002090600202016000016040516020016104949190612234565b60405160208183030381529060405280519060200120036104ea576040517f08c379a00000000000000000000000000000000000000000000000000000000081526004016104e190612297565b60405180910390fd5b80600460003373ffffffffffffffffffffffffffffffffffffffff1673ffffffffffffffffffffffffffffffffffffffff168152602001908152602001600020600101819055506001600460003373ffffffffffffffffffffffffffffffffffffffff1673ffffffffffffffffffffffffffffffffffffffff16815260200190815260200160002060000160016101000a81548160ff021916908315150217905550600381815481106105a05761059f61210d565b5b906000526020600020906002020160010160008154809291906105c2906122e6565b91905055507f4d99b957a2bc29a30ebd96a7be8e68fe50a3c701db28a91436490b7d53870ca433826040516105f892919061233d565b60405180910390a150565b600460003373ffffffffffffffffffffffffffffffffffffffff1673ffffffffffffffffffffffffffffffffffffffff16815260200190815260200160002060000160009054906101000a900460ff16610692576040517f08c379a000000000000000000000000000000000000000000000000000000000815260040161068990611f3d565b60405180910390fd5b600160058111156106a6576106a5611b7f565b5b600260009054906101000a900460ff1660058111156106c8576106c7611b7f565b5b14610708576040517f08c379a00000000000000000000000000000000000000000000000000000000081526004016106ff906123b2565b60405180910390fd5b604051602001610717906123f5565b604051602081830303815290604052805190602001208160405160200161073e919061244e565b6040516020818303038152906040528051906020012003610794576040517f08c379a000000000000000000000000000000000000000000000000000000000815260040161078b906124e2565b60405180910390fd5b600360405180604001604052808381526020016000815250908060018154018082558091505060019003906000526020600020906002020160009091909190915060008201518160000190816107ea9190612699565b506020820151816001015550507f92e393e9b54e2f801d3ea4beb0c5e71a21cc34a5d34b77d0fb8a3aa1650dc18f600160038054905061082a919061276b565b604051610837919061279f565b60405180910390a150565b61084a6116c3565b6004600581111561085e5761085d611b7f565b5b600260009054906101000a900460ff1660058111156108805761087f611b7f565b5b146108c0576040517f08c379a00000000000000000000000000000000000000000000000000000000081526004016108b79061282c565b60405180910390fd5b600080600090505b60038054905081101561093e57600382815481106108e9576108e861210d565b5b9060005260206000209060020201600101546003828154811061090f5761090e61210d565b5b906000526020600020906002020160010154111561092b578091505b8080610936906122e6565b9150506108c8565b5060005b6003805490508110156109dd57600382815481106109635761096261210d565b5b906000526020600020906002020160010154600382815481106109895761098861210d565b5b906000526020600020906002020160010154036109ca5760018190806001815401808255809150506001900390600052602060002001600090919091909150555b80806109d5906122e6565b915050610942565b506005600260006101000a81548160ff02191690836005811115610a0457610a03611b7f565b5b02179055507fd0333fc5d15226171b77afcfaa378b55d18b661b99c9c5589add6eb03bbf86cd6005604051610a399190611bf6565b60405180910390a150565b610a4c6116c3565b610a566000611741565b565b60008060009054906101000a900473ffffffffffffffffffffffffffffffffffffffff16905090565b600260009054906101000a900460ff1681565b610a9c61180d565b600460003373ffffffffffffffffffffffffffffffffffffffff1673ffffffffffffffffffffffffffffffffffffffff16815260200190815260200160002060000160009054906101000a900460ff16610b2b576040517f08c379a0000000000000000000000000000000000000000000000000000000008152600401610b2290611f3d565b60405180910390fd5b60038281548110610b3f57610b3e61210d565b5b9060005260206000209060020201604051806040016040529081600082018054610b689061216b565b80601f0160208091040260200160405190810160405280929190818152602001828054610b949061216b565b8015610be15780601f10610bb657610100808354040283529160200191610be1565b820191906000526020600020905b815481529060010190602001808311610bc457829003601f168201915b505050505081526020016001820154815250509050919050565b610c036116c3565b60036005811115610c1757610c16611b7f565b5b600260009054906101000a900460ff166005811115610c3957610c38611b7f565b5b14610c79576040517f08c379a0000000000000000000000000000000000000000000000000000000008152600401610c7090611fcf565b60405180910390fd5b6004600260006101000a81548160ff02191690836005811115610c9f57610c9e611b7f565b5b02179055507fd0333fc5d15226171b77afcfaa378b55d18b661b99c9c5589add6eb03bbf86cd6004604051610cd49190611bf6565b60405180910390a1565b610ce66116c3565b6001808054905003610e5e5760005b8151811015610dd9576040518060600160405280600015158152602001600015158152602001600081525060046000848481518110610d3757610d3661210d565b5b602002602001015173ffffffffffffffffffffffffffffffffffffffff1673ffffffffffffffffffffffffffffffffffffffff16815260200190815260200160002060008201518160000160006101000a81548160ff02191690831515021790555060208201518160000160016101000a81548160ff021916908315150217905550604082015181600101559050508080610dd1906122e6565b915050610cf5565b5060016000610de89190611827565b60036000610df69190611848565b6000600260006101000a81548160ff02191690836005811115610e1c57610e1b611b7f565b5b02179055507fd0333fc5d15226171b77afcfaa378b55d18b661b99c9c5589add6eb03bbf86cd6000604051610e519190611bf6565b60405180910390a16110ed565b60005b8151811015610f45576040518060600160405280600115158152602001600015158152602001600081525060046000848481518110610ea357610ea261210d565b5b602002602001015173ffffffffffffffffffffffffffffffffffffffff1673ffffffffffffffffffffffffffffffffffffffff16815260200190815260200160002060008201518160000160006101000a81548160ff02191690831515021790555060208201518160000160016101000a81548160ff021916908315150217905550604082015181600101559050508080610f3d906122e6565b915050610e61565b50600060036001600081548110610f5f57610f5e61210d565b5b906000526020600020015481548110610f7b57610f7a61210d565b5b906000526020600020906002020160010154905060005b60038054905081101561107a5760038181548110610fb357610fb261210d565b5b90600052602060002090600202016001015482111561103b5760405180604001604052806040518060200160405280600081525081526020016000815250600382815481106110055761100461210d565b5b906000526020600020906002020160008201518160000190816110289190612699565b5060208201518160010155905050611067565b6000600382815481106110515761105061210d565b5b9060005260206000209060020201600101819055505b8080611072906122e6565b915050610f92565b50600160006110899190611827565b60028060006101000a81548160ff021916908360058111156110ae576110ad611b7f565b5b02179055507fd0333fc5d15226171b77afcfaa378b55d18b661b99c9c5589add6eb03bbf86cd60026040516110e39190611bf6565b60405180910390a1505b50565b6110f86116c3565b6000600581111561110c5761110b611b7f565b5b600260009054906101000a900460ff16600581111561112e5761112d611b7f565b5b1461116e576040517f08c379a0000000000000000000000000000000000000000000000000000000008152600401611165906128be565b60405180910390fd5b6001600260006101000a81548160ff0219169083600581111561119457611193611b7f565b5b02179055507fd0333fc5d15226171b77afcfaa378b55d18b661b99c9c5589add6eb03bbf86cd60016040516111c99190611bf6565b60405180910390a1565b6111db6116c3565b600160058111156111ef576111ee611b7f565b5b600260009054906101000a900460ff16600581111561121157611210611b7f565b5b14611251576040517f08c379a000000000000000000000000000000000000000000000000000000000815260040161124890612950565b60405180910390fd5b60028060006101000a81548160ff0219169083600581111561127657611275611b7f565b5b02179055507fd0333fc5d15226171b77afcfaa378b55d18b661b99c9c5589add6eb03bbf86cd60026040516112ab9190611bf6565b60405180910390a1565b6112bd61186c565b600460008373ffffffffffffffffffffffffffffffffffffffff1673ffffffffffffffffffffffffffffffffffffffff1681526020019081526020016000206040518060600160405290816000820160009054906101000a900460ff161515151581526020016000820160019054906101000a900460ff161515151581526020016001820154815250509050919050565b6113566116c3565b6002600581111561136a57611369611b7f565b5b600260009054906101000a900460ff16600581111561138c5761138b611b7f565b5b146113cc576040517f08c379a00000000000000000000000000000000000000000000000000000000081526004016113c3906129e2565b60405180910390fd5b6003600260006101000a81548160ff021916908360058111156113f2576113f1611b7f565b5b02179055507fd0333fc5d15226171b77afcfaa378b55d18b661b99c9c5589add6eb03bbf86cd60036040516114279190611bf6565b60405180910390a1565b600073ffffffffffffffffffffffffffffffffffffffff168173ffffffffffffffffffffffffffffffffffffffff16036114a0576040517f08c379a000000000000000000000000000000000000000000000000000000000815260040161149790612a74565b60405180910390fd5b3373ffffffffffffffffffffffffffffffffffffffff168173ffffffffffffffffffffffffffffffffffffffff161461150e576040517f08c379a000000000000000000000000000000000000000000000000000000000815260040161150590612b2c565b60405180910390fd5b61151781611741565b50565b6115226116c3565b6000600581111561153657611535611b7f565b5b600260009054906101000a900460ff16600581111561155857611557611b7f565b5b14611598576040517f08c379a000000000000000000000000000000000000000000000000000000000815260040161158f90612bbe565b60405180910390fd5b60011515600460008373ffffffffffffffffffffffffffffffffffffffff1673ffffffffffffffffffffffffffffffffffffffff16815260200190815260200160002060000160009054906101000a900460ff1615150361162e576040517f08c379a000000000000000000000000000000000000000000000000000000000815260040161162590612c2a565b60405180910390fd5b6001600460008373ffffffffffffffffffffffffffffffffffffffff1673ffffffffffffffffffffffffffffffffffffffff16815260200190815260200160002060000160006101000a81548160ff0219169083151502179055507fb6be2187d059cc2a55fe29e0e503b566e1e0f8c8780096e185429350acffd3dd816040516116b89190611b64565b60405180910390a150565b6116cb611805565b73ffffffffffffffffffffffffffffffffffffffff166116e9610a58565b73ffffffffffffffffffffffffffffffffffffffff161461173f576040517f08c379a000000000000000000000000000000000000000000000000000000000815260040161173690612c96565b60405180910390fd5b565b60008060009054906101000a900473ffffffffffffffffffffffffffffffffffffffff169050816000806101000a81548173ffffffffffffffffffffffffffffffffffffffff021916908373ffffffffffffffffffffffffffffffffffffffff1602179055508173ffffffffffffffffffffffffffffffffffffffff168173ffffffffffffffffffffffffffffffffffffffff167f8be0079c531659141344cd1fd0a4f28419497f9722a3daafe3b4186f6b6457e060405160405180910390a35050565b600033905090565b604051806040016040528060608152602001600081525090565b50805460008255906000526020600020908101906118459190611891565b50565b508054600082556002029060005260206000209081019061186991906118ae565b50565b6040518060600160405280600015158152602001600015158152602001600081525090565b5b808211156118aa576000816000905550600101611892565b5090565b5b808211156118d957600080820160006118c891906118dd565b6001820160009055506002016118af565b5090565b5080546118e99061216b565b6000825580601f106118fb575061191a565b601f0160209004906000526020600020908101906119199190611891565b5b50565b6000604051905090565b600080fd5b600080fd5b6000819050919050565b61194481611931565b811461194f57600080fd5b50565b6000813590506119618161193b565b92915050565b60006020828403121561197d5761197c611927565b5b600061198b84828501611952565b91505092915050565b600080fd5b600080fd5b6000601f19601f8301169050919050565b7f4e487b7100000000000000000000000000000000000000000000000000000000600052604160045260246000fd5b6119e78261199e565b810181811067ffffffffffffffff82111715611a0657611a056119af565b5b80604052505050565b6000611a1961191d565b9050611a2582826119de565b919050565b600067ffffffffffffffff821115611a4557611a446119af565b5b611a4e8261199e565b9050602081019050919050565b82818337600083830152505050565b6000611a7d611a7884611a2a565b611a0f565b905082815260208101848484011115611a9957611a98611999565b5b611aa4848285611a5b565b509392505050565b600082601f830112611ac157611ac0611994565b5b8135611ad1848260208601611a6a565b91505092915050565b600060208284031215611af057611aef611927565b5b600082013567ffffffffffffffff811115611b0e57611b0d61192c565b5b611b1a84828501611aac565b91505092915050565b600073ffffffffffffffffffffffffffffffffffffffff82169050919050565b6000611b4e82611b23565b9050919050565b611b5e81611b43565b82525050565b6000602082019050611b796000830184611b55565b92915050565b7f4e487b7100000000000000000000000000000000000000000000000000000000600052602160045260246000fd5b60068110611bbf57611bbe611b7f565b5b50565b6000819050611bd082611bae565b919050565b6000611be082611bc2565b9050919050565b611bf081611bd5565b82525050565b6000602082019050611c0b6000830184611be7565b92915050565b600081519050919050565b600082825260208201905092915050565b60005b83811015611c4b578082015181840152602081019050611c30565b60008484015250505050565b6000611c6282611c11565b611c6c8185611c1c565b9350611c7c818560208601611c2d565b611c858161199e565b840191505092915050565b611c9981611931565b82525050565b60006040830160008301518482036000860152611cbc8282611c57565b9150506020830151611cd16020860182611c90565b508091505092915050565b60006020820190508181036000830152611cf68184611c9f565b905092915050565b600067ffffffffffffffff821115611d1957611d186119af565b5b602082029050602081019050919050565b600080fd5b611d3881611b43565b8114611d4357600080fd5b50565b600081359050611d5581611d2f565b92915050565b6000611d6e611d6984611cfe565b611a0f565b90508083825260208201905060208402830185811115611d9157611d90611d2a565b5b835b81811015611dba5780611da68882611d46565b845260208401935050602081019050611d93565b5050509392505050565b600082601f830112611dd957611dd8611994565b5b8135611de9848260208601611d5b565b91505092915050565b600060208284031215611e0857611e07611927565b5b600082013567ffffffffffffffff811115611e2657611e2561192c565b5b611e3284828501611dc4565b91505092915050565b600060208284031215611e5157611e50611927565b5b6000611e5f84828501611d46565b91505092915050565b60008115159050919050565b611e7d81611e68565b82525050565b606082016000820151611e996000850182611e74565b506020820151611eac6020850182611e74565b506040820151611ebf6040850182611c90565b50505050565b6000606082019050611eda6000830184611e83565b92915050565b600082825260208201905092915050565b7f596f75277265206e6f74206120766f7465720000000000000000000000000000600082015250565b6000611f27601283611ee0565b9150611f3282611ef1565b602082019050919050565b60006020820190508181036000830152611f5681611f1a565b9050919050565b7f566f74696e672073657373696f6e20686176656e74207374617274656420796560008201527f7400000000000000000000000000000000000000000000000000000000000000602082015250565b6000611fb9602183611ee0565b9150611fc482611f5d565b604082019050919050565b60006020820190508181036000830152611fe881611fac565b9050919050565b7f596f75206861766520616c726561647920766f74656400000000000000000000600082015250565b6000612025601683611ee0565b915061203082611fef565b602082019050919050565b6000602082019050818103600083015261205481612018565b9050919050565b7f43657474652070726f706f736974696f6e206e27657869737465207061732021600082015250565b6000612091602083611ee0565b915061209c8261205b565b602082019050919050565b600060208201905081810360008301526120c081612084565b9050919050565b600081905092915050565b50565b60006120e26000836120c7565b91506120ed826120d2565b600082019050919050565b6000612103826120d5565b9150819050919050565b7f4e487b7100000000000000000000000000000000000000000000000000000000600052603260045260246000fd5b7f4e487b7100000000000000000000000000000000000000000000000000000000600052602260045260246000fd5b6000600282049050600182168061218357607f821691505b6020821081036121965761219561213c565b5b50919050565b60008190508160005260206000209050919050565b600081546121be8161216b565b6121c881866120c7565b945060018216600081146121e357600181146121f85761222b565b60ff198316865281151582028601935061222b565b6122018561219c565b60005b8381101561222357815481890152600182019150602081019050612204565b838801955050505b50505092915050565b600061224082846121b1565b915081905092915050565b7f546869732070726f706f73616c20697320656d70747900000000000000000000600082015250565b6000612281601683611ee0565b915061228c8261224b565b602082019050919050565b600060208201905081810360008301526122b081612274565b9050919050565b7f4e487b7100000000000000000000000000000000000000000000000000000000600052601160045260246000fd5b60006122f182611931565b91507fffffffffffffffffffffffffffffffffffffffffffffffffffffffffffffffff8203612323576123226122b7565b5b600182019050919050565b61233781611931565b82525050565b60006040820190506123526000830185611b55565b61235f602083018461232e565b9392505050565b7f50726f706f73616c7320617265206e6f7420616c6c6f77656420796574000000600082015250565b600061239c601d83611ee0565b91506123a782612366565b602082019050919050565b600060208201905081810360008301526123cb8161238f565b9050919050565b60006123df600083611ee0565b91506123ea826120d2565b600082019050919050565b6000602082019050818103600083015261240e816123d2565b9050919050565b600061242082611c11565b61242a8185611ee0565b935061243a818560208601611c2d565b6124438161199e565b840191505092915050565b600060208201905081810360008301526124688184612415565b905092915050565b7f566f7573206e6520706f7576657a20706173206e65207269656e2070726f706f60008201527f7365720000000000000000000000000000000000000000000000000000000000602082015250565b60006124cc602383611ee0565b91506124d782612470565b604082019050919050565b600060208201905081810360008301526124fb816124bf565b9050919050565b60006020601f8301049050919050565b600082821b905092915050565b60006008830261254f7fffffffffffffffffffffffffffffffffffffffffffffffffffffffffffffffff82612512565b6125598683612512565b95508019841693508086168417925050509392505050565b6000819050919050565b600061259661259161258c84611931565b612571565b611931565b9050919050565b6000819050919050565b6125b08361257b565b6125c46125bc8261259d565b84845461251f565b825550505050565b600090565b6125d96125cc565b6125e48184846125a7565b505050565b5b81811015612608576125fd6000826125d1565b6001810190506125ea565b5050565b601f82111561264d5761261e8161219c565b61262784612502565b81016020851015612636578190505b61264a61264285612502565b8301826125e9565b50505b505050565b600082821c905092915050565b600061267060001984600802612652565b1980831691505092915050565b6000612689838361265f565b9150826002028217905092915050565b6126a282611c11565b67ffffffffffffffff8111156126bb576126ba6119af565b5b6126c5825461216b565b6126d082828561260c565b600060209050601f83116001811461270357600084156126f1578287015190505b6126fb858261267d565b865550612763565b601f1984166127118661219c565b60005b8281101561273957848901518255600182019150602085019450602081019050612714565b868310156127565784890151612752601f89168261265f565b8355505b6001600288020188555050505b505050505050565b600061277682611931565b915061278183611931565b9250828203905081811115612799576127986122b7565b5b92915050565b60006020820190506127b4600083018461232e565b92915050565b7f43757272656e7420737461747573206973206e6f7420766f74696e672073657360008201527f73696f6e20656e64656400000000000000000000000000000000000000000000602082015250565b6000612816602a83611ee0565b9150612821826127ba565b604082019050919050565b6000602082019050818103600083015261284581612809565b9050919050565b7f5265676973746572696e672070726f706f73616c732063616e7420626520737460008201527f6172746564206e6f770000000000000000000000000000000000000000000000602082015250565b60006128a8602983611ee0565b91506128b38261284c565b604082019050919050565b600060208201905081810360008301526128d78161289b565b9050919050565b7f5265676973746572696e672070726f706f73616c7320686176656e742073746160008201527f7274656420796574000000000000000000000000000000000000000000000000602082015250565b600061293a602883611ee0565b9150612945826128de565b604082019050919050565b600060208201905081810360008301526129698161292d565b9050919050565b7f5265676973746572696e672070726f706f73616c73207068617365206973206e60008201527f6f742066696e6973686564000000000000000000000000000000000000000000602082015250565b60006129cc602b83611ee0565b91506129d782612970565b604082019050919050565b600060208201905081810360008301526129fb816129bf565b9050919050565b7f4f776e61626c653a206e6577206f776e657220697320746865207a65726f206160008201527f6464726573730000000000000000000000000000000000000000000000000000602082015250565b6000612a5e602683611ee0565b9150612a6982612a02565b604082019050919050565b60006020820190508181036000830152612a8d81612a51565b9050919050565b7f566f7573206e6520706f7576657a2070617320656e766f79657220636520636f60008201527f6e747261742073757220756e652061757472652061646472657373652071756560208201527f206c6120766f7472650000000000000000000000000000000000000000000000604082015250565b6000612b16604983611ee0565b9150612b2182612a94565b606082019050919050565b60006020820190508181036000830152612b4581612b09565b9050919050565b7f566f7465727320726567697374726174696f6e206973206e6f74206f70656e2060008201527f7965740000000000000000000000000000000000000000000000000000000000602082015250565b6000612ba8602383611ee0565b9150612bb382612b4c565b604082019050919050565b60006020820190508181036000830152612bd781612b9b565b9050919050565b7f416c726561647920726567697374657265640000000000000000000000000000600082015250565b6000612c14601283611ee0565b9150612c1f82612bde565b602082019050919050565b60006020820190508181036000830152612c4381612c07565b9050919050565b7f4f776e61626c653a2063616c6c6572206973206e6f7420746865206f776e6572600082015250565b6000612c80602083611ee0565b9150612c8b82612c4a565b602082019050919050565b60006020820190508181036000830152612caf81612c73565b905091905056fea2646970667358221220522d7ae94ce27f0bf68773215e84447b20a6f9e1fa0bf996160a6df57146fbd164736f6c63430008100033",
  "linkReferences": {},
  "deployedLinkReferences": {}
}