{
  "_format": "hh-sol-artifact-1",
  "contractName": "Vote",
  "sourceName": "contracts/Vote.sol",
  "abi": [
    {
      "inputs": [],
      "stateMutability": "nonpayable",
      "type": "constructor"
    },
    {
      "anonymous": false,
      "inputs": [
        {
          "indexed": false,
          "internalType": "uint256[]",
          "name": "winningProposal",
          "type": "uint256[]"
        }
      ],
      "name": "GetWinning",
      "type": "event"
    },
    {
      "anonymous": false,
      "inputs": [
        {
          "indexed": true,
          "internalType": "address",
          "name": "previousOwner",
          "type": "address"
        },
        {
          "indexed": true,
          "internalType": "address",
          "name": "newOwner",
          "type": "address"
        }
      ],
      "name": "OwnershipTransferred",
      "type": "event"
    },
    {
      "anonymous": false,
      "inputs": [
        {
          "indexed": false,
          "internalType": "uint256",
          "name": "proposalId",
          "type": "uint256"
        }
      ],
      "name": "ProposalRegistered",
      "type": "event"
    },
    {
      "anonymous": false,
      "inputs": [
        {
          "indexed": false,
          "internalType": "address",
          "name": "voter",
          "type": "address"
        },
        {
          "indexed": false,
          "internalType": "uint256",
          "name": "proposalId",
          "type": "uint256"
        }
      ],
      "name": "Voted",
      "type": "event"
    },
    {
      "anonymous": false,
      "inputs": [
        {
          "indexed": false,
          "internalType": "address",
          "name": "voterAddress",
          "type": "address"
        }
      ],
      "name": "VoterRegistered",
      "type": "event"
    },
    {
      "anonymous": false,
      "inputs": [
        {
          "indexed": false,
          "internalType": "enum Vote.WorkflowStatus",
          "name": "newStatus",
          "type": "uint8"
        }
      ],
      "name": "WorkflowStatusChange",
      "type": "event"
    },
    {
      "inputs": [
        {
          "internalType": "string",
          "name": "_desc",
          "type": "string"
        }
      ],
      "name": "addProposal",
      "outputs": [],
      "stateMutability": "nonpayable",
      "type": "function"
    },
    {
      "inputs": [
        {
          "internalType": "address",
          "name": "_addr",
          "type": "address"
        }
      ],
      "name": "addVoter",
      "outputs": [],
      "stateMutability": "nonpayable",
      "type": "function"
    },
    {
      "inputs": [],
      "name": "blockEvent",
      "outputs": [
        {
          "internalType": "uint256",
          "name": "",
          "type": "uint256"
        }
      ],
      "stateMutability": "view",
      "type": "function"
    },
    {
      "inputs": [],
      "name": "endProposalsRegistering",
      "outputs": [],
      "stateMutability": "nonpayable",
      "type": "function"
    },
    {
      "inputs": [],
      "name": "endVotingSession",
      "outputs": [],
      "stateMutability": "nonpayable",
      "type": "function"
    },
    {
      "inputs": [
        {
          "internalType": "uint256",
          "name": "_id",
          "type": "uint256"
        }
      ],
      "name": "getOneProposal",
      "outputs": [
        {
          "components": [
            {
              "internalType": "string",
              "name": "description",
              "type": "string"
            },
            {
              "internalType": "uint256",
              "name": "voteCount",
              "type": "uint256"
            }
          ],
          "internalType": "struct Vote.Proposal",
          "name": "",
          "type": "tuple"
        }
      ],
      "stateMutability": "view",
      "type": "function"
    },
    {
      "inputs": [
        {
          "internalType": "address",
          "name": "_addr",
          "type": "address"
        }
      ],
      "name": "getVoter",
      "outputs": [
        {
          "components": [
            {
              "internalType": "bool",
              "name": "isRegistered",
              "type": "bool"
            },
            {
              "internalType": "bool",
              "name": "hasVoted",
              "type": "bool"
            },
            {
              "internalType": "uint256",
              "name": "votedProposalId",
              "type": "uint256"
            }
          ],
          "internalType": "struct Vote.Voter",
          "name": "",
          "type": "tuple"
        }
      ],
      "stateMutability": "view",
      "type": "function"
    },
    {
      "inputs": [],
      "name": "owner",
      "outputs": [
        {
          "internalType": "address",
          "name": "",
          "type": "address"
        }
      ],
      "stateMutability": "view",
      "type": "function"
    },
    {
      "inputs": [],
      "name": "renounceOwnership",
      "outputs": [],
      "stateMutability": "nonpayable",
      "type": "function"
    },
    {
      "inputs": [],
      "name": "reset",
      "outputs": [],
      "stateMutability": "nonpayable",
      "type": "function"
    },
    {
      "inputs": [
        {
          "internalType": "uint256",
          "name": "_id",
          "type": "uint256"
        }
      ],
      "name": "setVote",
      "outputs": [],
      "stateMutability": "nonpayable",
      "type": "function"
    },
    {
      "inputs": [],
      "name": "startProposalsRegistering",
      "outputs": [],
      "stateMutability": "nonpayable",
      "type": "function"
    },
    {
      "inputs": [],
      "name": "startVotingSession",
      "outputs": [],
      "stateMutability": "nonpayable",
      "type": "function"
    },
    {
      "inputs": [],
      "name": "tallyVotes",
      "outputs": [],
      "stateMutability": "nonpayable",
      "type": "function"
    },
    {
      "inputs": [
        {
          "internalType": "address",
          "name": "newOwner",
          "type": "address"
        }
      ],
      "name": "transferOwnership",
      "outputs": [],
      "stateMutability": "nonpayable",
      "type": "function"
    },
    {
      "inputs": [],
      "name": "workflowStatus",
      "outputs": [
        {
          "internalType": "enum Vote.WorkflowStatus",
          "name": "",
          "type": "uint8"
        }
      ],
      "stateMutability": "view",
      "type": "function"
    }
  ],
  "bytecode": "0x60806040523480156200001157600080fd5b5062000032620000266200003f60201b60201c565b6200004760201b60201c565b436001819055506200010b565b600033905090565b60008060009054906101000a900473ffffffffffffffffffffffffffffffffffffffff169050816000806101000a81548173ffffffffffffffffffffffffffffffffffffffff021916908373ffffffffffffffffffffffffffffffffffffffff1602179055508173ffffffffffffffffffffffffffffffffffffffff168173ffffffffffffffffffffffffffffffffffffffff167f8be0079c531659141344cd1fd0a4f28419497f9722a3daafe3b4186f6b6457e060405160405180910390a35050565b612bd8806200011b6000396000f3fe608060405234801561001057600080fd5b50600436106101005760003560e01c8063a7bfab1611610097578063d826f88f11610066578063d826f88f14610229578063ee74c67814610233578063f2fde38b1461023d578063f4ab9adf1461025957610100565b8063a7bfab16146101db578063c7038a4e146101e5578063c88af42f146101ef578063d4f50f98146101f957610100565b80637329f0a8116100d35780637329f0a8146101515780638da5cb5b1461016f578063a1edffa21461018d578063a2788cce146101ab57610100565b8063230796ae146101055780632fdae3c514610121578063378a21781461013d578063715018a614610147575b600080fd5b61011f600480360381019061011a91906118fb565b610275565b005b61013b60048036038101906101369190611a6e565b61061a565b005b6101456107d2565b005b61014f610a0c565b005b610159610a20565b6040516101669190611ac6565b60405180910390f35b610177610a26565b6040516101849190611b22565b60405180910390f35b610195610a4f565b6040516101a29190611bb4565b60405180910390f35b6101c560048036038101906101c091906118fb565b610a62565b6040516101d29190611c9a565b60405180910390f35b6101e3610b3a565b005b6101ed610c1d565b005b6101f7610d00565b005b610213600480360381019061020e9190611ce8565b610de3565b6040516102209190611d72565b60405180910390f35b610231610e7c565b005b61023b6112e6565b005b61025760048036038101906102529190611ce8565b6113c8565b005b610273600480360381019061026e9190611ce8565b61144b565b005b600660003373ffffffffffffffffffffffffffffffffffffffff1673ffffffffffffffffffffffffffffffffffffffff16815260200190815260200160002060000160009054906101000a900460ff16610304576040517f08c379a00000000000000000000000000000000000000000000000000000000081526004016102fb90611dea565b60405180910390fd5b6003600581111561031857610317611b3d565b5b600360009054906101000a900460ff16600581111561033a57610339611b3d565b5b1461037a576040517f08c379a000000000000000000000000000000000000000000000000000000000815260040161037190611e7c565b60405180910390fd5b600660003373ffffffffffffffffffffffffffffffffffffffff1673ffffffffffffffffffffffffffffffffffffffff16815260200190815260200160002060000160019054906101000a900460ff161561040a576040517f08c379a000000000000000000000000000000000000000000000000000000000815260040161040190611ee8565b60405180910390fd5b6004805490508110610451576040517f08c379a000000000000000000000000000000000000000000000000000000000815260040161044890611f54565b60405180910390fd5b60405160200161046090611fa5565b604051602081830303815290604052805190602001206004828154811061048a57610489611fba565b5b90600052602060002090600202016000016040516020016104ab91906120e1565b6040516020818303038152906040528051906020012003610501576040517f08c379a00000000000000000000000000000000000000000000000000000000081526004016104f890612144565b60405180910390fd5b80600660003373ffffffffffffffffffffffffffffffffffffffff1673ffffffffffffffffffffffffffffffffffffffff168152602001908152602001600020600101819055506001600660003373ffffffffffffffffffffffffffffffffffffffff1673ffffffffffffffffffffffffffffffffffffffff16815260200190815260200160002060000160016101000a81548160ff021916908315150217905550600481815481106105b7576105b6611fba565b5b906000526020600020906002020160010160008154809291906105d990612193565b91905055507f4d99b957a2bc29a30ebd96a7be8e68fe50a3c701db28a91436490b7d53870ca4338260405161060f9291906121db565b60405180910390a150565b610622611657565b6001600581111561063657610635611b3d565b5b600360009054906101000a900460ff16600581111561065857610657611b3d565b5b14610698576040517f08c379a000000000000000000000000000000000000000000000000000000000815260040161068f90612250565b60405180910390fd5b6040516020016106a790612293565b60405160208183030381529060405280519060200120816040516020016106ce91906122ec565b6040516020818303038152906040528051906020012003610724576040517f08c379a000000000000000000000000000000000000000000000000000000000815260040161071b90612380565b60405180910390fd5b6004604051806040016040528083815260200160008152509080600181540180825580915050600190039060005260206000209060020201600090919091909150600082015181600001908161077a9190612537565b506020820151816001015550507f92e393e9b54e2f801d3ea4beb0c5e71a21cc34a5d34b77d0fb8a3aa1650dc18f60016004805490506107ba9190612609565b6040516107c79190611ac6565b60405180910390a150565b6107da611657565b600460058111156107ee576107ed611b3d565b5b600360009054906101000a900460ff1660058111156108105761080f611b3d565b5b14610850576040517f08c379a0000000000000000000000000000000000000000000000000000000008152600401610847906126af565b60405180910390fd5b600080600090505b6004805490508110156108ce576004828154811061087957610878611fba565b5b9060005260206000209060020201600101546004828154811061089f5761089e611fba565b5b90600052602060002090600202016001015411156108bb578091505b80806108c690612193565b915050610858565b5060005b60048054905081101561096d57600482815481106108f3576108f2611fba565b5b9060005260206000209060020201600101546004828154811061091957610918611fba565b5b9060005260206000209060020201600101540361095a5760028190806001815401808255809150506001900390600052602060002001600090919091909150555b808061096590612193565b9150506108d2565b506005600360006101000a81548160ff0219169083600581111561099457610993611b3d565b5b02179055507fd0333fc5d15226171b77afcfaa378b55d18b661b99c9c5589add6eb03bbf86cd60056040516109c99190611bb4565b60405180910390a17f2af27d00ba33583fb5c2a447957cbb363b3b6eda503641890e49b0194d6dc3606002604051610a0191906127ce565b60405180910390a150565b610a14611657565b610a1e60006116d5565b565b60015481565b60008060009054906101000a900473ffffffffffffffffffffffffffffffffffffffff16905090565b600360009054906101000a900460ff1681565b610a6a6117a1565b60048281548110610a7e57610a7d611fba565b5b9060005260206000209060020201604051806040016040529081600082018054610aa790612018565b80601f0160208091040260200160405190810160405280929190818152602001828054610ad390612018565b8015610b205780601f10610af557610100808354040283529160200191610b20565b820191906000526020600020905b815481529060010190602001808311610b0357829003601f168201915b505050505081526020016001820154815250509050919050565b610b42611657565b60036005811115610b5657610b55611b3d565b5b600360009054906101000a900460ff166005811115610b7857610b77611b3d565b5b14610bb8576040517f08c379a0000000000000000000000000000000000000000000000000000000008152600401610baf90611e7c565b60405180910390fd5b6004600360006101000a81548160ff02191690836005811115610bde57610bdd611b3d565b5b02179055507fd0333fc5d15226171b77afcfaa378b55d18b661b99c9c5589add6eb03bbf86cd6004604051610c139190611bb4565b60405180910390a1565b610c25611657565b60006005811115610c3957610c38611b3d565b5b600360009054906101000a900460ff166005811115610c5b57610c5a611b3d565b5b14610c9b576040517f08c379a0000000000000000000000000000000000000000000000000000000008152600401610c9290612862565b60405180910390fd5b6001600360006101000a81548160ff02191690836005811115610cc157610cc0611b3d565b5b02179055507fd0333fc5d15226171b77afcfaa378b55d18b661b99c9c5589add6eb03bbf86cd6001604051610cf69190611bb4565b60405180910390a1565b610d08611657565b60016005811115610d1c57610d1b611b3d565b5b600360009054906101000a900460ff166005811115610d3e57610d3d611b3d565b5b14610d7e576040517f08c379a0000000000000000000000000000000000000000000000000000000008152600401610d75906128f4565b60405180910390fd5b6002600360006101000a81548160ff02191690836005811115610da457610da3611b3d565b5b02179055507fd0333fc5d15226171b77afcfaa378b55d18b661b99c9c5589add6eb03bbf86cd6002604051610dd99190611bb4565b60405180910390a1565b610deb6117bb565b600660008373ffffffffffffffffffffffffffffffffffffffff1673ffffffffffffffffffffffffffffffffffffffff1681526020019081526020016000206040518060600160405290816000820160009054906101000a900460ff161515151581526020016000820160019054906101000a900460ff161515151581526020016001820154815250509050919050565b610e84611657565b60016002805490500361102c5760005b600580549050811015610fa057604051806060016040528060001515815260200160001515815260200160008152506006600060058481548110610edb57610eda611fba565b5b9060005260206000200160009054906101000a900473ffffffffffffffffffffffffffffffffffffffff1673ffffffffffffffffffffffffffffffffffffffff1673ffffffffffffffffffffffffffffffffffffffff16815260200190815260200160002060008201518160000160006101000a81548160ff02191690831515021790555060208201518160000160016101000a81548160ff021916908315150217905550604082015181600101559050508080610f9890612193565b915050610e94565b504360018190555060026000610fb691906117e0565b60046000610fc49190611801565b6000600360006101000a81548160ff02191690836005811115610fea57610fe9611b3d565b5b02179055507fd0333fc5d15226171b77afcfaa378b55d18b661b99c9c5589add6eb03bbf86cd600060405161101f9190611bb4565b60405180910390a16112e4565b60005b60058054905081101561113b5760405180606001604052806001151581526020016000151581526020016000815250600660006005848154811061107657611075611fba565b5b9060005260206000200160009054906101000a900473ffffffffffffffffffffffffffffffffffffffff1673ffffffffffffffffffffffffffffffffffffffff1673ffffffffffffffffffffffffffffffffffffffff16815260200190815260200160002060008201518160000160006101000a81548160ff02191690831515021790555060208201518160000160016101000a81548160ff02191690831515021790555060408201518160010155905050808061113390612193565b91505061102f565b5060006004600260008154811061115557611154611fba565b5b90600052602060002001548154811061117157611170611fba565b5b906000526020600020906002020160010154905060005b60048054905081101561127057600481815481106111a9576111a8611fba565b5b9060005260206000209060020201600101548211156112315760405180604001604052806040518060200160405280600081525081526020016000815250600482815481106111fb576111fa611fba565b5b9060005260206000209060020201600082015181600001908161121e9190612537565b506020820151816001015590505061125d565b60006004828154811061124757611246611fba565b5b9060005260206000209060020201600101819055505b808061126890612193565b915050611188565b506002600061127f91906117e0565b6002600360006101000a81548160ff021916908360058111156112a5576112a4611b3d565b5b02179055507fd0333fc5d15226171b77afcfaa378b55d18b661b99c9c5589add6eb03bbf86cd60026040516112da9190611bb4565b60405180910390a1505b565b6112ee611657565b6002600581111561130257611301611b3d565b5b600360009054906101000a900460ff16600581111561132457611323611b3d565b5b14611364576040517f08c379a000000000000000000000000000000000000000000000000000000000815260040161135b90612986565b60405180910390fd5b60038060006101000a81548160ff0219169083600581111561138957611388611b3d565b5b02179055507fd0333fc5d15226171b77afcfaa378b55d18b661b99c9c5589add6eb03bbf86cd60036040516113be9190611bb4565b60405180910390a1565b6113d0611657565b600073ffffffffffffffffffffffffffffffffffffffff168173ffffffffffffffffffffffffffffffffffffffff160361143f576040517f08c379a000000000000000000000000000000000000000000000000000000000815260040161143690612a18565b60405180910390fd5b611448816116d5565b50565b611453611657565b6000600581111561146757611466611b3d565b5b600360009054906101000a900460ff16600581111561148957611488611b3d565b5b146114c9576040517f08c379a00000000000000000000000000000000000000000000000000000000081526004016114c090612aaa565b60405180910390fd5b60011515600660008373ffffffffffffffffffffffffffffffffffffffff1673ffffffffffffffffffffffffffffffffffffffff16815260200190815260200160002060000160009054906101000a900460ff1615150361155f576040517f08c379a000000000000000000000000000000000000000000000000000000000815260040161155690612b16565b60405180910390fd5b6001600660008373ffffffffffffffffffffffffffffffffffffffff1673ffffffffffffffffffffffffffffffffffffffff16815260200190815260200160002060000160006101000a81548160ff0219169083151502179055506005819080600181540180825580915050600190039060005260206000200160009091909190916101000a81548173ffffffffffffffffffffffffffffffffffffffff021916908373ffffffffffffffffffffffffffffffffffffffff1602179055507fb6be2187d059cc2a55fe29e0e503b566e1e0f8c8780096e185429350acffd3dd8160405161164c9190611b22565b60405180910390a150565b61165f611799565b73ffffffffffffffffffffffffffffffffffffffff1661167d610a26565b73ffffffffffffffffffffffffffffffffffffffff16146116d3576040517f08c379a00000000000000000000000000000000000000000000000000000000081526004016116ca90612b82565b60405180910390fd5b565b60008060009054906101000a900473ffffffffffffffffffffffffffffffffffffffff169050816000806101000a81548173ffffffffffffffffffffffffffffffffffffffff021916908373ffffffffffffffffffffffffffffffffffffffff1602179055508173ffffffffffffffffffffffffffffffffffffffff168173ffffffffffffffffffffffffffffffffffffffff167f8be0079c531659141344cd1fd0a4f28419497f9722a3daafe3b4186f6b6457e060405160405180910390a35050565b600033905090565b604051806040016040528060608152602001600081525090565b6040518060600160405280600015158152602001600015158152602001600081525090565b50805460008255906000526020600020908101906117fe9190611825565b50565b50805460008255600202906000526020600020908101906118229190611842565b50565b5b8082111561183e576000816000905550600101611826565b5090565b5b8082111561186d576000808201600061185c9190611871565b600182016000905550600201611843565b5090565b50805461187d90612018565b6000825580601f1061188f57506118ae565b601f0160209004906000526020600020908101906118ad9190611825565b5b50565b6000604051905090565b600080fd5b600080fd5b6000819050919050565b6118d8816118c5565b81146118e357600080fd5b50565b6000813590506118f5816118cf565b92915050565b600060208284031215611911576119106118bb565b5b600061191f848285016118e6565b91505092915050565b600080fd5b600080fd5b6000601f19601f8301169050919050565b7f4e487b7100000000000000000000000000000000000000000000000000000000600052604160045260246000fd5b61197b82611932565b810181811067ffffffffffffffff8211171561199a57611999611943565b5b80604052505050565b60006119ad6118b1565b90506119b98282611972565b919050565b600067ffffffffffffffff8211156119d9576119d8611943565b5b6119e282611932565b9050602081019050919050565b82818337600083830152505050565b6000611a11611a0c846119be565b6119a3565b905082815260208101848484011115611a2d57611a2c61192d565b5b611a388482856119ef565b509392505050565b600082601f830112611a5557611a54611928565b5b8135611a658482602086016119fe565b91505092915050565b600060208284031215611a8457611a836118bb565b5b600082013567ffffffffffffffff811115611aa257611aa16118c0565b5b611aae84828501611a40565b91505092915050565b611ac0816118c5565b82525050565b6000602082019050611adb6000830184611ab7565b92915050565b600073ffffffffffffffffffffffffffffffffffffffff82169050919050565b6000611b0c82611ae1565b9050919050565b611b1c81611b01565b82525050565b6000602082019050611b376000830184611b13565b92915050565b7f4e487b7100000000000000000000000000000000000000000000000000000000600052602160045260246000fd5b60068110611b7d57611b7c611b3d565b5b50565b6000819050611b8e82611b6c565b919050565b6000611b9e82611b80565b9050919050565b611bae81611b93565b82525050565b6000602082019050611bc96000830184611ba5565b92915050565b600081519050919050565b600082825260208201905092915050565b60005b83811015611c09578082015181840152602081019050611bee565b60008484015250505050565b6000611c2082611bcf565b611c2a8185611bda565b9350611c3a818560208601611beb565b611c4381611932565b840191505092915050565b611c57816118c5565b82525050565b60006040830160008301518482036000860152611c7a8282611c15565b9150506020830151611c8f6020860182611c4e565b508091505092915050565b60006020820190508181036000830152611cb48184611c5d565b905092915050565b611cc581611b01565b8114611cd057600080fd5b50565b600081359050611ce281611cbc565b92915050565b600060208284031215611cfe57611cfd6118bb565b5b6000611d0c84828501611cd3565b91505092915050565b60008115159050919050565b611d2a81611d15565b82525050565b606082016000820151611d466000850182611d21565b506020820151611d596020850182611d21565b506040820151611d6c6040850182611c4e565b50505050565b6000606082019050611d876000830184611d30565b92915050565b600082825260208201905092915050565b7f596f75277265206e6f74206120766f7465720000000000000000000000000000600082015250565b6000611dd4601283611d8d565b9150611ddf82611d9e565b602082019050919050565b60006020820190508181036000830152611e0381611dc7565b9050919050565b7f566f74696e672073657373696f6e20686176656e74207374617274656420796560008201527f7400000000000000000000000000000000000000000000000000000000000000602082015250565b6000611e66602183611d8d565b9150611e7182611e0a565b604082019050919050565b60006020820190508181036000830152611e9581611e59565b9050919050565b7f596f75206861766520616c726561647920766f74656400000000000000000000600082015250565b6000611ed2601683611d8d565b9150611edd82611e9c565b602082019050919050565b60006020820190508181036000830152611f0181611ec5565b9050919050565b7f43657474652070726f706f736974696f6e206e27657869737465207061732021600082015250565b6000611f3e602083611d8d565b9150611f4982611f08565b602082019050919050565b60006020820190508181036000830152611f6d81611f31565b9050919050565b600081905092915050565b50565b6000611f8f600083611f74565b9150611f9a82611f7f565b600082019050919050565b6000611fb082611f82565b9150819050919050565b7f4e487b7100000000000000000000000000000000000000000000000000000000600052603260045260246000fd5b7f4e487b7100000000000000000000000000000000000000000000000000000000600052602260045260246000fd5b6000600282049050600182168061203057607f821691505b60208210810361204357612042611fe9565b5b50919050565b60008190508160005260206000209050919050565b6000815461206b81612018565b6120758186611f74565b9450600182166000811461209057600181146120a5576120d8565b60ff19831686528115158202860193506120d8565b6120ae85612049565b60005b838110156120d0578154818901526001820191506020810190506120b1565b838801955050505b50505092915050565b60006120ed828461205e565b915081905092915050565b7f546869732070726f706f73616c20697320656d70747900000000000000000000600082015250565b600061212e601683611d8d565b9150612139826120f8565b602082019050919050565b6000602082019050818103600083015261215d81612121565b9050919050565b7f4e487b7100000000000000000000000000000000000000000000000000000000600052601160045260246000fd5b600061219e826118c5565b91507fffffffffffffffffffffffffffffffffffffffffffffffffffffffffffffffff82036121d0576121cf612164565b5b600182019050919050565b60006040820190506121f06000830185611b13565b6121fd6020830184611ab7565b9392505050565b7f50726f706f73616c7320617265206e6f7420616c6c6f77656420796574000000600082015250565b600061223a601d83611d8d565b915061224582612204565b602082019050919050565b600060208201905081810360008301526122698161222d565b9050919050565b600061227d600083611d8d565b915061228882611f7f565b600082019050919050565b600060208201905081810360008301526122ac81612270565b9050919050565b60006122be82611bcf565b6122c88185611d8d565b93506122d8818560208601611beb565b6122e181611932565b840191505092915050565b6000602082019050818103600083015261230681846122b3565b905092915050565b7f566f7573206e6520706f7576657a20706173206e65207269656e2070726f706f60008201527f7365720000000000000000000000000000000000000000000000000000000000602082015250565b600061236a602383611d8d565b91506123758261230e565b604082019050919050565b600060208201905081810360008301526123998161235d565b9050919050565b60006020601f8301049050919050565b600082821b905092915050565b6000600883026123ed7fffffffffffffffffffffffffffffffffffffffffffffffffffffffffffffffff826123b0565b6123f786836123b0565b95508019841693508086168417925050509392505050565b6000819050919050565b600061243461242f61242a846118c5565b61240f565b6118c5565b9050919050565b6000819050919050565b61244e83612419565b61246261245a8261243b565b8484546123bd565b825550505050565b600090565b61247761246a565b612482818484612445565b505050565b5b818110156124a65761249b60008261246f565b600181019050612488565b5050565b601f8211156124eb576124bc81612049565b6124c5846123a0565b810160208510156124d4578190505b6124e86124e0856123a0565b830182612487565b50505b505050565b600082821c905092915050565b600061250e600019846008026124f0565b1980831691505092915050565b600061252783836124fd565b9150826002028217905092915050565b61254082611bcf565b67ffffffffffffffff81111561255957612558611943565b5b6125638254612018565b61256e8282856124aa565b600060209050601f8311600181146125a1576000841561258f578287015190505b612599858261251b565b865550612601565b601f1984166125af86612049565b60005b828110156125d7578489015182556001820191506020850194506020810190506125b2565b868310156125f457848901516125f0601f8916826124fd565b8355505b6001600288020188555050505b505050505050565b6000612614826118c5565b915061261f836118c5565b925082820390508181111561263757612636612164565b5b92915050565b7f43757272656e7420737461747573206973206e6f7420766f74696e672073657360008201527f73696f6e20656e64656400000000000000000000000000000000000000000000602082015250565b6000612699602a83611d8d565b91506126a48261263d565b604082019050919050565b600060208201905081810360008301526126c88161268c565b9050919050565b600081549050919050565b600082825260208201905092915050565b60008190508160005260206000209050919050565b600061270c8383611c4e565b60208301905092915050565b60008160001c9050919050565b6000819050919050565b600061274261273d83612718565b612725565b9050919050565b6000612755825461272f565b9050919050565b6000600182019050919050565b6000612774826126cf565b61277e81856126da565b9350612789836126eb565b8060005b838110156127c15761279e82612749565b6127a88882612700565b97506127b38361275c565b92505060018101905061278d565b5085935050505092915050565b600060208201905081810360008301526127e88184612769565b905092915050565b7f5265676973746572696e672070726f706f73616c732063616e7420626520737460008201527f6172746564206e6f770000000000000000000000000000000000000000000000602082015250565b600061284c602983611d8d565b9150612857826127f0565b604082019050919050565b6000602082019050818103600083015261287b8161283f565b9050919050565b7f5265676973746572696e672070726f706f73616c7320686176656e742073746160008201527f7274656420796574000000000000000000000000000000000000000000000000602082015250565b60006128de602883611d8d565b91506128e982612882565b604082019050919050565b6000602082019050818103600083015261290d816128d1565b9050919050565b7f5265676973746572696e672070726f706f73616c73207068617365206973206e60008201527f6f742066696e6973686564000000000000000000000000000000000000000000602082015250565b6000612970602b83611d8d565b915061297b82612914565b604082019050919050565b6000602082019050818103600083015261299f81612963565b9050919050565b7f4f776e61626c653a206e6577206f776e657220697320746865207a65726f206160008201527f6464726573730000000000000000000000000000000000000000000000000000602082015250565b6000612a02602683611d8d565b9150612a0d826129a6565b604082019050919050565b60006020820190508181036000830152612a31816129f5565b9050919050565b7f566f7465727320726567697374726174696f6e206973206e6f74206f70656e2060008201527f7965740000000000000000000000000000000000000000000000000000000000602082015250565b6000612a94602383611d8d565b9150612a9f82612a38565b604082019050919050565b60006020820190508181036000830152612ac381612a87565b9050919050565b7f416c726561647920726567697374657265640000000000000000000000000000600082015250565b6000612b00601283611d8d565b9150612b0b82612aca565b602082019050919050565b60006020820190508181036000830152612b2f81612af3565b9050919050565b7f4f776e61626c653a2063616c6c6572206973206e6f7420746865206f776e6572600082015250565b6000612b6c602083611d8d565b9150612b7782612b36565b602082019050919050565b60006020820190508181036000830152612b9b81612b5f565b905091905056fea264697066735822122030636040fac7fab37eb9052d78de1c4592def85a2b28f204177529ae0def7c8b64736f6c63430008100033",
  "linkReferences": {},
  "deployedLinkReferences": {}
}