{
  "_format": "hh-sol-artifact-1",
  "contractName": "VoteFactory",
  "sourceName": "contracts/VoteFactory.sol",
  "abi": [
    {
      "inputs": [
        {
          "internalType": "uint256",
          "name": "",
          "type": "uint256"
        }
      ],
      "name": "VoteArray",
      "outputs": [
        {
          "internalType": "contract Vote",
          "name": "",
          "type": "address"
        }
      ],
      "stateMutability": "view",
      "type": "function"
    },
    {
      "inputs": [
        {
          "internalType": "uint256",
          "name": "",
          "type": "uint256"
        }
      ],
      "name": "VotePropositionsArray",
      "outputs": [
        {
          "internalType": "contract VotePropositions",
          "name": "",
          "type": "address"
        }
      ],
      "stateMutability": "view",
      "type": "function"
    },
    {
      "inputs": [],
      "name": "createVote",
      "outputs": [
        {
          "internalType": "contract Vote",
          "name": "",
          "type": "address"
        }
      ],
      "stateMutability": "nonpayable",
      "type": "function"
    },
    {
      "inputs": [],
      "name": "createVotePropositions",
      "outputs": [
        {
          "internalType": "contract VotePropositions",
          "name": "",
          "type": "address"
        }
      ],
      "stateMutability": "nonpayable",
      "type": "function"
    }
  ],
  "bytecode": "0x608060405234801561001057600080fd5b50615dd0806100206000396000f3fe608060405234801561001057600080fd5b506004361061004c5760003560e01c80633962d93314610051578063694ff0f214610081578063a0282b221461009f578063f640f976146100bd575b600080fd5b61006b6004803603810190610066919061022a565b6100ed565b60405161007891906102d6565b60405180910390f35b61008961012c565b60405161009691906102d6565b60405180910390f35b6100a7610161565b6040516100b49190610312565b60405180910390f35b6100d760048036038101906100d2919061022a565b610196565b6040516100e49190610312565b60405180910390f35b600081815481106100fd57600080fd5b906000526020600020016000915054906101000a900473ffffffffffffffffffffffffffffffffffffffff1681565b60008060405161013b906101d5565b604051809103906000f080158015610157573d6000803e3d6000fd5b5090508091505090565b600080604051610170906101e2565b604051809103906000f08015801561018c573d6000803e3d6000fd5b5090508091505090565b600181815481106101a657600080fd5b906000526020600020016000915054906101000a900473ffffffffffffffffffffffffffffffffffffffff1681565b612cf38061032e83390190565b612d7a8061302183390190565b600080fd5b6000819050919050565b610207816101f4565b811461021257600080fd5b50565b600081359050610224816101fe565b92915050565b6000602082840312156102405761023f6101ef565b5b600061024e84828501610215565b91505092915050565b600073ffffffffffffffffffffffffffffffffffffffff82169050919050565b6000819050919050565b600061029c61029761029284610257565b610277565b610257565b9050919050565b60006102ae82610281565b9050919050565b60006102c0826102a3565b9050919050565b6102d0816102b5565b82525050565b60006020820190506102eb60008301846102c7565b92915050565b60006102fc826102a3565b9050919050565b61030c816102f1565b82525050565b60006020820190506103276000830184610303565b9291505056fe60806040523480156200001157600080fd5b5062000032620000266200003f60201b60201c565b6200004760201b60201c565b436001819055506200010b565b600033905090565b60008060009054906101000a900473ffffffffffffffffffffffffffffffffffffffff169050816000806101000a81548173ffffffffffffffffffffffffffffffffffffffff021916908373ffffffffffffffffffffffffffffffffffffffff1602179055508173ffffffffffffffffffffffffffffffffffffffff168173ffffffffffffffffffffffffffffffffffffffff167f8be0079c531659141344cd1fd0a4f28419497f9722a3daafe3b4186f6b6457e060405160405180910390a35050565b612bd8806200011b6000396000f3fe608060405234801561001057600080fd5b50600436106101005760003560e01c8063a7bfab1611610097578063d826f88f11610066578063d826f88f14610229578063ee74c67814610233578063f2fde38b1461023d578063f4ab9adf1461025957610100565b8063a7bfab16146101db578063c7038a4e146101e5578063c88af42f146101ef578063d4f50f98146101f957610100565b80637329f0a8116100d35780637329f0a8146101515780638da5cb5b1461016f578063a1edffa21461018d578063a2788cce146101ab57610100565b8063230796ae146101055780632fdae3c514610121578063378a21781461013d578063715018a614610147575b600080fd5b61011f600480360381019061011a91906118fb565b610275565b005b61013b60048036038101906101369190611a6e565b61061a565b005b6101456107d2565b005b61014f610a0c565b005b610159610a20565b6040516101669190611ac6565b60405180910390f35b610177610a26565b6040516101849190611b22565b60405180910390f35b610195610a4f565b6040516101a29190611bb4565b60405180910390f35b6101c560048036038101906101c091906118fb565b610a62565b6040516101d29190611c9a565b60405180910390f35b6101e3610b3a565b005b6101ed610c1d565b005b6101f7610d00565b005b610213600480360381019061020e9190611ce8565b610de3565b6040516102209190611d72565b60405180910390f35b610231610e7c565b005b61023b6112e6565b005b61025760048036038101906102529190611ce8565b6113c8565b005b610273600480360381019061026e9190611ce8565b61144b565b005b600660003373ffffffffffffffffffffffffffffffffffffffff1673ffffffffffffffffffffffffffffffffffffffff16815260200190815260200160002060000160009054906101000a900460ff16610304576040517f08c379a00000000000000000000000000000000000000000000000000000000081526004016102fb90611dea565b60405180910390fd5b6003600581111561031857610317611b3d565b5b600360009054906101000a900460ff16600581111561033a57610339611b3d565b5b1461037a576040517f08c379a000000000000000000000000000000000000000000000000000000000815260040161037190611e7c565b60405180910390fd5b600660003373ffffffffffffffffffffffffffffffffffffffff1673ffffffffffffffffffffffffffffffffffffffff16815260200190815260200160002060000160019054906101000a900460ff161561040a576040517f08c379a000000000000000000000000000000000000000000000000000000000815260040161040190611ee8565b60405180910390fd5b6004805490508110610451576040517f08c379a000000000000000000000000000000000000000000000000000000000815260040161044890611f54565b60405180910390fd5b60405160200161046090611fa5565b604051602081830303815290604052805190602001206004828154811061048a57610489611fba565b5b90600052602060002090600202016000016040516020016104ab91906120e1565b6040516020818303038152906040528051906020012003610501576040517f08c379a00000000000000000000000000000000000000000000000000000000081526004016104f890612144565b60405180910390fd5b80600660003373ffffffffffffffffffffffffffffffffffffffff1673ffffffffffffffffffffffffffffffffffffffff168152602001908152602001600020600101819055506001600660003373ffffffffffffffffffffffffffffffffffffffff1673ffffffffffffffffffffffffffffffffffffffff16815260200190815260200160002060000160016101000a81548160ff021916908315150217905550600481815481106105b7576105b6611fba565b5b906000526020600020906002020160010160008154809291906105d990612193565b91905055507f4d99b957a2bc29a30ebd96a7be8e68fe50a3c701db28a91436490b7d53870ca4338260405161060f9291906121db565b60405180910390a150565b610622611657565b6001600581111561063657610635611b3d565b5b600360009054906101000a900460ff16600581111561065857610657611b3d565b5b14610698576040517f08c379a000000000000000000000000000000000000000000000000000000000815260040161068f90612250565b60405180910390fd5b6040516020016106a790612293565b60405160208183030381529060405280519060200120816040516020016106ce91906122ec565b6040516020818303038152906040528051906020012003610724576040517f08c379a000000000000000000000000000000000000000000000000000000000815260040161071b90612380565b60405180910390fd5b6004604051806040016040528083815260200160008152509080600181540180825580915050600190039060005260206000209060020201600090919091909150600082015181600001908161077a9190612537565b506020820151816001015550507f92e393e9b54e2f801d3ea4beb0c5e71a21cc34a5d34b77d0fb8a3aa1650dc18f60016004805490506107ba9190612609565b6040516107c79190611ac6565b60405180910390a150565b6107da611657565b600460058111156107ee576107ed611b3d565b5b600360009054906101000a900460ff1660058111156108105761080f611b3d565b5b14610850576040517f08c379a0000000000000000000000000000000000000000000000000000000008152600401610847906126af565b60405180910390fd5b600080600090505b6004805490508110156108ce576004828154811061087957610878611fba565b5b9060005260206000209060020201600101546004828154811061089f5761089e611fba565b5b90600052602060002090600202016001015411156108bb578091505b80806108c690612193565b915050610858565b5060005b60048054905081101561096d57600482815481106108f3576108f2611fba565b5b9060005260206000209060020201600101546004828154811061091957610918611fba565b5b9060005260206000209060020201600101540361095a5760028190806001815401808255809150506001900390600052602060002001600090919091909150555b808061096590612193565b9150506108d2565b506005600360006101000a81548160ff0219169083600581111561099457610993611b3d565b5b02179055507fd0333fc5d15226171b77afcfaa378b55d18b661b99c9c5589add6eb03bbf86cd60056040516109c99190611bb4565b60405180910390a17f2af27d00ba33583fb5c2a447957cbb363b3b6eda503641890e49b0194d6dc3606002604051610a0191906127ce565b60405180910390a150565b610a14611657565b610a1e60006116d5565b565b60015481565b60008060009054906101000a900473ffffffffffffffffffffffffffffffffffffffff16905090565b600360009054906101000a900460ff1681565b610a6a6117a1565b60048281548110610a7e57610a7d611fba565b5b9060005260206000209060020201604051806040016040529081600082018054610aa790612018565b80601f0160208091040260200160405190810160405280929190818152602001828054610ad390612018565b8015610b205780601f10610af557610100808354040283529160200191610b20565b820191906000526020600020905b815481529060010190602001808311610b0357829003601f168201915b505050505081526020016001820154815250509050919050565b610b42611657565b60036005811115610b5657610b55611b3d565b5b600360009054906101000a900460ff166005811115610b7857610b77611b3d565b5b14610bb8576040517f08c379a0000000000000000000000000000000000000000000000000000000008152600401610baf90611e7c565b60405180910390fd5b6004600360006101000a81548160ff02191690836005811115610bde57610bdd611b3d565b5b02179055507fd0333fc5d15226171b77afcfaa378b55d18b661b99c9c5589add6eb03bbf86cd6004604051610c139190611bb4565b60405180910390a1565b610c25611657565b60006005811115610c3957610c38611b3d565b5b600360009054906101000a900460ff166005811115610c5b57610c5a611b3d565b5b14610c9b576040517f08c379a0000000000000000000000000000000000000000000000000000000008152600401610c9290612862565b60405180910390fd5b6001600360006101000a81548160ff02191690836005811115610cc157610cc0611b3d565b5b02179055507fd0333fc5d15226171b77afcfaa378b55d18b661b99c9c5589add6eb03bbf86cd6001604051610cf69190611bb4565b60405180910390a1565b610d08611657565b60016005811115610d1c57610d1b611b3d565b5b600360009054906101000a900460ff166005811115610d3e57610d3d611b3d565b5b14610d7e576040517f08c379a0000000000000000000000000000000000000000000000000000000008152600401610d75906128f4565b60405180910390fd5b6002600360006101000a81548160ff02191690836005811115610da457610da3611b3d565b5b02179055507fd0333fc5d15226171b77afcfaa378b55d18b661b99c9c5589add6eb03bbf86cd6002604051610dd99190611bb4565b60405180910390a1565b610deb6117bb565b600660008373ffffffffffffffffffffffffffffffffffffffff1673ffffffffffffffffffffffffffffffffffffffff1681526020019081526020016000206040518060600160405290816000820160009054906101000a900460ff161515151581526020016000820160019054906101000a900460ff161515151581526020016001820154815250509050919050565b610e84611657565b60016002805490500361102c5760005b600580549050811015610fa057604051806060016040528060001515815260200160001515815260200160008152506006600060058481548110610edb57610eda611fba565b5b9060005260206000200160009054906101000a900473ffffffffffffffffffffffffffffffffffffffff1673ffffffffffffffffffffffffffffffffffffffff1673ffffffffffffffffffffffffffffffffffffffff16815260200190815260200160002060008201518160000160006101000a81548160ff02191690831515021790555060208201518160000160016101000a81548160ff021916908315150217905550604082015181600101559050508080610f9890612193565b915050610e94565b504360018190555060026000610fb691906117e0565b60046000610fc49190611801565b6000600360006101000a81548160ff02191690836005811115610fea57610fe9611b3d565b5b02179055507fd0333fc5d15226171b77afcfaa378b55d18b661b99c9c5589add6eb03bbf86cd600060405161101f9190611bb4565b60405180910390a16112e4565b60005b60058054905081101561113b5760405180606001604052806001151581526020016000151581526020016000815250600660006005848154811061107657611075611fba565b5b9060005260206000200160009054906101000a900473ffffffffffffffffffffffffffffffffffffffff1673ffffffffffffffffffffffffffffffffffffffff1673ffffffffffffffffffffffffffffffffffffffff16815260200190815260200160002060008201518160000160006101000a81548160ff02191690831515021790555060208201518160000160016101000a81548160ff02191690831515021790555060408201518160010155905050808061113390612193565b91505061102f565b5060006004600260008154811061115557611154611fba565b5b90600052602060002001548154811061117157611170611fba565b5b906000526020600020906002020160010154905060005b60048054905081101561127057600481815481106111a9576111a8611fba565b5b9060005260206000209060020201600101548211156112315760405180604001604052806040518060200160405280600081525081526020016000815250600482815481106111fb576111fa611fba565b5b9060005260206000209060020201600082015181600001908161121e9190612537565b506020820151816001015590505061125d565b60006004828154811061124757611246611fba565b5b9060005260206000209060020201600101819055505b808061126890612193565b915050611188565b506002600061127f91906117e0565b6002600360006101000a81548160ff021916908360058111156112a5576112a4611b3d565b5b02179055507fd0333fc5d15226171b77afcfaa378b55d18b661b99c9c5589add6eb03bbf86cd60026040516112da9190611bb4565b60405180910390a1505b565b6112ee611657565b6002600581111561130257611301611b3d565b5b600360009054906101000a900460ff16600581111561132457611323611b3d565b5b14611364576040517f08c379a000000000000000000000000000000000000000000000000000000000815260040161135b90612986565b60405180910390fd5b60038060006101000a81548160ff0219169083600581111561138957611388611b3d565b5b02179055507fd0333fc5d15226171b77afcfaa378b55d18b661b99c9c5589add6eb03bbf86cd60036040516113be9190611bb4565b60405180910390a1565b6113d0611657565b600073ffffffffffffffffffffffffffffffffffffffff168173ffffffffffffffffffffffffffffffffffffffff160361143f576040517f08c379a000000000000000000000000000000000000000000000000000000000815260040161143690612a18565b60405180910390fd5b611448816116d5565b50565b611453611657565b6000600581111561146757611466611b3d565b5b600360009054906101000a900460ff16600581111561148957611488611b3d565b5b146114c9576040517f08c379a00000000000000000000000000000000000000000000000000000000081526004016114c090612aaa565b60405180910390fd5b60011515600660008373ffffffffffffffffffffffffffffffffffffffff1673ffffffffffffffffffffffffffffffffffffffff16815260200190815260200160002060000160009054906101000a900460ff1615150361155f576040517f08c379a000000000000000000000000000000000000000000000000000000000815260040161155690612b16565b60405180910390fd5b6001600660008373ffffffffffffffffffffffffffffffffffffffff1673ffffffffffffffffffffffffffffffffffffffff16815260200190815260200160002060000160006101000a81548160ff0219169083151502179055506005819080600181540180825580915050600190039060005260206000200160009091909190916101000a81548173ffffffffffffffffffffffffffffffffffffffff021916908373ffffffffffffffffffffffffffffffffffffffff1602179055507fb6be2187d059cc2a55fe29e0e503b566e1e0f8c8780096e185429350acffd3dd8160405161164c9190611b22565b60405180910390a150565b61165f611799565b73ffffffffffffffffffffffffffffffffffffffff1661167d610a26565b73ffffffffffffffffffffffffffffffffffffffff16146116d3576040517f08c379a00000000000000000000000000000000000000000000000000000000081526004016116ca90612b82565b60405180910390fd5b565b60008060009054906101000a900473ffffffffffffffffffffffffffffffffffffffff169050816000806101000a81548173ffffffffffffffffffffffffffffffffffffffff021916908373ffffffffffffffffffffffffffffffffffffffff1602179055508173ffffffffffffffffffffffffffffffffffffffff168173ffffffffffffffffffffffffffffffffffffffff167f8be0079c531659141344cd1fd0a4f28419497f9722a3daafe3b4186f6b6457e060405160405180910390a35050565b600033905090565b604051806040016040528060608152602001600081525090565b6040518060600160405280600015158152602001600015158152602001600081525090565b50805460008255906000526020600020908101906117fe9190611825565b50565b50805460008255600202906000526020600020908101906118229190611842565b50565b5b8082111561183e576000816000905550600101611826565b5090565b5b8082111561186d576000808201600061185c9190611871565b600182016000905550600201611843565b5090565b50805461187d90612018565b6000825580601f1061188f57506118ae565b601f0160209004906000526020600020908101906118ad9190611825565b5b50565b6000604051905090565b600080fd5b600080fd5b6000819050919050565b6118d8816118c5565b81146118e357600080fd5b50565b6000813590506118f5816118cf565b92915050565b600060208284031215611911576119106118bb565b5b600061191f848285016118e6565b91505092915050565b600080fd5b600080fd5b6000601f19601f8301169050919050565b7f4e487b7100000000000000000000000000000000000000000000000000000000600052604160045260246000fd5b61197b82611932565b810181811067ffffffffffffffff8211171561199a57611999611943565b5b80604052505050565b60006119ad6118b1565b90506119b98282611972565b919050565b600067ffffffffffffffff8211156119d9576119d8611943565b5b6119e282611932565b9050602081019050919050565b82818337600083830152505050565b6000611a11611a0c846119be565b6119a3565b905082815260208101848484011115611a2d57611a2c61192d565b5b611a388482856119ef565b509392505050565b600082601f830112611a5557611a54611928565b5b8135611a658482602086016119fe565b91505092915050565b600060208284031215611a8457611a836118bb565b5b600082013567ffffffffffffffff811115611aa257611aa16118c0565b5b611aae84828501611a40565b91505092915050565b611ac0816118c5565b82525050565b6000602082019050611adb6000830184611ab7565b92915050565b600073ffffffffffffffffffffffffffffffffffffffff82169050919050565b6000611b0c82611ae1565b9050919050565b611b1c81611b01565b82525050565b6000602082019050611b376000830184611b13565b92915050565b7f4e487b7100000000000000000000000000000000000000000000000000000000600052602160045260246000fd5b60068110611b7d57611b7c611b3d565b5b50565b6000819050611b8e82611b6c565b919050565b6000611b9e82611b80565b9050919050565b611bae81611b93565b82525050565b6000602082019050611bc96000830184611ba5565b92915050565b600081519050919050565b600082825260208201905092915050565b60005b83811015611c09578082015181840152602081019050611bee565b60008484015250505050565b6000611c2082611bcf565b611c2a8185611bda565b9350611c3a818560208601611beb565b611c4381611932565b840191505092915050565b611c57816118c5565b82525050565b60006040830160008301518482036000860152611c7a8282611c15565b9150506020830151611c8f6020860182611c4e565b508091505092915050565b60006020820190508181036000830152611cb48184611c5d565b905092915050565b611cc581611b01565b8114611cd057600080fd5b50565b600081359050611ce281611cbc565b92915050565b600060208284031215611cfe57611cfd6118bb565b5b6000611d0c84828501611cd3565b91505092915050565b60008115159050919050565b611d2a81611d15565b82525050565b606082016000820151611d466000850182611d21565b506020820151611d596020850182611d21565b506040820151611d6c6040850182611c4e565b50505050565b6000606082019050611d876000830184611d30565b92915050565b600082825260208201905092915050565b7f596f75277265206e6f74206120766f7465720000000000000000000000000000600082015250565b6000611dd4601283611d8d565b9150611ddf82611d9e565b602082019050919050565b60006020820190508181036000830152611e0381611dc7565b9050919050565b7f566f74696e672073657373696f6e20686176656e74207374617274656420796560008201527f7400000000000000000000000000000000000000000000000000000000000000602082015250565b6000611e66602183611d8d565b9150611e7182611e0a565b604082019050919050565b60006020820190508181036000830152611e9581611e59565b9050919050565b7f596f75206861766520616c726561647920766f74656400000000000000000000600082015250565b6000611ed2601683611d8d565b9150611edd82611e9c565b602082019050919050565b60006020820190508181036000830152611f0181611ec5565b9050919050565b7f43657474652070726f706f736974696f6e206e27657869737465207061732021600082015250565b6000611f3e602083611d8d565b9150611f4982611f08565b602082019050919050565b60006020820190508181036000830152611f6d81611f31565b9050919050565b600081905092915050565b50565b6000611f8f600083611f74565b9150611f9a82611f7f565b600082019050919050565b6000611fb082611f82565b9150819050919050565b7f4e487b7100000000000000000000000000000000000000000000000000000000600052603260045260246000fd5b7f4e487b7100000000000000000000000000000000000000000000000000000000600052602260045260246000fd5b6000600282049050600182168061203057607f821691505b60208210810361204357612042611fe9565b5b50919050565b60008190508160005260206000209050919050565b6000815461206b81612018565b6120758186611f74565b9450600182166000811461209057600181146120a5576120d8565b60ff19831686528115158202860193506120d8565b6120ae85612049565b60005b838110156120d0578154818901526001820191506020810190506120b1565b838801955050505b50505092915050565b60006120ed828461205e565b915081905092915050565b7f546869732070726f706f73616c20697320656d70747900000000000000000000600082015250565b600061212e601683611d8d565b9150612139826120f8565b602082019050919050565b6000602082019050818103600083015261215d81612121565b9050919050565b7f4e487b7100000000000000000000000000000000000000000000000000000000600052601160045260246000fd5b600061219e826118c5565b91507fffffffffffffffffffffffffffffffffffffffffffffffffffffffffffffffff82036121d0576121cf612164565b5b600182019050919050565b60006040820190506121f06000830185611b13565b6121fd6020830184611ab7565b9392505050565b7f50726f706f73616c7320617265206e6f7420616c6c6f77656420796574000000600082015250565b600061223a601d83611d8d565b915061224582612204565b602082019050919050565b600060208201905081810360008301526122698161222d565b9050919050565b600061227d600083611d8d565b915061228882611f7f565b600082019050919050565b600060208201905081810360008301526122ac81612270565b9050919050565b60006122be82611bcf565b6122c88185611d8d565b93506122d8818560208601611beb565b6122e181611932565b840191505092915050565b6000602082019050818103600083015261230681846122b3565b905092915050565b7f566f7573206e6520706f7576657a20706173206e65207269656e2070726f706f60008201527f7365720000000000000000000000000000000000000000000000000000000000602082015250565b600061236a602383611d8d565b91506123758261230e565b604082019050919050565b600060208201905081810360008301526123998161235d565b9050919050565b60006020601f8301049050919050565b600082821b905092915050565b6000600883026123ed7fffffffffffffffffffffffffffffffffffffffffffffffffffffffffffffffff826123b0565b6123f786836123b0565b95508019841693508086168417925050509392505050565b6000819050919050565b600061243461242f61242a846118c5565b61240f565b6118c5565b9050919050565b6000819050919050565b61244e83612419565b61246261245a8261243b565b8484546123bd565b825550505050565b600090565b61247761246a565b612482818484612445565b505050565b5b818110156124a65761249b60008261246f565b600181019050612488565b5050565b601f8211156124eb576124bc81612049565b6124c5846123a0565b810160208510156124d4578190505b6124e86124e0856123a0565b830182612487565b50505b505050565b600082821c905092915050565b600061250e600019846008026124f0565b1980831691505092915050565b600061252783836124fd565b9150826002028217905092915050565b61254082611bcf565b67ffffffffffffffff81111561255957612558611943565b5b6125638254612018565b61256e8282856124aa565b600060209050601f8311600181146125a1576000841561258f578287015190505b612599858261251b565b865550612601565b601f1984166125af86612049565b60005b828110156125d7578489015182556001820191506020850194506020810190506125b2565b868310156125f457848901516125f0601f8916826124fd565b8355505b6001600288020188555050505b505050505050565b6000612614826118c5565b915061261f836118c5565b925082820390508181111561263757612636612164565b5b92915050565b7f43757272656e7420737461747573206973206e6f7420766f74696e672073657360008201527f73696f6e20656e64656400000000000000000000000000000000000000000000602082015250565b6000612699602a83611d8d565b91506126a48261263d565b604082019050919050565b600060208201905081810360008301526126c88161268c565b9050919050565b600081549050919050565b600082825260208201905092915050565b60008190508160005260206000209050919050565b600061270c8383611c4e565b60208301905092915050565b60008160001c9050919050565b6000819050919050565b600061274261273d83612718565b612725565b9050919050565b6000612755825461272f565b9050919050565b6000600182019050919050565b6000612774826126cf565b61277e81856126da565b9350612789836126eb565b8060005b838110156127c15761279e82612749565b6127a88882612700565b97506127b38361275c565b92505060018101905061278d565b5085935050505092915050565b600060208201905081810360008301526127e88184612769565b905092915050565b7f5265676973746572696e672070726f706f73616c732063616e7420626520737460008201527f6172746564206e6f770000000000000000000000000000000000000000000000602082015250565b600061284c602983611d8d565b9150612857826127f0565b604082019050919050565b6000602082019050818103600083015261287b8161283f565b9050919050565b7f5265676973746572696e672070726f706f73616c7320686176656e742073746160008201527f7274656420796574000000000000000000000000000000000000000000000000602082015250565b60006128de602883611d8d565b91506128e982612882565b604082019050919050565b6000602082019050818103600083015261290d816128d1565b9050919050565b7f5265676973746572696e672070726f706f73616c73207068617365206973206e60008201527f6f742066696e6973686564000000000000000000000000000000000000000000602082015250565b6000612970602b83611d8d565b915061297b82612914565b604082019050919050565b6000602082019050818103600083015261299f81612963565b9050919050565b7f4f776e61626c653a206e6577206f776e657220697320746865207a65726f206160008201527f6464726573730000000000000000000000000000000000000000000000000000602082015250565b6000612a02602683611d8d565b9150612a0d826129a6565b604082019050919050565b60006020820190508181036000830152612a31816129f5565b9050919050565b7f566f7465727320726567697374726174696f6e206973206e6f74206f70656e2060008201527f7965740000000000000000000000000000000000000000000000000000000000602082015250565b6000612a94602383611d8d565b9150612a9f82612a38565b604082019050919050565b60006020820190508181036000830152612ac381612a87565b9050919050565b7f416c726561647920726567697374657265640000000000000000000000000000600082015250565b6000612b00601283611d8d565b9150612b0b82612aca565b602082019050919050565b60006020820190508181036000830152612b2f81612af3565b9050919050565b7f4f776e61626c653a2063616c6c6572206973206e6f7420746865206f776e6572600082015250565b6000612b6c602083611d8d565b9150612b7782612b36565b602082019050919050565b60006020820190508181036000830152612b9b81612b5f565b905091905056fea264697066735822122030636040fac7fab37eb9052d78de1c4592def85a2b28f204177529ae0def7c8b64736f6c6343000810003360806040523480156200001157600080fd5b5062000032620000266200003f60201b60201c565b6200004760201b60201c565b436001819055506200010b565b600033905090565b60008060009054906101000a900473ffffffffffffffffffffffffffffffffffffffff169050816000806101000a81548173ffffffffffffffffffffffffffffffffffffffff021916908373ffffffffffffffffffffffffffffffffffffffff1602179055508173ffffffffffffffffffffffffffffffffffffffff168173ffffffffffffffffffffffffffffffffffffffff167f8be0079c531659141344cd1fd0a4f28419497f9722a3daafe3b4186f6b6457e060405160405180910390a35050565b612c5f806200011b6000396000f3fe608060405234801561001057600080fd5b50600436106101005760003560e01c8063a7bfab1611610097578063d826f88f11610066578063d826f88f14610229578063ee74c67814610233578063f2fde38b1461023d578063f4ab9adf1461025957610100565b8063a7bfab16146101db578063c7038a4e146101e5578063c88af42f146101ef578063d4f50f98146101f957610100565b80637329f0a8116100d35780637329f0a8146101515780638da5cb5b1461016f578063a1edffa21461018d578063a2788cce146101ab57610100565b8063230796ae146101055780632fdae3c514610121578063378a21781461013d578063715018a614610147575b600080fd5b61011f600480360381019061011a9190611982565b610275565b005b61013b60048036038101906101369190611af5565b61061a565b005b610145610859565b005b61014f610a93565b005b610159610aa7565b6040516101669190611b4d565b60405180910390f35b610177610aad565b6040516101849190611ba9565b60405180910390f35b610195610ad6565b6040516101a29190611c3b565b60405180910390f35b6101c560048036038101906101c09190611982565b610ae9565b6040516101d29190611d21565b60405180910390f35b6101e3610bc1565b005b6101ed610ca4565b005b6101f7610d87565b005b610213600480360381019061020e9190611d6f565b610e6a565b6040516102209190611df9565b60405180910390f35b610231610f03565b005b61023b61136d565b005b61025760048036038101906102529190611d6f565b61144f565b005b610273600480360381019061026e9190611d6f565b6114d2565b005b600660003373ffffffffffffffffffffffffffffffffffffffff1673ffffffffffffffffffffffffffffffffffffffff16815260200190815260200160002060000160009054906101000a900460ff16610304576040517f08c379a00000000000000000000000000000000000000000000000000000000081526004016102fb90611e71565b60405180910390fd5b6003600581111561031857610317611bc4565b5b600360009054906101000a900460ff16600581111561033a57610339611bc4565b5b1461037a576040517f08c379a000000000000000000000000000000000000000000000000000000000815260040161037190611f03565b60405180910390fd5b600660003373ffffffffffffffffffffffffffffffffffffffff1673ffffffffffffffffffffffffffffffffffffffff16815260200190815260200160002060000160019054906101000a900460ff161561040a576040517f08c379a000000000000000000000000000000000000000000000000000000000815260040161040190611f6f565b60405180910390fd5b6004805490508110610451576040517f08c379a000000000000000000000000000000000000000000000000000000000815260040161044890611fdb565b60405180910390fd5b6040516020016104609061202c565b604051602081830303815290604052805190602001206004828154811061048a57610489612041565b5b90600052602060002090600202016000016040516020016104ab9190612168565b6040516020818303038152906040528051906020012003610501576040517f08c379a00000000000000000000000000000000000000000000000000000000081526004016104f8906121cb565b60405180910390fd5b80600660003373ffffffffffffffffffffffffffffffffffffffff1673ffffffffffffffffffffffffffffffffffffffff168152602001908152602001600020600101819055506001600660003373ffffffffffffffffffffffffffffffffffffffff1673ffffffffffffffffffffffffffffffffffffffff16815260200190815260200160002060000160016101000a81548160ff021916908315150217905550600481815481106105b7576105b6612041565b5b906000526020600020906002020160010160008154809291906105d99061221a565b91905055507f4d99b957a2bc29a30ebd96a7be8e68fe50a3c701db28a91436490b7d53870ca4338260405161060f929190612262565b60405180910390a150565b600660003373ffffffffffffffffffffffffffffffffffffffff1673ffffffffffffffffffffffffffffffffffffffff16815260200190815260200160002060000160009054906101000a900460ff166106a9576040517f08c379a00000000000000000000000000000000000000000000000000000000081526004016106a090611e71565b60405180910390fd5b600160058111156106bd576106bc611bc4565b5b600360009054906101000a900460ff1660058111156106df576106de611bc4565b5b1461071f576040517f08c379a0000000000000000000000000000000000000000000000000000000008152600401610716906122d7565b60405180910390fd5b60405160200161072e9061231a565b60405160208183030381529060405280519060200120816040516020016107559190612373565b60405160208183030381529060405280519060200120036107ab576040517f08c379a00000000000000000000000000000000000000000000000000000000081526004016107a290612407565b60405180910390fd5b6004604051806040016040528083815260200160008152509080600181540180825580915050600190039060005260206000209060020201600090919091909150600082015181600001908161080191906125be565b506020820151816001015550507f92e393e9b54e2f801d3ea4beb0c5e71a21cc34a5d34b77d0fb8a3aa1650dc18f60016004805490506108419190612690565b60405161084e9190611b4d565b60405180910390a150565b6108616116de565b6004600581111561087557610874611bc4565b5b600360009054906101000a900460ff16600581111561089757610896611bc4565b5b146108d7576040517f08c379a00000000000000000000000000000000000000000000000000000000081526004016108ce90612736565b60405180910390fd5b600080600090505b6004805490508110156109555760048281548110610900576108ff612041565b5b9060005260206000209060020201600101546004828154811061092657610925612041565b5b9060005260206000209060020201600101541115610942578091505b808061094d9061221a565b9150506108df565b5060005b6004805490508110156109f4576004828154811061097a57610979612041565b5b906000526020600020906002020160010154600482815481106109a05761099f612041565b5b906000526020600020906002020160010154036109e15760028190806001815401808255809150506001900390600052602060002001600090919091909150555b80806109ec9061221a565b915050610959565b506005600360006101000a81548160ff02191690836005811115610a1b57610a1a611bc4565b5b02179055507fd0333fc5d15226171b77afcfaa378b55d18b661b99c9c5589add6eb03bbf86cd6005604051610a509190611c3b565b60405180910390a17f2af27d00ba33583fb5c2a447957cbb363b3b6eda503641890e49b0194d6dc3606002604051610a889190612855565b60405180910390a150565b610a9b6116de565b610aa5600061175c565b565b60015481565b60008060009054906101000a900473ffffffffffffffffffffffffffffffffffffffff16905090565b600360009054906101000a900460ff1681565b610af1611828565b60048281548110610b0557610b04612041565b5b9060005260206000209060020201604051806040016040529081600082018054610b2e9061209f565b80601f0160208091040260200160405190810160405280929190818152602001828054610b5a9061209f565b8015610ba75780601f10610b7c57610100808354040283529160200191610ba7565b820191906000526020600020905b815481529060010190602001808311610b8a57829003601f168201915b505050505081526020016001820154815250509050919050565b610bc96116de565b60036005811115610bdd57610bdc611bc4565b5b600360009054906101000a900460ff166005811115610bff57610bfe611bc4565b5b14610c3f576040517f08c379a0000000000000000000000000000000000000000000000000000000008152600401610c3690611f03565b60405180910390fd5b6004600360006101000a81548160ff02191690836005811115610c6557610c64611bc4565b5b02179055507fd0333fc5d15226171b77afcfaa378b55d18b661b99c9c5589add6eb03bbf86cd6004604051610c9a9190611c3b565b60405180910390a1565b610cac6116de565b60006005811115610cc057610cbf611bc4565b5b600360009054906101000a900460ff166005811115610ce257610ce1611bc4565b5b14610d22576040517f08c379a0000000000000000000000000000000000000000000000000000000008152600401610d19906128e9565b60405180910390fd5b6001600360006101000a81548160ff02191690836005811115610d4857610d47611bc4565b5b02179055507fd0333fc5d15226171b77afcfaa378b55d18b661b99c9c5589add6eb03bbf86cd6001604051610d7d9190611c3b565b60405180910390a1565b610d8f6116de565b60016005811115610da357610da2611bc4565b5b600360009054906101000a900460ff166005811115610dc557610dc4611bc4565b5b14610e05576040517f08c379a0000000000000000000000000000000000000000000000000000000008152600401610dfc9061297b565b60405180910390fd5b6002600360006101000a81548160ff02191690836005811115610e2b57610e2a611bc4565b5b02179055507fd0333fc5d15226171b77afcfaa378b55d18b661b99c9c5589add6eb03bbf86cd6002604051610e609190611c3b565b60405180910390a1565b610e72611842565b600660008373ffffffffffffffffffffffffffffffffffffffff1673ffffffffffffffffffffffffffffffffffffffff1681526020019081526020016000206040518060600160405290816000820160009054906101000a900460ff161515151581526020016000820160019054906101000a900460ff161515151581526020016001820154815250509050919050565b610f0b6116de565b6001600280549050036110b35760005b60058054905081101561102757604051806060016040528060001515815260200160001515815260200160008152506006600060058481548110610f6257610f61612041565b5b9060005260206000200160009054906101000a900473ffffffffffffffffffffffffffffffffffffffff1673ffffffffffffffffffffffffffffffffffffffff1673ffffffffffffffffffffffffffffffffffffffff16815260200190815260200160002060008201518160000160006101000a81548160ff02191690831515021790555060208201518160000160016101000a81548160ff02191690831515021790555060408201518160010155905050808061101f9061221a565b915050610f1b565b50436001819055506002600061103d9190611867565b6004600061104b9190611888565b6000600360006101000a81548160ff0219169083600581111561107157611070611bc4565b5b02179055507fd0333fc5d15226171b77afcfaa378b55d18b661b99c9c5589add6eb03bbf86cd60006040516110a69190611c3b565b60405180910390a161136b565b60005b6005805490508110156111c2576040518060600160405280600115158152602001600015158152602001600081525060066000600584815481106110fd576110fc612041565b5b9060005260206000200160009054906101000a900473ffffffffffffffffffffffffffffffffffffffff1673ffffffffffffffffffffffffffffffffffffffff1673ffffffffffffffffffffffffffffffffffffffff16815260200190815260200160002060008201518160000160006101000a81548160ff02191690831515021790555060208201518160000160016101000a81548160ff0219169083151502179055506040820151816001015590505080806111ba9061221a565b9150506110b6565b506000600460026000815481106111dc576111db612041565b5b9060005260206000200154815481106111f8576111f7612041565b5b906000526020600020906002020160010154905060005b6004805490508110156112f757600481815481106112305761122f612041565b5b9060005260206000209060020201600101548211156112b857604051806040016040528060405180602001604052806000815250815260200160008152506004828154811061128257611281612041565b5b906000526020600020906002020160008201518160000190816112a591906125be565b50602082015181600101559050506112e4565b6000600482815481106112ce576112cd612041565b5b9060005260206000209060020201600101819055505b80806112ef9061221a565b91505061120f565b50600260006113069190611867565b6002600360006101000a81548160ff0219169083600581111561132c5761132b611bc4565b5b02179055507fd0333fc5d15226171b77afcfaa378b55d18b661b99c9c5589add6eb03bbf86cd60026040516113619190611c3b565b60405180910390a1505b565b6113756116de565b6002600581111561138957611388611bc4565b5b600360009054906101000a900460ff1660058111156113ab576113aa611bc4565b5b146113eb576040517f08c379a00000000000000000000000000000000000000000000000000000000081526004016113e290612a0d565b60405180910390fd5b60038060006101000a81548160ff021916908360058111156114105761140f611bc4565b5b02179055507fd0333fc5d15226171b77afcfaa378b55d18b661b99c9c5589add6eb03bbf86cd60036040516114459190611c3b565b60405180910390a1565b6114576116de565b600073ffffffffffffffffffffffffffffffffffffffff168173ffffffffffffffffffffffffffffffffffffffff16036114c6576040517f08c379a00000000000000000000000000000000000000000000000000000000081526004016114bd90612a9f565b60405180910390fd5b6114cf8161175c565b50565b6114da6116de565b600060058111156114ee576114ed611bc4565b5b600360009054906101000a900460ff1660058111156115105761150f611bc4565b5b14611550576040517f08c379a000000000000000000000000000000000000000000000000000000000815260040161154790612b31565b60405180910390fd5b60011515600660008373ffffffffffffffffffffffffffffffffffffffff1673ffffffffffffffffffffffffffffffffffffffff16815260200190815260200160002060000160009054906101000a900460ff161515036115e6576040517f08c379a00000000000000000000000000000000000000000000000000000000081526004016115dd90612b9d565b60405180910390fd5b6001600660008373ffffffffffffffffffffffffffffffffffffffff1673ffffffffffffffffffffffffffffffffffffffff16815260200190815260200160002060000160006101000a81548160ff0219169083151502179055506005819080600181540180825580915050600190039060005260206000200160009091909190916101000a81548173ffffffffffffffffffffffffffffffffffffffff021916908373ffffffffffffffffffffffffffffffffffffffff1602179055507fb6be2187d059cc2a55fe29e0e503b566e1e0f8c8780096e185429350acffd3dd816040516116d39190611ba9565b60405180910390a150565b6116e6611820565b73ffffffffffffffffffffffffffffffffffffffff16611704610aad565b73ffffffffffffffffffffffffffffffffffffffff161461175a576040517f08c379a000000000000000000000000000000000000000000000000000000000815260040161175190612c09565b60405180910390fd5b565b60008060009054906101000a900473ffffffffffffffffffffffffffffffffffffffff169050816000806101000a81548173ffffffffffffffffffffffffffffffffffffffff021916908373ffffffffffffffffffffffffffffffffffffffff1602179055508173ffffffffffffffffffffffffffffffffffffffff168173ffffffffffffffffffffffffffffffffffffffff167f8be0079c531659141344cd1fd0a4f28419497f9722a3daafe3b4186f6b6457e060405160405180910390a35050565b600033905090565b604051806040016040528060608152602001600081525090565b6040518060600160405280600015158152602001600015158152602001600081525090565b508054600082559060005260206000209081019061188591906118ac565b50565b50805460008255600202906000526020600020908101906118a991906118c9565b50565b5b808211156118c55760008160009055506001016118ad565b5090565b5b808211156118f457600080820160006118e391906118f8565b6001820160009055506002016118ca565b5090565b5080546119049061209f565b6000825580601f106119165750611935565b601f01602090049060005260206000209081019061193491906118ac565b5b50565b6000604051905090565b600080fd5b600080fd5b6000819050919050565b61195f8161194c565b811461196a57600080fd5b50565b60008135905061197c81611956565b92915050565b60006020828403121561199857611997611942565b5b60006119a68482850161196d565b91505092915050565b600080fd5b600080fd5b6000601f19601f8301169050919050565b7f4e487b7100000000000000000000000000000000000000000000000000000000600052604160045260246000fd5b611a02826119b9565b810181811067ffffffffffffffff82111715611a2157611a206119ca565b5b80604052505050565b6000611a34611938565b9050611a4082826119f9565b919050565b600067ffffffffffffffff821115611a6057611a5f6119ca565b5b611a69826119b9565b9050602081019050919050565b82818337600083830152505050565b6000611a98611a9384611a45565b611a2a565b905082815260208101848484011115611ab457611ab36119b4565b5b611abf848285611a76565b509392505050565b600082601f830112611adc57611adb6119af565b5b8135611aec848260208601611a85565b91505092915050565b600060208284031215611b0b57611b0a611942565b5b600082013567ffffffffffffffff811115611b2957611b28611947565b5b611b3584828501611ac7565b91505092915050565b611b478161194c565b82525050565b6000602082019050611b626000830184611b3e565b92915050565b600073ffffffffffffffffffffffffffffffffffffffff82169050919050565b6000611b9382611b68565b9050919050565b611ba381611b88565b82525050565b6000602082019050611bbe6000830184611b9a565b92915050565b7f4e487b7100000000000000000000000000000000000000000000000000000000600052602160045260246000fd5b60068110611c0457611c03611bc4565b5b50565b6000819050611c1582611bf3565b919050565b6000611c2582611c07565b9050919050565b611c3581611c1a565b82525050565b6000602082019050611c506000830184611c2c565b92915050565b600081519050919050565b600082825260208201905092915050565b60005b83811015611c90578082015181840152602081019050611c75565b60008484015250505050565b6000611ca782611c56565b611cb18185611c61565b9350611cc1818560208601611c72565b611cca816119b9565b840191505092915050565b611cde8161194c565b82525050565b60006040830160008301518482036000860152611d018282611c9c565b9150506020830151611d166020860182611cd5565b508091505092915050565b60006020820190508181036000830152611d3b8184611ce4565b905092915050565b611d4c81611b88565b8114611d5757600080fd5b50565b600081359050611d6981611d43565b92915050565b600060208284031215611d8557611d84611942565b5b6000611d9384828501611d5a565b91505092915050565b60008115159050919050565b611db181611d9c565b82525050565b606082016000820151611dcd6000850182611da8565b506020820151611de06020850182611da8565b506040820151611df36040850182611cd5565b50505050565b6000606082019050611e0e6000830184611db7565b92915050565b600082825260208201905092915050565b7f596f75277265206e6f74206120766f7465720000000000000000000000000000600082015250565b6000611e5b601283611e14565b9150611e6682611e25565b602082019050919050565b60006020820190508181036000830152611e8a81611e4e565b9050919050565b7f566f74696e672073657373696f6e20686176656e74207374617274656420796560008201527f7400000000000000000000000000000000000000000000000000000000000000602082015250565b6000611eed602183611e14565b9150611ef882611e91565b604082019050919050565b60006020820190508181036000830152611f1c81611ee0565b9050919050565b7f596f75206861766520616c726561647920766f74656400000000000000000000600082015250565b6000611f59601683611e14565b9150611f6482611f23565b602082019050919050565b60006020820190508181036000830152611f8881611f4c565b9050919050565b7f43657474652070726f706f736974696f6e206e27657869737465207061732021600082015250565b6000611fc5602083611e14565b9150611fd082611f8f565b602082019050919050565b60006020820190508181036000830152611ff481611fb8565b9050919050565b600081905092915050565b50565b6000612016600083611ffb565b915061202182612006565b600082019050919050565b600061203782612009565b9150819050919050565b7f4e487b7100000000000000000000000000000000000000000000000000000000600052603260045260246000fd5b7f4e487b7100000000000000000000000000000000000000000000000000000000600052602260045260246000fd5b600060028204905060018216806120b757607f821691505b6020821081036120ca576120c9612070565b5b50919050565b60008190508160005260206000209050919050565b600081546120f28161209f565b6120fc8186611ffb565b94506001821660008114612117576001811461212c5761215f565b60ff198316865281151582028601935061215f565b612135856120d0565b60005b8381101561215757815481890152600182019150602081019050612138565b838801955050505b50505092915050565b600061217482846120e5565b915081905092915050565b7f546869732070726f706f73616c20697320656d70747900000000000000000000600082015250565b60006121b5601683611e14565b91506121c08261217f565b602082019050919050565b600060208201905081810360008301526121e4816121a8565b9050919050565b7f4e487b7100000000000000000000000000000000000000000000000000000000600052601160045260246000fd5b60006122258261194c565b91507fffffffffffffffffffffffffffffffffffffffffffffffffffffffffffffffff8203612257576122566121eb565b5b600182019050919050565b60006040820190506122776000830185611b9a565b6122846020830184611b3e565b9392505050565b7f50726f706f73616c7320617265206e6f7420616c6c6f77656420796574000000600082015250565b60006122c1601d83611e14565b91506122cc8261228b565b602082019050919050565b600060208201905081810360008301526122f0816122b4565b9050919050565b6000612304600083611e14565b915061230f82612006565b600082019050919050565b60006020820190508181036000830152612333816122f7565b9050919050565b600061234582611c56565b61234f8185611e14565b935061235f818560208601611c72565b612368816119b9565b840191505092915050565b6000602082019050818103600083015261238d818461233a565b905092915050565b7f566f7573206e6520706f7576657a20706173206e65207269656e2070726f706f60008201527f7365720000000000000000000000000000000000000000000000000000000000602082015250565b60006123f1602383611e14565b91506123fc82612395565b604082019050919050565b60006020820190508181036000830152612420816123e4565b9050919050565b60006020601f8301049050919050565b600082821b905092915050565b6000600883026124747fffffffffffffffffffffffffffffffffffffffffffffffffffffffffffffffff82612437565b61247e8683612437565b95508019841693508086168417925050509392505050565b6000819050919050565b60006124bb6124b66124b18461194c565b612496565b61194c565b9050919050565b6000819050919050565b6124d5836124a0565b6124e96124e1826124c2565b848454612444565b825550505050565b600090565b6124fe6124f1565b6125098184846124cc565b505050565b5b8181101561252d576125226000826124f6565b60018101905061250f565b5050565b601f82111561257257612543816120d0565b61254c84612427565b8101602085101561255b578190505b61256f61256785612427565b83018261250e565b50505b505050565b600082821c905092915050565b600061259560001984600802612577565b1980831691505092915050565b60006125ae8383612584565b9150826002028217905092915050565b6125c782611c56565b67ffffffffffffffff8111156125e0576125df6119ca565b5b6125ea825461209f565b6125f5828285612531565b600060209050601f8311600181146126285760008415612616578287015190505b61262085826125a2565b865550612688565b601f198416612636866120d0565b60005b8281101561265e57848901518255600182019150602085019450602081019050612639565b8683101561267b5784890151612677601f891682612584565b8355505b6001600288020188555050505b505050505050565b600061269b8261194c565b91506126a68361194c565b92508282039050818111156126be576126bd6121eb565b5b92915050565b7f43757272656e7420737461747573206973206e6f7420766f74696e672073657360008201527f73696f6e20656e64656400000000000000000000000000000000000000000000602082015250565b6000612720602a83611e14565b915061272b826126c4565b604082019050919050565b6000602082019050818103600083015261274f81612713565b9050919050565b600081549050919050565b600082825260208201905092915050565b60008190508160005260206000209050919050565b60006127938383611cd5565b60208301905092915050565b60008160001c9050919050565b6000819050919050565b60006127c96127c48361279f565b6127ac565b9050919050565b60006127dc82546127b6565b9050919050565b6000600182019050919050565b60006127fb82612756565b6128058185612761565b935061281083612772565b8060005b8381101561284857612825826127d0565b61282f8882612787565b975061283a836127e3565b925050600181019050612814565b5085935050505092915050565b6000602082019050818103600083015261286f81846127f0565b905092915050565b7f5265676973746572696e672070726f706f73616c732063616e7420626520737460008201527f6172746564206e6f770000000000000000000000000000000000000000000000602082015250565b60006128d3602983611e14565b91506128de82612877565b604082019050919050565b60006020820190508181036000830152612902816128c6565b9050919050565b7f5265676973746572696e672070726f706f73616c7320686176656e742073746160008201527f7274656420796574000000000000000000000000000000000000000000000000602082015250565b6000612965602883611e14565b915061297082612909565b604082019050919050565b6000602082019050818103600083015261299481612958565b9050919050565b7f5265676973746572696e672070726f706f73616c73207068617365206973206e60008201527f6f742066696e6973686564000000000000000000000000000000000000000000602082015250565b60006129f7602b83611e14565b9150612a028261299b565b604082019050919050565b60006020820190508181036000830152612a26816129ea565b9050919050565b7f4f776e61626c653a206e6577206f776e657220697320746865207a65726f206160008201527f6464726573730000000000000000000000000000000000000000000000000000602082015250565b6000612a89602683611e14565b9150612a9482612a2d565b604082019050919050565b60006020820190508181036000830152612ab881612a7c565b9050919050565b7f566f7465727320726567697374726174696f6e206973206e6f74206f70656e2060008201527f7965740000000000000000000000000000000000000000000000000000000000602082015250565b6000612b1b602383611e14565b9150612b2682612abf565b604082019050919050565b60006020820190508181036000830152612b4a81612b0e565b9050919050565b7f416c726561647920726567697374657265640000000000000000000000000000600082015250565b6000612b87601283611e14565b9150612b9282612b51565b602082019050919050565b60006020820190508181036000830152612bb681612b7a565b9050919050565b7f4f776e61626c653a2063616c6c6572206973206e6f7420746865206f776e6572600082015250565b6000612bf3602083611e14565b9150612bfe82612bbd565b602082019050919050565b60006020820190508181036000830152612c2281612be6565b905091905056fea264697066735822122064d656e1d16659853f46df136fb356e5d1d854529402457612cf49088ef5539c64736f6c63430008100033a2646970667358221220c07135fe9fb8fe9f222087b23462cabd38743de8ae43bfc46598cbf1843aae7764736f6c63430008100033",
  "linkReferences": {},
  "deployedLinkReferences": {}
}